:020000040800F2
:1000000000800120B502000807030008150300085E
:100010001B0300082103000827030008000000005C
:100020000000000000000000000000002D03000898
:100030003B030008000000004903000857030008C4
:100040000503000805030008050300080503000870
:100050000503000805030008050300080503000860
:100060000503000805030008050300080503000850
:100070000503000805030008050300080503000840
:100080000503000805030008050300080503000830
:100090000503000805030008050300080503000820
:1000A0000503000805030008050300080503000810
:1000B0000503000805030008050300080503000800
:1000C00005030008050300080503000805030008F0
:1000D00005030008050300080503000805030008E0
:1000E00005030008050300080503000805030008D0
:1000F00005030008050300080503000805030008C0
:1001000005030008050300080503000805030008AF
:10011000050300080503000805030008050300089F
:10012000050300080503000805030008050300088F
:10013000050300080503000805030008050300087F
:10014000050300080503000805030008050300086F
:10015000050300080503000805030008050300085F
:10016000050300080503000805030008050300084F
:10017000050300080503000805030008050300083F
:08018000050300080503000857
:1001880010B5054C237833B9044B13B10448AFF3C9
:1001980000800123237010BD18000020000000001B
:1001A8004859000808B5034B1BB103490348AFF38E
:1001B800008008BD000000001C000020485900080D
:1001C80080B483B000AF00237B6000237B6002E033
:1001D8007B6801337B607B684CF250329342F7D9DD
:1001E80000BF0C37BD465DF8047B704780B582B010
:1001F80000AF0023FB7115E00023BB710CE0FB7915
:10020800284AD05CBB79284AD15C0423082201F033
:100218001BF8BB790133BB71BB790F2BEFD9FB7985
:100228000133FB71FB79042BE6D900237B7115E0C0
:1002380000233B710CE07B791A4AD05C3B791A4A5F
:10024800D35C0D22194600F0B1F93B7901333B71BB
:100258003B790F2BEFD97B7901337B717B79042BA9
:10026800E6D9FFF7ADFF0023FB7015E00023BB7054
:100278000CE0FB780B4AD05CBB780B4AD35C0E22AF
:10028800194600F093F9BB780133BB70BB780F2B8C
:10029800EFD9FB780133FB70FB78042BE6D9FFF725
:1002A8008FFFC2E71000002000000020DFF834D0E4
:1002B800002103E00C4B5B58435004310B480C4BB6
:1002C80042189A42F6D30B4A02E0002342F8043B54
:1002D800094B9A42F9D300F041F805F00DFBFFF7FE
:1002E80085FF704700800120685900080000002041
:1002F800180000201800002034000020FEE780B419
:1003080000AF00BFBD465DF8047B704780B400AF06
:10031800FEE780B400AFFEE780B400AFFEE780B42C
:1003280000AFFEE780B400AF00BFBD465DF8047BB8
:10033800704780B400AF00BFBD465DF8047B7047CE
:1003480080B400AF00BFBD465DF8047B704780B441
:1003580000AF00BFBD465DF8047B704780B500AFB5
:10036800164A164BD3F8883043F47003C2F8883025
:10037800134A134B1B6843F001031360104B002210
:100388009A600F4A0E4B1B6823F0847323F4803362
:1003980013600B4B0B4A5A60094A094B1B6823F43C
:1003A80080231360064B0022DA6000F00DF8034B3F
:1003B8004FF000629A6000BF80BD00BF00ED00E012
:1003C800003802401030002480B483B000AF00230E
:1003D8007B6000233B60364A354B1B6843F480330F
:1003E8001360334B1B6803F400333B607B680133B5
:1003F8007B603B68002B03D17B68B3F5A06FF0D11D
:100408002B4B1B6803F40033002B02D001233B6005
:1004180001E000233B603B68012B42D1244A244B76
:100428001B6C43F080531364224A224B1B6843F42D
:10043800404313601E4A1E4B9B6893601C4A1C4B2A
:100448009B6843F400439360194A194B9B6843F433
:10045800A0539360164B184A5A60154A144B1B68F0
:1004680043F08073136000BF114B1B6803F00073E7
:10047800002BF9D0114B40F205721A600C4A0C4B54
:100488009B6823F003039360094A094B9B6843F078
:100498000203936000BF064B9B6803F00C03082B14
:1004A800F9D100BF0C37BD465DF8047B704700BF2B
:1004B800003802400070004019544007003C0240D8
:1004C80080B483B000AF03460A46FB711346BB7184
:1004D800FB79042B61D801A252F823F0F904000833
:1004E8001B0500083D0500085F0500088105000898
:1004F800BB79012B06D12C4A2B4B1B6B43F0010314
:1005080013634BE0284A284B1B6B23F0010313634A
:1005180044E0BB79012B06D1234A234B1B6B43F0E4
:10052800020313633AE0204A1F4B1B6B23F00203BC
:10053800136333E0BB79012B06D11B4A1A4B1B6BA3
:1005480043F00403136329E0174A174B1B6B23F08E
:100558000403136322E0BB79012B06D1124A124B24
:100568001B6B43F00803136318E00F4A0E4B1B6B19
:1005780023F00803136311E0BB79012B06D10A4A63
:10058800094B1B6B43F01003136307E0064A064B45
:100598001B6B23F01003136300E000BF00BF0C3790
:1005A800BD465DF8047B70470038024080B483B0D4
:1005B80000AF0346FB710B46BB7113467B71FB7999
:1005C800042B00F2378601A252F823F0E90500084F
:1005D8005F080008D50A00084D0D0008C50F00087F
:1005E800BB790F2B00F2348101A252F823F000BF2F
:1005F800390600085B0600087D0600089F0600080B
:10060800C1060008E30600080507000827070008D8
:10061800490700086B0700088D070008AF070008A6
:10062800D1070008F3070008150800083708000874
:100638007B790D2B06D19B4A9A4B9B6943F00103AA
:10064800936106E1974A974B9B6943F48033936122
:10065800FFE07B790D2B06D1924A924B9B6943F0C0
:1006680002039361F5E08F4A8E4B9B6943F4003394
:100678009361EEE07B790D2B06D18A4A894B9B6901
:1006880043F004039361E4E0864A864B9B6943F494
:1006980080239361DDE07B790D2B06D1814A814B64
:1006A8009B6943F008039361D3E07E4A7D4B9B69C5
:1006B80043F400239361CCE07B790D2B06D1794A72
:1006C800784B9B6943F010039361C2E0754A754B00
:1006D8009B6943F480139361BBE07B790D2B06D1B2
:1006E800704A704B9B6943F020039361B1E06D4AF7
:1006F8006C4B9B6943F400139361AAE07B790D2B43
:1007080006D1684A674B9B6943F040039361A0E0B8
:10071800644A644B9B6943F48003936199E07B7955
:100728000D2B06D15F4A5F4B9B6943F080039361B1
:100738008FE05C4A5B4B9B6943F40003936188E05C
:100748007B790D2B06D1574A564B9B6943F480732E
:1007580093617EE0534A534B9B6943F080739361E6
:1007680077E07B790D2B06D14E4A4E4B9B6943F4BB
:10077800007393616DE04B4A4A4B9B6943F00073E9
:10078800936166E07B790D2B06D1464A454B9B6900
:1007980043F4806393615CE0424A424B9B6943F0B7
:1007A8008063936155E07B790D2B06D13D4A3D4B23
:1007B8009B6943F4006393614BE03A4A394B9B6968
:1007C80043F00063936144E07B790D2B06D1354AF1
:1007D800344B9B6943F4805393613AE0314A314B7F
:1007E8009B6943F08053936133E07B790D2B06D1ED
:1007F8002C4A2C4B9B6943F40053936129E0294A06
:10080800284B9B6943F00053936122E07B790D2BC1
:1008180006D1244A234B9B6943F48043936118E033
:10082800204A204B9B6943F08043936111E07B7918
:100838000D2B06D11B4A1B4B9B6943F40043936164
:1008480007E0184A174B9B6943F00043936100E0A7
:1008580000BF00F0F0BCBB790F2B00F2358101A27C
:1008680052F823F0B1080008D3080008F50800087A
:1008780017090008390900085B0900087D09000804
:100888009F090008C1090008E3090008050A0008D3
:10089800270A0008490A00086B0A00088D0A0008A0
:1008A800AF0A0008000002407B790D2B06D19B4A55
:1008B8009A4B9B6943F00103936106E1974A974B72
:1008C8009B6943F480339361FFE07B790D2B06D15C
:1008D800924A924B9B6943F002039361F5E08F4A79
:1008E8008E4B9B6943F400339361EEE07B790D2BCB
:1008F80006D18A4A894B9B6943F004039361E4E07B
:10090800864A864B9B6943F480239361DDE07B79BB
:100918000D2B06D1814A814B9B6943F008039361F3
:10092800D3E07E4A7D4B9B6943F400239361CCE07E
:100938007B790D2B06D1794A784B9B6943F01003DC
:100948009361C2E0754A754B9B6943F480139361C8
:10095800BBE07B790D2B06D1704A704B9B6943F045
:1009680020039361B1E06D4A6C4B9B6943F400131B
:100978009361AAE07B790D2B06D1684A674B9B6986
:1009880043F040039361A0E0644A644B9B6943F4DD
:100998008003936199E07B790D2B06D15F4A5F4B09
:1009A8009B6943F0800393618FE05C4A5B4B9B69D2
:1009B80043F40003936188E07B790D2B06D1574AF5
:1009C800564B9B6943F4807393617EE0534A534BC3
:1009D8009B6943F08073936177E07B790D2B06D197
:1009E8004E4A4E4B9B6943F4007393616DE04B4A4A
:1009F8004A4B9B6943F00073936166E07B790D2B4A
:100A080006D1464A454B9B6943F4806393615CE099
:100A1800424A424B9B6943F08063936155E07B797E
:100A28000D2B06D13D4A3D4B9B6943F4006393610E
:100A38004BE03A4A394B9B6943F00063936144E0C9
:100A48007B790D2B06D1354A344B9B6943F480538F
:100A580093613AE0314A314B9B6943F0805393618B
:100A680033E07B790D2B06D12C4A2C4B9B6943F440
:100A78000053936129E0294A284B9B6943F00053AE
:100A8800936122E07B790D2B06D1244A234B9B6985
:100A980043F48043936118E0204A204B9B6943F05C
:100AA8008043936111E07B790D2B06D11B4A1B4BC8
:100AB8009B6943F40043936107E0184A174B9B690D
:100AC80043F00043936100E000BFB4E3BB790F2B10
:100AD80000F2368101A252F823F000BF290B00086A
:100AE8004B0B00086D0B00088F0B0008B10B0008BA
:100AF800D30B0008F50B0008170C0008390C000888
:100B08005B0C00087D0C00089F0C0008C10C000855
:100B1800E30C0008050D0008270D0008000402403A
:100B28007B790D2B06D19B4A9A4B9B6943F00103B5
:100B3800936106E1974A974B9B6943F4803393612D
:100B4800FFE07B790D2B06D1924A924B9B6943F0CB
:100B580002039361F5E08F4A8E4B9B6943F400339F
:100B68009361EEE07B790D2B06D18A4A894B9B690C
:100B780043F004039361E4E0864A864B9B6943F49F
:100B880080239361DDE07B790D2B06D1814A814B6F
:100B98009B6943F008039361D3E07E4A7D4B9B69D0
:100BA80043F400239361CCE07B790D2B06D1794A7D
:100BB800784B9B6943F010039361C2E0754A754B0B
:100BC8009B6943F480139361BBE07B790D2B06D1BD
:100BD800704A704B9B6943F020039361B1E06D4A02
:100BE8006C4B9B6943F400139361AAE07B790D2B4E
:100BF80006D1684A674B9B6943F040039361A0E0C4
:100C0800644A644B9B6943F48003936199E07B7960
:100C18000D2B06D15F4A5F4B9B6943F080039361BC
:100C28008FE05C4A5B4B9B6943F40003936188E067
:100C38007B790D2B06D1574A564B9B6943F4807339
:100C480093617EE0534A534B9B6943F080739361F1
:100C580077E07B790D2B06D14E4A4E4B9B6943F4C6
:100C6800007393616DE04B4A4A4B9B6943F00073F4
:100C7800936166E07B790D2B06D1464A454B9B690B
:100C880043F4806393615CE0424A424B9B6943F0C2
:100C98008063936155E07B790D2B06D13D4A3D4B2E
:100CA8009B6943F4006393614BE03A4A394B9B6973
:100CB80043F00063936144E07B790D2B06D1354AFC
:100CC800344B9B6943F4805393613AE0314A314B8A
:100CD8009B6943F08053936133E07B790D2B06D1F8
:100CE8002C4A2C4B9B6943F40053936129E0294A11
:100CF800284B9B6943F00053936122E07B790D2BCD
:100D080006D1244A234B9B6943F48043936118E03E
:100D1800204A204B9B6943F08043936111E07B7923
:100D28000D2B06D11B4A1B4B9B6943F4004393616F
:100D380007E0184A174B9B6943F00043936100E0B2
:100D480000BF78E2BB790F2B00F2368101A252F87E
:100D580023F000BFA10D0008C30D0008E50D000831
:100D6800070E0008290E00084B0E00086D0E00083B
:100D78008F0E0008B10E0008D30E0008F50E00080B
:100D8800170F0008390F00085B0F00087D0F0008D7
:100D98009F0F0008000802407B790D2B06D19B4A63
:100DA8009A4B9B6943F00103936106E1974A974B7D
:100DB8009B6943F480339361FFE07B790D2B06D167
:100DC800924A924B9B6943F002039361F5E08F4A84
:100DD8008E4B9B6943F400339361EEE07B790D2BD6
:100DE80006D18A4A894B9B6943F004039361E4E086
:100DF800864A864B9B6943F480239361DDE07B79C7
:100E08000D2B06D1814A814B9B6943F008039361FE
:100E1800D3E07E4A7D4B9B6943F400239361CCE089
:100E28007B790D2B06D1794A784B9B6943F01003E7
:100E38009361C2E0754A754B9B6943F480139361D3
:100E4800BBE07B790D2B06D1704A704B9B6943F050
:100E580020039361B1E06D4A6C4B9B6943F4001326
:100E68009361AAE07B790D2B06D1684A674B9B6991
:100E780043F040039361A0E0644A644B9B6943F4E8
:100E88008003936199E07B790D2B06D15F4A5F4B14
:100E98009B6943F0800393618FE05C4A5B4B9B69DD
:100EA80043F40003936188E07B790D2B06D1574A00
:100EB800564B9B6943F4807393617EE0534A534BCE
:100EC8009B6943F08073936177E07B790D2B06D1A2
:100ED8004E4A4E4B9B6943F4007393616DE04B4A55
:100EE8004A4B9B6943F00073936166E07B790D2B55
:100EF80006D1464A454B9B6943F4806393615CE0A5
:100F0800424A424B9B6943F08063936155E07B7989
:100F18000D2B06D13D4A3D4B9B6943F40063936119
:100F28004BE03A4A394B9B6943F00063936144E0D4
:100F38007B790D2B06D1354A344B9B6943F480539A
:100F480093613AE0314A314B9B6943F08053936196
:100F580033E07B790D2B06D12C4A2C4B9B6943F44B
:100F68000053936129E0294A284B9B6943F00053B9
:100F7800936122E07B790D2B06D1244A234B9B6990
:100F880043F48043936118E0204A204B9B6943F067
:100F98008043936111E07B790D2B06D11B4A1B4BD3
:100FA8009B6943F40043936107E0184A174B9B6918
:100FB80043F00043936100E000BF3CE1BB790F2B95
:100FC80000F2368101A252F823F000BF1910000880
:100FD8003B1000085D1000087F100008A1100008F1
:100FE800C3100008E51000080711000829110008BF
:100FF8004B1100086D1100088F110008B11100088D
:10100800D3110008F511000817120008000C02405F
:101018007B790D2B06D18B4A8A4B9B6943F00103E0
:10102800936106E1874A874B9B6943F48033936158
:10103800FFE07B790D2B06D1824A824B9B6943F0F6
:1010480002039361F5E07F4A7E4B9B6943F40033CA
:101058009361EEE07B790D2B06D17A4A794B9B6937
:1010680043F004039361E4E0764A764B9B6943F4CA
:1010780080239361DDE07B790D2B06D1714A714B9A
:101088009B6943F008039361D3E06E4A6D4B9B69FB
:1010980043F400239361CCE07B790D2B06D1694A98
:1010A800684B9B6943F010039361C2E0654A654B46
:1010B8009B6943F480139361BBE07B790D2B06D1C8
:1010C800604A604B9B6943F020039361B1E05D4A3D
:1010D8005C4B9B6943F400139361AAE07B790D2B69
:1010E80006D1584A574B9B6943F040039361A0E0EF
:1010F800544A544B9B6943F48003936199E07B798C
:101108000D2B06D14F4A4F4B9B6943F080039361E7
:101118008FE04C4A4B4B9B6943F40003936188E092
:101128007B790D2B06D1474A464B9B6943F4807364
:1011380093617EE0434A434B9B6943F0807393611C
:1011480077E07B790D2B06D13E4A3E4B9B6943F4F1
:10115800007393616DE03B4A3A4B9B6943F000731F
:10116800936166E07B790D2B06D1364A354B9B6936
:1011780043F4806393615CE0324A324B9B6943F0ED
:101188008063936155E07B790D2B06D12D4A2D4B59
:101198009B6943F4006393614BE02A4A294B9B699E
:1011A80043F00063936144E07B790D2B06D1254A17
:1011B800244B9B6943F4805393613AE0214A214BC5
:1011C8009B6943F08053936133E07B790D2B06D103
:1011D8001C4A1C4B9B6943F40053936129E0194A4C
:1011E800184B9B6943F00053936122E07B790D2BE8
:1011F80006D1144A134B9B6943F48043936118E06A
:10120800104A104B9B6943F08043936111E07B794E
:101218000D2B06D10B4A0B4B9B6943F4004393619A
:1012280007E0084A074B9B6943F00043936100E0DD
:1012380000BF00E000BF00BF0C37BD465DF8047B6F
:10124800704700BF0010024090B583B000AF04465D
:10125800084611461A462346FB710346BB710B46E6
:101268007B7113463B71B979FB790122184602F06C
:10127800A1FEFB79042B02F2968601A252F823F014
:101288009D120008A11B0008B1240008BF2D00080A
:10129800CD360008BB790F2B00F24B8401A252F81F
:1012A80023F000BFED12000873130008F7130008BD
:1012B8007B140008FF140008871500080B160008A7
:1012C8008F16000813170008971700082118000840
:1012D800A518000829190008AD190008371A0008D0
:1012E800B91A00087B79082B06D1944A934B5B689E
:1012F80023F0010353600EE07B79092B0BD18F4A51
:101308008E4B5B6843F0010353608C4A8B4BDB6860
:1013180043F00103D3603B79042B07D1874A874BFD
:101328009B6823F00303936000F006BC3B79052B10
:1013380006D1824A814B9B6843F001039360FBE32B
:101348003B79062B06D17D4A7C4B9B6843F0020310
:101358009360F1E33B79072B40F0EE83774A774BB4
:101368009B6843F003039360E6E37B79082B06D17F
:10137800724A724B5B6823F0020353600EE07B797C
:10138800092B0BD16D4A6D4B5B6843F00203536028
:101398006A4A6A4BDB6843F00403D3603B79042B49
:1013A80006D1664A654B9B6823F00C039360C6E33D
:1013B8003B79052B06D1614A604B9B6843F00403D7
:1013C8009360BCE33B79062B06D15C4A5B4B9B6878
:1013D80043F008039360B2E33B79072B40F0AF83F7
:1013E800564A564B9B6843F00C039360A7E37B79FE
:1013F800082B06D1514A514B5B6823F00403536014
:101408000EE07B79092B0BD14C4A4C4B5B6843F0BF
:1014180004035360494A494BDB6843F01003D36027
:101428003B79042B06D1454A444B9B6823F0300393
:10143800936087E33B79052B06D1404A3F4B9B6875
:1014480043F0100393607DE33B79062B06D13B4ABA
:101458003A4B9B6843F02003936073E33B79072B77
:1014680040F07083354A354B9B6843F030039360F6
:1014780068E37B79082B06D1304A304B5B6823F050
:10148800080353600EE07B79092B0BD12B4A2B4BB9
:101498005B6843F008035360284A284BDB6843F035
:1014A8004003D3603B79042B06D1244A234B9B6825
:1014B80023F0C003936048E33B79052B06D11F4A0C
:1014C8001E4B9B6843F0400393603EE33B79062B39
:1014D80006D11A4A194B9B6843F08003936034E3A2
:1014E8003B79072B40F03183144A144B9B6843F037
:1014F800C003936029E37B79082B06D10F4A0F4B71
:101508005B6823F0100353600EE07B79092B0BD145
:101518000A4A0A4B5B6843F010035360074A074BBB
:10152800DB6843F48073D3603B79042B08D1034A0A
:10153800024B9B6823F44073936009E30000024068
:101548003B79052B06D1974A964B9B6843F48073E9
:101558009360FDE23B79062B06D1924A914B9B683A
:1015680043F400739360F3E23B79072B40F0F08279
:101578008C4A8C4B9B6843F440739360E8E27B7918
:10158800082B06D1874A874B5B6823F020035360FA
:101598000EE07B79092B0BD1824A824B5B6843F0C2
:1015A800200353607F4A7F4BDB6843F48063D3603A
:1015B8003B79042B06D17B4A7A4B9B6823F4406322
:1015C8009360C8E23B79052B06D1764A754B9B6838
:1015D80043F480639360BEE23B79062B06D1714ADF
:1015E800704B9B6843F400639360B4E23B79072B2C
:1015F80040F0B1826B4A6B4B9B6843F44063936045
:10160800A9E27B79082B06D1664A664B5B6823F012
:10161800400353600EE07B79092B0BD1614A614B83
:101628005B6843F0400353605E4A5E4BDB6843F4FB
:101638008053D3603B79042B06D15A4A594B9B6897
:1016480023F44053936089E23B79052B06D1554A30
:10165800544B9B6843F4805393607FE23B79062B9D
:1016680006D1504A4F4B9B6843F40053936075E290
:101678003B79072B40F072824A4A4A4B9B6843F4F5
:10168800405393606AE27B79082B06D1454A454B63
:101698005B6823F0800353600EE07B79092B0BD144
:1016A800404A404B5B6843F0800353603D4A3D4BE2
:1016B800DB6843F48043D3603B79042B06D1394A75
:1016C800384B9B6823F4404393604AE23B79052BEF
:1016D80006D1344A334B9B6843F48043936040E21D
:1016E8003B79062B06D12F4A2E4B9B6843F40043C7
:1016F800936036E23B79072B40F03382294A294B25
:101708009B6843F4404393602BE27B79082B06D116
:10171800244A244B5B6823F4807353600EE07B7982
:10172800092B0BD11F4A1F4B5B6843F4807353602E
:101738001C4A1C4BDB6843F48033D3603B79042B91
:1017480006D1184A174B9B6823F4403393600BE289
:101758003B79052B06D1134A124B9B6843F480331F
:10176800936001E23B79062B06D10E4A0D4B9B682C
:1017780043F400339360F7E13B79072B40F0F481A1
:10178800084A084B9B6843F440339360ECE17B794B
:10179800082B09D1034A034B5B6823F40073536099
:1017A80011E000BF000002407B79092B0BD1944A5D
:1017B800934B5B6843F400735360914A904BDB682A
:1017C80043F48023D3603B79042B06D18C4A8C4B9D
:1017D8009B6823F440239360C9E13B79052B06D12C
:1017E800874A874B9B6843F480239360BFE13B792A
:1017F800062B06D1824A824B9B6843F400239360F0
:10180800B5E13B79072B40F0B2817D4A7C4B9B6860
:1018180043F440239360AAE17B79082B06D1784AE8
:10182800774B5B6823F4806353600EE07B79092B68
:101838000BD1734A724B5B6843F480635360704A00
:101848006F4BDB6843F48013D3603B79042B06D1DC
:101858006B4A6B4B9B6823F4401393608AE13B7996
:10186800052B06D1664A664B9B6843F48013936048
:1018780080E13B79062B06D1614A614B9B6843F4B2
:101888000013936076E13B79072B40F073815C4A43
:101898005B4B9B6843F4401393606BE17B79082BA7
:1018A80006D1574A564B5B6823F4006353600EE039
:1018B8007B79092B0BD1524A514B5B6843F4006387
:1018C80053604F4A4E4BDB6843F48003D3603B7947
:1018D800042B06D14A4A4A4B9B6823F44003936081
:1018E8004BE13B79052B06D1454A454B9B6843F4B0
:1018F8008003936041E13B79062B06D1404A404B77
:101908009B6843F40003936037E13B79072B40F071
:1019180034813B4A3A4B9B6843F4400393602CE183
:101928007B79082B06D1364A354B5B6823F4805304
:1019380053600EE07B79092B0BD1314A304B5B6841
:1019480043F4805353602E4A2D4BDB6843F0807379
:10195800D3603B79042B06D1294A294B9B6823F095
:10196800407393600CE13B79052B06D1244A244B44
:101978009B6843F08073936002E13B79062B06D1A4
:101988001F4A1F4B9B6843F000739360F8E03B7954
:10199800072B40F0F5801A4A194B9B6843F04073B7
:1019A8009360EDE07B79082B06D1154A144B5B68F0
:1019B80023F4005353600EE07B79092B0BD1104AB6
:1019C8000F4B5B6843F4005353600D4A0C4BDB68C4
:1019D80043F08063D3603B79042B06D1084A084B57
:1019E8009B6823F040639360CDE03B79052B09D1D8
:1019F800034A034B9B6843F080639360C3E000BFD6
:101A0800000002403B79062B06D19E4A9D4B9B68FD
:101A180043F000639360B6E03B79072B40F0B38056
:101A2800984A984B9B6843F040639360ABE07B799E
:101A3800082B06D1934A934B5B6823F48043536089
:101A48000EE07B79092B0BD18E4A8E4B5B6843F4F1
:101A5800804353608B4A8B4BDB6843F08053D360E1
:101A68003B79042B06D1874A864B9B6823F0405369
:101A780093608BE03B79052B06D1824A814B9B68AA
:101A880043F08053936081E03B79062B06D17D4A71
:101A98007C4B9B6843F00053936077E03B79072BBE
:101AA80074D1784A774B9B6843F0405393606DE05C
:101AB8007B79082B06D1734A724B5B6823F4004389
:101AC80053600EE07B79092B0BD16E4A6D4B5B6836
:101AD80043F4004353606B4A6A4BDB6843F080432E
:101AE800D3603B79042B06D1664A664B9B6823F08A
:101AF800404393604DE03B79052B06D1614A614B29
:101B08009B6843F08043936043E03B79062B06D102
:101B18005C4A5C4B9B6843F00043936039E03B7937
:101B2800072B36D1574A574B9B6843F04043936085
:101B38002FE000BF02F038BA00BF02F035BA00BF8C
:101B480002F032BA00BF02F02FBA00BF02F02CBA7E
:101B580000BF02F029BA00BF02F026BA00BF02F0A7
:101B680023BA00BF02F020BA00BF02F01DBA00BFBE
:101B780002F01ABA00BF02F017BA00BF02F014BA96
:101B880000BF02F011BA00BF02F00EBA00BF02F0A7
:101B98000BBA00BF02F008BABB790F2B00F25184D0
:101BA80001A252F823F000BFF11B0008791C0008BD
:101BB800051D0008891D00080D1E0008911E00085B
:101BC8001B1F00089F1F000823200008A7200008EB
:101BD8002B210008B521000839220008BD22000881
:101BE80041230008C92300087B79082B06D1264A1F
:101BF800254B5B6823F0010353600EE07B79092BCA
:101C08000BD1214A204B5B6843F0010353601E4A05
:101C18001D4BDB6843F00103D3603B79042B07D1EC
:101C2800194A194B9B6823F00303936000F00CBC1E
:101C38003B79052B07D1144A134B9B6843F00103EA
:101C4800936000F001BC3B79062B06D10E4A0E4B7F
:101C58009B6843F002039360F6E33B79072B40F05F
:101C6800F383094A084B9B6843F003039360EBE353
:101C78007B79082B0AD1044A034B5B6823F00203E3
:101C8800536012E000000240000402407B79092BF7
:101C98000BD1944A934B5B6843F002035360914A1B
:101CA800904BDB6843F00403D3603B79042B06D1E7
:101CB8008C4A8C4B9B6823F00C039360C7E33B79F9
:101CC800052B06D1874A874B9B6843F00403936032
:101CD800BDE33B79062B06D1824A824B9B6843F0D1
:101CE80008039360B3E33B79072B40F0B0837D4A48
:101CF8007C4B9B6843F00C039360A8E37B79082B2B
:101D080006D1784A774B5B6823F0040353600EE0F2
:101D18007B79092B0BD1734A724B5B6843F0040340
:101D28005360704A6F4BDB6843F01003D3603B7914
:101D3800042B06D16B4A6B4B9B6823F030039360EE
:101D480088E33B79052B06D1664A664B9B6843F0CE
:101D5800100393607EE33B79062B06D1614A614B01
:101D68009B6843F02003936074E33B79072B40F0B2
:101D780071835C4A5B4B9B6843F03003936069E373
:101D88007B79082B06D1574A564B5B6823F008032A
:101D980053600EE07B79092B0BD1524A514B5B689B
:101DA80043F0080353604F4A4E4BDB6843F040034F
:101DB800D3603B79042B06D14A4A4A4B9B6823F0EF
:101DC800C003936049E33B79052B06D1454A454B4F
:101DD8009B6843F0400393603FE33B79062B06D1B1
:101DE800404A404B9B6843F08003936035E33B795E
:101DF800072B40F032833B4A3A4B9B6843F0C003C1
:101E080093602AE37B79082B06D1364A354B5B6809
:101E180023F0100353600EE07B79092B0BD1314A74
:101E2800304B5B6843F0100353602E4A2D4BDB6840
:101E380043F48073D3603B79042B06D1294A294B9C
:101E48009B6823F4407393600AE33B79052B06D122
:101E5800244A244B9B6843F48073936000E33B79E6
:101E6800062B06D11F4A1F4B9B6843F400739360EF
:101E7800F6E23B79072B40F0F3821A4A194B9B682C
:101E880043F440739360EBE27B79082B06D1154A43
:101E9800144B5B6823F0200353600EE07B79092B19
:101EA8000BD1104A0F4B5B6843F0200353600D4A77
:101EB8000C4BDB6843F48063D3603B79042B06D179
:101EC800084A084B9B6823F440639360CBE23B7954
:101ED800052B09D1034A034B9B6843F48063936045
:101EE800C1E200BF000402403B79062B06D1924AAA
:101EF800914B9B6843F400639360B4E23B79072BF2
:101F080040F0B1828C4A8C4B9B6843F440639360E9
:101F1800A9E27B79082B06D1874A874B5B6823F0B7
:101F2800400353600EE07B79092B0BD1824A824B28
:101F38005B6843F0400353607F4A7F4BDB6843F4A0
:101F48008053D3603B79042B06D17B4A7A4B9B683C
:101F580023F44053936089E23B79052B06D1764AF6
:101F6800754B9B6843F4805393607FE23B79062B63
:101F780006D1714A704B9B6843F40053936075E235
:101F88003B79072B40F072826B4A6B4B9B6843F49A
:101F9800405393606AE27B79082B06D1664A664B08
:101FA8005B6823F0800353600EE07B79092B0BD12B
:101FB800614A614B5B6843F0800353605E4A5E4B45
:101FC800DB6843F48043D3603B79042B06D15A4A3B
:101FD800594B9B6823F4404393604AE23B79052BB5
:101FE80006D1554A544B9B6843F48043936040E2C2
:101FF8003B79062B06D1504A4F4B9B6843F400436C
:10200800936036E23B79072B40F033824A4A4A4BC9
:102018009B6843F4404393602BE27B79082B06D1FD
:10202800454A454B5B6823F4807353600EE07B7927
:10203800092B0BD1404A404B5B6843F480735360D3
:102048003D4A3D4BDB6843F48033D3603B79042B36
:1020580006D1394A384B9B6823F4403393600BE22E
:102068003B79052B06D1344A334B9B6843F48033C4
:10207800936001E23B79062B06D12F4A2E4B9B68D1
:1020880043F400339360F7E13B79072B40F0F48188
:10209800294A294B9B6843F440339360ECE17B79F0
:1020A800082B06D1244A244B5B6823F40073536041
:1020B8000EE07B79092B0BD11F4A1F4B5B6843F459
:1020C800007353601C4A1C4BDB6843F48023D360C5
:1020D8003B79042B06D1184A174B9B6823F44023FD
:1020E8009360CCE13B79052B06D1134A124B9B68D0
:1020F80043F480239360C2E13B79062B06D10E4A54
:102108000D4B9B6843F400239360B8E13B79072BA0
:1021180040F0B581084A084B9B6843F4402393601C
:10212800ADE17B79082B09D1034A034B5B6823F4A3
:102138008063536011E000BF000402407B79092BE3
:102148000BD1944A934B5B6843F480635360914A84
:10215800904BDB6843F48013D3603B79042B06D1A2
:102168008C4A8C4B9B6823F4401393608AE13B793B
:10217800052B06D1874A874B9B6843F480139360ED
:1021880080E13B79062B06D1824A824B9B6843F457
:102198000013936076E13B79072B40F073817D4A09
:1021A8007C4B9B6843F4401393606BE17B79082B6D
:1021B80006D1784A774B5B6823F4006353600EE0DE
:1021C8007B79092B0BD1734A724B5B6843F400632C
:1021D8005360704A6F4BDB6843F48003D3603B79EC
:1021E800042B06D16B4A6B4B9B6823F44003936026
:1021F8004BE13B79052B06D1664A664B9B6843F455
:102208008003936041E13B79062B06D1614A614B1B
:102218009B6843F40003936037E13B79072B40F058
:1022280034815C4A5B4B9B6843F4400393602CE128
:102238007B79082B06D1574A564B5B6823F48053A9
:1022480053600EE07B79092B0BD1524A514B5B68E6
:1022580043F4805353604F4A4E4BDB6843F080731E
:10226800D3603B79042B06D14A4A4A4B9B6823F03A
:10227800407393600CE13B79052B06D1454A454BE9
:102288009B6843F08073936002E13B79062B06D18B
:10229800404A404B9B6843F000739360F8E03B79F9
:1022A800072B40F0F5803B4A3A4B9B6843F040735C
:1022B8009360EDE07B79082B06D1364A354B5B6895
:1022C80023F4005353600EE07B79092B0BD1314A7C
:1022D800304B5B6843F4005353602E4A2D4BDB6848
:1022E80043F08063D3603B79042B06D1294A294BFC
:1022F8009B6823F040639360CDE03B79052B06D1C2
:10230800244A244B9B6843F080639360C3E03B7985
:10231800062B06D11F4A1F4B9B6843F0006393604E
:10232800B9E03B79072B40F0B6801A4A194B9B68F5
:1023380043F040639360AEE07B79082B06D1154AE1
:10234800144B5B6823F4804353600EE07B79092BC0
:102358000BD1104A0F4B5B6843F4804353600D4A1E
:102368000C4BDB6843F08053D3603B79042B06D1D8
:10237800084A084B9B6823F0405393608EE03B79F2
:10238800052B09D1034A034B9B6843F080539360A4
:1023980084E000BF000402403B79062B06D19E4A28
:1023A8009D4B9B6843F00053936077E03B79072B84
:1023B80074D1994A984B9B6843F0405393606DE001
:1023C8007B79082B06D1944A934B5B6823F400432E
:1023D80053600EE07B79092B0BD18F4A8E4B5B68DB
:1023E80043F4004353608C4A8B4BDB6843F08043D3
:1023F800D3603B79042B06D1874A874B9B6823F02F
:10240800404393604DE03B79052B06D1824A824BCD
:102418009B6843F08043936043E03B79062B06D1E9
:102428007D4A7D4B9B6843F00043936039E03B79DC
:10243800072B36D1784A784B9B6843F0404393602A
:102448002FE000BF01F0B0BD00BF01F0ADBD00BF7F
:1024580001F0AABD00BF01F0A7BD00BF01F0A4BDF7
:1024680000BF01F0A1BD00BF01F09EBD00BF01F09B
:102478009BBD00BF01F098BD00BF01F095BD00BF36
:1024880001F092BD00BF01F08FBD00BF01F08CBD0F
:1024980000BF01F089BD00BF01F086BD00BF01F09B
:1024A80083BD00BF01F080BDBB790F2B00F25084C3
:1024B80001A252F823F000BF012500088925000871
:1024C8000D260008992600081D270008A1270008E6
:1024D80025280008AF28000833290008B729000874
:1024E8003B2A0008BF2A0008492B0008CD2B00080A
:1024F800512C0008D32C00087B79082B06D1474AB9
:10250800464B5B6823F0010353600EE07B79092B8F
:102518000BD1424A414B5B6843F0010353603F4A89
:102528003E4BDB6843F00103D3603B79042B07D1B2
:102538003A4A3A4B9B6823F00303936000F00BBCC4
:102548003B79052B07D1354A344B9B6843F001038F
:10255800936000F000BC3B79062B06D12F4A2F4B25
:102568009B6843F002039360F5E33B79072B40F047
:10257800F2832A4A294B9B6843F003039360EAE3FA
:102588007B79082B06D1254A244B5B6823F002038C
:1025980053600EE07B79092B0BD1204A1F4B5B68F7
:1025A80043F0020353601D4A1C4BDB6843F00403ED
:1025B800D3603B79042B06D1184A184B9B6823F04B
:1025C8000C039360CAE33B79052B06D1134A134BDE
:1025D8009B6843F004039360C0E33B79062B06D164
:1025E8000E4A0E4B9B6843F008039360B6E33B79B1
:1025F800072B40F0B383094A084B9B6843F00C0350
:102608009360ABE37B79082B0AD1044A034B5B68E0
:1026180023F00403536012E0000402400008024063
:102628007B79092B0BD1944A934B5B6843F00403E5
:102638005360914A904BDB6843F01003D3603B79B9
:10264800042B06D18C4A8C4B9B6823F03003936093
:1026580087E33B79052B06D1874A874B9B6843F074
:10266800100393607DE33B79062B06D1824A824BA7
:102678009B6843F02003936073E33B79072B40F09A
:1026880070837D4A7C4B9B6843F03003936068E31A
:102698007B79082B06D1784A774B5B6823F00803CF
:1026A80053600EE07B79092B0BD1734A724B5B6840
:1026B80043F008035360704A6F4BDB6843F04003F4
:1026C800D3603B79042B06D16B4A6B4B9B6823F094
:1026D800C003936048E33B79052B06D1664A664BF5
:1026E8009B6843F0400393603EE33B79062B06D199
:1026F800614A614B9B6843F08003936034E33B7904
:10270800072B40F031835C4A5B4B9B6843F0C00366
:10271800936029E37B79082B06D1574A564B5B68AF
:1027280023F0100353600EE07B79092B0BD1524A3A
:10273800514B5B6843F0100353604F4A4E4BDB68C4
:1027480043F48073D3603B79042B06D14A4A4A4B41
:102758009B6823F44073936009E33B79052B06D10A
:10276800454A454B9B6843F480739360FFE23B798D
:10277800062B06D1404A404B9B6843F40073936094
:10278800F5E23B79072B40F0F2823B4A3A4B9B68D3
:1027980043F440739360EAE27B79082B06D1364A0A
:1027A800354B5B6823F0200353600EE07B79092BDF
:1027B8000BD1314A304B5B6843F0200353602E4AFB
:1027C8002D4BDB6843F48063D3603B79042B06D13F
:1027D800294A294B9B6823F440639360CAE23B79FA
:1027E800052B06D1244A244B9B6843F480639360ED
:1027F800C0E23B79062B06D11F4A1F4B9B6843F466
:1028080000639360B6E23B79072B40F0B3821A4A23
:10281800194B9B6843F440639360ABE27B79082BC8
:1028280006D1154A144B5B6823F0400353600EE051
:102838007B79092B0BD1104A0F4B5B6843F040039F
:1028480053600D4A0C4BDB6843F48053D3603B79EB
:10285800042B06D1084A084B9B6823F44053936025
:102868008BE23B79052B09D1034A034B9B6843F460
:102878008053936081E200BF000802403B79062B39
:1028880006D1924A914B9B6843F40053936074E2DB
:102898003B79072B40F071828C4A8C4B9B6843F440
:1028A8004053936069E27B79082B06D1874A874BAE
:1028B8005B6823F0800353600EE07B79092B0BD112
:1028C800824A824B5B6843F0800353607F4A7F4BA8
:1028D800DB6843F48043D3603B79042B06D17B4A01
:1028E8007A4B9B6823F44043936049E23B79052B7C
:1028F80006D1764A754B9B6843F4804393603FE268
:102908003B79062B06D1714A704B9B6843F4004310
:10291800936035E23B79072B40F032826B4A6B4B70
:102928009B6843F4404393602AE27B79082B06D1E5
:10293800664A664B5B6823F4807353600EE07B79CC
:10294800092B0BD1614A614B5B6843F48073536078
:102958005E4A5E4BDB6843F48033D3603B79042BDB
:1029680006D15A4A594B9B6823F4403393600AE2D4
:102978003B79052B06D1554A544B9B6843F4803369
:10298800936000E23B79062B06D1504A4F4B9B6877
:1029980043F400339360F6E13B79072B40F0F38171
:1029A8004A4A4A4B9B6843F440339360EBE17B7996
:1029B800082B06D1454A454B5B6823F400735360E6
:1029C8000EE07B79092B0BD1404A404B5B6843F4FE
:1029D800007353603D4A3D4BDB6843F48023D3606A
:1029E8003B79042B06D1394A384B9B6823F44023A2
:1029F8009360CBE13B79052B06D1344A334B9B6876
:102A080043F480239360C1E13B79062B06D12F4A1A
:102A18002E4B9B6843F400239360B7E13B79072B67
:102A280040F0B481294A294B9B6843F440239360C2
:102A3800ACE17B79082B06D1244A244B5B6823F44C
:102A4800806353600EE07B79092B0BD11F4A1F4B23
:102A58005B6843F4806353601C4A1C4BDB6843F497
:102A68008013D3603B79042B06D1184A174B9B6817
:102A780023F4401393608CE13B79052B06D1134A6C
:102A8800124B9B6843F48013936082E13B79062BD9
:102A980006D10E4A0D4B9B6843F40013936078E10E
:102AA8003B79072B40F07581084A084B9B6843F433
:102AB800401393606DE17B79082B09D1034A034BDE
:102AC8005B6823F40063536011E000BF0008024014
:102AD8007B79092B0BD1934A924B5B6843F40063D3
:102AE8005360904A8F4BDB6843F48003D3603B7993
:102AF800042B06D18B4A8B4B9B6823F440039360CD
:102B08004AE13B79052B06D1864A864B9B6843F4FC
:102B18008003936040E13B79062B06D1814A814BC3
:102B28009B6843F40003936036E13B79072B40F040
:102B380033817C4A7B4B9B6843F4400393602BE1D1
:102B48007B79082B06D1774A764B5B6823F4805350
:102B580053600EE07B79092B0BD1724A714B5B688D
:102B680043F4805353606F4A6E4BDB6843F08073C5
:102B7800D3603B79042B06D16A4A6A4B9B6823F0E1
:102B8800407393600BE13B79052B06D1654A654B91
:102B98009B6843F08073936001E13B79062B06D173
:102BA800604A604B9B6843F000739360F7E03B79A1
:102BB800072B40F0F4805B4A5A4B9B6843F0407304
:102BC8009360ECE07B79082B06D1564A554B5B683D
:102BD80023F4005353600EE07B79092B0BD1514A43
:102BE800504B5B6843F4005353604E4A4D4BDB68CF
:102BF80043F08063D3603B79042B06D1494A494BA3
:102C08009B6823F040639360CCE03B79052B06D1A9
:102C1800444A444B9B6843F080639360C2E03B792D
:102C2800062B06D13F4A3F4B9B6843F000639360F5
:102C3800B8E03B79072B40F0B5803A4A394B9B689E
:102C480043F040639360ADE07B79082B06D1354AA9
:102C5800344B5B6823F4804353600EE07B79092B87
:102C68000BD1304A2F4B5B6843F4804353602D4AA5
:102C78002C4BDB6843F08053D3603B79042B06D19F
:102C8800284A284B9B6823F0405393608DE03B799A
:102C9800052B06D1234A234B9B6843F0805393604E
:102CA80083E03B79062B06D11E4A1E4B9B6843F0F6
:102CB8000053936079E03B79072B76D1194A194B79
:102CC8009B6843F0405393606FE07B79082B06D1F3
:102CD800144A144B5B6823F4004353600EE07B797D
:102CE800092B0BD10F4A0F4B5B6843F40043536029
:102CF8000C4A0C4BDB6843F08043D3603B79042BD0
:102D080006D1084A074B9B6823F0404393604FE085
:102D18003B79052B08D1034A024B9B6843F080435B
:102D2800936045E0000802403B79062B06D19E4A95
:102D38009D4B9B6843F00043936039E03B79072B38
:102D480036D1994A984B9B6843F0404393602FE0F3
:102D580000BF01F029B900BF01F026B900BF01F09A
:102D680023B900BF01F020B900BF01F01DB900BFB1
:102D780001F01AB900BF01F017B900BF01F014B98A
:102D880000BF01F011B900BF01F00EB900BF01F09A
:102D98000BB900BF01F008B900BF01F005B900BFC9
:102DA80001F002B900BF01F0FFB800BF01F0FCB8A4
:102DB80000BF01F0F9B8BB790F2B00F24D8401A2D6
:102DC80052F823F00D2E0008932E0008172F000844
:102DD8009B2F000829300008AD3000083131000869
:102DE800B53100083F320008C332000847330008F5
:102DF800CB3300084F340008D93400085D3500088B
:102E0800DF3500087B79082B06D1684A674B5B6879
:102E180023F0010353600EE07B79092B0BD1634A41
:102E2800624B5B6843F001035360604A5F4BDB68A9
:102E380043F00103D3603B79042B07D15B4A5B4B1A
:102E48009B6823F00303936000F009BC3B79052BD2
:102E580006D1564A554B9B6843F001039360FEE345
:102E68003B79062B06D1514A504B9B6843F002032D
:102E78009360F4E33B79072B40F0F1834B4A4B4BCB
:102E88009B6843F003039360E9E37B79082B06D141
:102E9800464A464B5B6823F0020353600EE07B7999
:102EA800092B0BD1414A414B5B6843F00203536045
:102EB8003E4A3E4BDB6843F00403D3603B79042B66
:102EC80006D13A4A394B9B6823F00C039360C9E357
:102ED8003B79052B06D1354A344B9B6843F00403F4
:102EE8009360BFE33B79062B06D1304A2F4B9B6892
:102EF80043F008039360B5E33B79072B40F0B283B6
:102F08002A4A2A4B9B6843F00C039360AAE37B7917
:102F1800082B06D1254A254B5B6823F00403536030
:102F28000EE07B79092B0BD1204A204B5B6843F0DC
:102F3800040353601D4A1D4BDB6843F01003D36044
:102F48003B79042B06D1194A184B9B6823F03003B0
:102F580093608AE33B79052B06D1144A134B9B688F
:102F680043F01003936080E33B79062B06D10F4AA8
:102F78000E4B9B6843F02003936076E33B79072B65
:102F880040F07383094A094B9B6843F03003936010
:102F98006BE37B79082B0BD1044A044B5B6823F065
:102FA8000803536013E000BF00080240000C024011
:102FB8007B79092B0BD1944A934B5B6843F0080348
:102FC8005360914A904BDB6843F04003D3603B79F0
:102FD800042B06D18C4A8C4B9B6823F0C00393606A
:102FE80046E33B79052B06D1874A874B9B6843F01C
:102FF800400393603CE33B79062B06D1824A824B1F
:103008009B6843F08003936032E33B79072B40F0E1
:103018002F837D4A7C4B9B6843F0C003936027E372
:103028007B79082B06D1784A774B5B6823F010032D
:1030380053600EE07B79092B0BD1734A724B5B68A6
:1030480043F010035360704A6F4BDB6843F480739E
:10305800D3603B79042B06D16B4A6B4B9B6823F4F6
:103068004073936007E33B79052B06D1664A664BAC
:103078009B6843F480739360FDE23B79062B06D18D
:10308800614A614B9B6843F400739360F3E23B79B8
:10309800072B40F0F0825C4A5B4B9B6843F440731B
:1030A8009360E8E27B79082B06D1574A564B5B6858
:1030B80023F0200353600EE07B79092B0BD1524A91
:1030C800514B5B6843F0200353604F4A4E4BDB681B
:1030D80043F48063D3603B79042B06D14A4A4A4BB8
:1030E8009B6823F440639360C8E23B79052B06D1C3
:1030F800454A454B9B6843F480639360BEE23B7945
:10310800062B06D1404A404B9B6843F4006393600A
:10311800B4E23B79072B40F0B1823B4A3A4B9B68BB
:1031280043F440639360A9E27B79082B06D1364AC1
:10313800354B5B6823F0400353600EE07B79092B25
:103148000BD1314A304B5B6843F0400353602E4A41
:103158002D4BDB6843F48053D3603B79042B06D1B5
:10316800294A294B9B6823F44053936089E23B79B1
:10317800052B06D1244A244B9B6843F48053936063
:103188007FE23B79062B06D11F4A1F4B9B6843F40D
:103198000053936075E23B79072B40F072821A4A1C
:1031A800194B9B6843F4405393606AE27B79082B80
:1031B80006D1154A144B5B6823F0800353600EE078
:1031C8007B79092B0BD1104A0F4B5B6843F08003C6
:1031D80053600D4A0C4BDB6843F48043D3603B7962
:1031E800042B06D1084A084B9B6823F4404393609C
:1031F8004AE23B79052B09D1034A034B9B6843F408
:103208008043936040E200BF000C02403B79062BEC
:1032180006D1924A914B9B6843F40043936033E292
:103228003B79072B40F030828C4A8C4B9B6843F4E7
:103238004043936028E27B79082B06D1874A874B65
:103248005B6823F4807353600EE07B79092B0BD104
:10325800824A824B5B6843F4807353607F4A7F4B9A
:10326800DB6843F48033D3603B79042B06D17B4A77
:103278007A4B9B6823F44033936008E23B79052B33
:1032880006D1764A754B9B6843F480339360FEE120
:103298003B79062B06D1714A704B9B6843F4003387
:1032A8009360F4E13B79072B40F0F1816B4A6B4B5B
:1032B8009B6843F440339360E9E17B79082B06D19E
:1032C800664A664B5B6823F4007353600EE07B79B3
:1032D800092B0BD1614A614B5B6843F4007353605F
:1032E8005E4A5E4BDB6843F48023D3603B79042B52
:1032F80006D15A4A594B9B6823F440239360C9E18D
:103308003B79052B06D1554A544B9B6843F48023DF
:103318009360BFE13B79062B06D1504A4F4B9B681F
:1033280043F400239360B5E13B79072B40F0B28169
:103338004A4A4A4B9B6843F440239360AAE17B794D
:10334800082B06D1454A454B5B6823F480635360DC
:103358000EE07B79092B0BD1404A404B5B6843F464
:10336800806353603D4A3D4BDB6843F48013D36070
:103378003B79042B06D1394A384B9B6823F4401318
:1033880093608AE13B79052B06D1344A334B9B681D
:1033980043F48013936080E13B79062B06D12F4AD2
:1033A8002E4B9B6843F40013936076E13B79072B1F
:1033B80040F07381294A294B9B6843F4401393607A
:1033C8006BE17B79082B06D1244A244B5B6823F4F4
:1033D800006353600EE07B79092B0BD11F4A1F4B0A
:1033E8005B6843F4006353601C4A1C4BDB6843F47E
:1033F8008003D3603B79042B06D1184A174B9B688E
:1034080023F4400393604BE13B79052B06D1134A23
:10341800124B9B6843F48003936041E13B79062B90
:1034280006D10E4A0D4B9B6843F40003936037E1C5
:103438003B79072B40F03481084A084B9B6843F4DA
:10344800400393602CE17B79082B09D1034A034B95
:103458005B6823F48053536011E000BF000C024006
:103468007B79092B0BD1964A954B5B6843F48053C3
:103478005360934A924BDB6843F08073D3603B7987
:10348800042B06D18E4A8E4B9B6823F040739360C1
:1034980009E13B79052B06D1894A894B9B6843F0A2
:1034A80080739360FFE03B79062B06D1844A844BF6
:1034B8009B6843F000739360F5E03B79072B40F07D
:1034C800F2807F4A7E4B9B6843F040739360EAE04A
:1034D8007B79082B06D17A4A794B5B6823F4005331
:1034E80053600EE07B79092B0BD1754A744B5B68EE
:1034F80043F400535360724A714BDB6843F08063B6
:10350800D3603B79042B06D16D4A6D4B9B6823F041
:1035180040639360CAE03B79052B06D1684A684B43
:103528009B6843F080639360C0E03B79062B06D12B
:10353800634A634B9B6843F000639360B6E03B7952
:10354800072B40F0B3805E4A5D4B9B6843F04063B5
:103558009360ABE07B79082B06D1594A584B5B68DE
:1035680023F4804353600EE07B79092B0BD1544A36
:10357800534B5B6843F480435360514A504BDB68BC
:1035880043F08053D3603B79042B06D14C4A4C4B13
:103598009B6823F0405393608BE03B79052B06D161
:1035A800474A474B9B6843F08053936081E03B79DF
:1035B800062B06D1424A424B9B6843F00053936066
:1035C80077E03B79072B74D13D4A3D4B9B6843F02C
:1035D800405393606DE07B79082B06D1384A384B0D
:1035E8005B6823F4004353600EE07B79092B0BD111
:1035F800334A334B5B6843F400435360304A304BE3
:10360800DB6843F08043D3603B79042B06D12C4A16
:103618002B4B9B6823F0404393604DE03B79052B8F
:1036280006D1274A264B9B6843F08043936043E0CA
:103638003B79062B06D1224A214B9B6843F0004375
:10364800936039E03B79072B36D11D4A1C4B9B68A8
:1036580043F0404393602FE000BF00F0A5BC00BFDB
:1036680000F0A2BC00BF00F09FBC00BF00F09CBCF3
:1036780000BF00F099BC00BF00F096BC00BF00F08E
:1036880093BC00BF00F090BC00BF00F08DBC00BF31
:1036980000F08ABC00BF00F087BC00BF00F084BC0B
:1036A80000BF00F081BC00BF00F07EBC00BF00F08E
:1036B8007BBC00BF00F078BC00BF00F075BC00BF49
:1036C800000C0240BB790F2B00F24B8401A252F888
:1036D80023F000BF1D370008A3370008273800086B
:1036E800AB3800082F390008B73900083B3A000802
:1036F800BF3A0008433B0008C73B0008513C00089C
:10370800D53C0008593D0008DD3D0008673E00082B
:10371800E93E00087B79082B06D1944A934B5B68F5
:1037280023F0010353600EE07B79092B0BD18F4AFC
:103738008E4B5B6843F0010353608C4A8B4BDB680C
:1037480043F00103D3603B79042B07D1874A874BA9
:103758009B6823F00303936000F005BC3B79052BBD
:1037680006D1824A814B9B6843F001039360FAE3D8
:103778003B79062B06D17D4A7C4B9B6843F00203BC
:103788009360F0E33B79072B40F0ED83774A774B62
:103798009B6843F003039360E5E37B79082B06D12C
:1037A800724A724B5B6823F0020353600EE07B7928
:1037B800092B0BD16D4A6D4B5B6843F002035360D4
:1037C8006A4A6A4BDB6843F00403D3603B79042BF5
:1037D80006D1664A654B9B6823F00C039360C4E3EB
:1037E8003B79052B06D1614A604B9B6843F0040383
:1037F8009360BAE33B79062B06D15C4A5B4B9B6826
:1038080043F008039360B0E33B79072B40F0AD83A6
:10381800564A564B9B6843F00C039360A5E37B79AB
:10382800082B06D1514A514B5B6823F004035360BF
:103838000EE07B79092B0BD14C4A4C4B5B6843F06B
:1038480004035360494A494BDB6843F01003D360D3
:103858003B79042B06D1454A444B9B6823F030033F
:10386800936084E33B79052B06D1404A3F4B9B6824
:1038780043F0100393607AE33B79062B06D13B4A69
:103888003A4B9B6843F02003936070E33B79072B26
:1038980040F06D83354A354B9B6843F030039360A5
:1038A80065E37B79082B06D1304A304B5B6823F0FF
:1038B800080353600EE07B79092B0BD12B4A2B4B65
:1038C8005B6843F008035360284A284BDB6843F0E1
:1038D8004003D3603B79042B06D1244A234B9B68D1
:1038E80023F0C003936044E33B79052B06D11F4ABC
:1038F8001E4B9B6843F0400393603AE33B79062BE9
:1039080006D11A4A194B9B6843F08003936030E351
:103918003B79072B40F02D83144A144B9B6843F0E6
:10392800C003936025E37B79082B06D10F4A0F4B20
:103938005B6823F0100353600EE07B79092B0BD1F1
:103948000A4A0A4B5B6843F010035360074A074B67
:10395800DB6843F48073D3603B79042B08D1034AB6
:10396800024B9B6823F44073936004E30010024009
:103978003B79052B06D1974A964B9B6843F4807395
:103988009360F8E23B79062B06D1924A914B9B68EB
:1039980043F400739360EEE23B79072B40F0EB822F
:1039A8008C4A8C4B9B6843F440739360E3E27B79C9
:1039B800082B06D1874A874B5B6823F020035360A6
:1039C8000EE07B79092B0BD1824A824B5B6843F06E
:1039D800200353607F4A7F4BDB6843F48063D360E6
:1039E8003B79042B06D17B4A7A4B9B6823F44063CE
:1039F8009360C2E23B79052B06D1764A754B9B68EA
:103A080043F480639360B8E23B79062B06D1714A90
:103A1800704B9B6843F400639360AEE23B79072BDD
:103A280040F0AB826B4A6B4B9B6843F440639360F6
:103A3800A3E27B79082B06D1664A664B5B6823F0C4
:103A4800400353600EE07B79092B0BD1614A614B2F
:103A58005B6843F0400353605E4A5E4BDB6843F4A7
:103A68008053D3603B79042B06D15A4A594B9B6843
:103A780023F44053936082E23B79052B06D1554AE3
:103A8800544B9B6843F48053936078E23B79062B50
:103A980006D1504A4F4B9B6843F4005393606EE243
:103AA8003B79072B40F06B824A4A4A4B9B6843F4A8
:103AB8004053936063E27B79082B06D1454A454B16
:103AC8005B6823F0800353600EE07B79092B0BD1F0
:103AD800404A404B5B6843F0800353603D4A3D4B8E
:103AE800DB6843F48043D3603B79042B06D1394A21
:103AF800384B9B6823F44043936042E23B79052BA3
:103B080006D1344A334B9B6843F48043936038E2D0
:103B18003B79062B06D12F4A2E4B9B6843F4004372
:103B280093602EE23B79072B40F02B82294A294BE0
:103B38009B6843F44043936023E27B79082B06D1CA
:103B4800244A244B5B6823F4807353600EE07B792E
:103B5800092B0BD11F4A1F4B5B6843F480735360DA
:103B68001C4A1C4BDB6843F48033D3603B79042B3D
:103B780006D1184A174B9B6823F44033936002E23E
:103B88003B79052B06D1134A124B9B6843F48033CB
:103B98009360F8E13B79062B06D10E4A0D4B9B68E2
:103BA80043F400339360EEE13B79072B40F0EB815F
:103BB800084A084B9B6843F440339360E3E17B7900
:103BC800082B09D1034A034B5B6823F40073536045
:103BD80011E000BF001002407B79092B0BD1944AF9
:103BE800934B5B6843F400735360914A904BDB68D6
:103BF80043F48023D3603B79042B06D18C4A8C4B49
:103C08009B6823F440239360BFE13B79052B06D1E1
:103C1800874A874B9B6843F480239360B5E13B79DF
:103C2800062B06D1824A824B9B6843F4002393609B
:103C3800ABE13B79072B40F0A8817D4A7C4B9B6820
:103C480043F440239360A0E17B79082B06D1784A9E
:103C5800774B5B6823F4806353600EE07B79092B14
:103C68000BD1734A724B5B6843F480635360704AAC
:103C78006F4BDB6843F48013D3603B79042B06D188
:103C88006B4A6B4B9B6823F4401393607FE13B794D
:103C9800052B06D1664A664B9B6843F480139360F4
:103CA80075E13B79062B06D1614A614B9B6843F469
:103CB800001393606BE13B79072B40F068815C4A05
:103CC8005B4B9B6843F44013936060E17B79082B5E
:103CD80006D1574A564B5B6823F4006353600EE0E5
:103CE8007B79092B0BD1524A514B5B6843F4006333
:103CF80053604F4A4E4BDB6843F48003D3603B79F3
:103D0800042B06D14A4A4A4B9B6823F4400393602C
:103D18003FE13B79052B06D1454A454B9B6843F467
:103D28008003936035E13B79062B06D1404A404B2E
:103D38009B6843F4000393602BE13B79072B40F029
:103D480028813B4A3A4B9B6843F44003936020E147
:103D58007B79082B06D1364A354B5B6823F48053B0
:103D680053600EE07B79092B0BD1314A304B5B68ED
:103D780043F4805353602E4A2D4BDB6843F0807325
:103D8800D3603B79042B06D1294A294B9B6823F041
:103D980040739360FFE03B79052B06D1244A244BFE
:103DA8009B6843F080739360F5E03B79062B06D15E
:103DB8001F4A1F4B9B6843F000739360EBE03B790D
:103DC800072B40F0E8801A4A194B9B6843F0407370
:103DD8009360E0E07B79082B06D1154A144B5B68A9
:103DE80023F4005353600EE07B79092B0BD1104A62
:103DF8000F4B5B6843F4005353600D4A0C4BDB6870
:103E080043F08063D3603B79042B06D1084A084B02
:103E18009B6823F040639360BFE03B79052B09D191
:103E2800034A034B9B6843F080639360B5E000BF8F
:103E3800001002403B79062B06D15D4A5C4B9B681B
:103E480043F000639360A8E03B79072B40F0A5801E
:103E5800574A574B9B6843F0406393609DE07B79DA
:103E6800082B06D1524A524B5B6823F480435360B7
:103E78000EE07B79092B0BD14D4A4D4B5B6843F41F
:103E8800804353604A4A4A4BDB6843F08053D3600F
:103E98003B79042B06D1464A454B9B6823F0405397
:103EA80093607CE03B79052B06D1414A404B9B68E7
:103EB80043F08053936072E03B79062B06D13C4A6D
:103EC8003B4B9B6843F00053936068E03B79072BBA
:103ED80065D1374A364B9B6843F0405393605EE0A8
:103EE8007B79082B06D1324A314B5B6823F40043B7
:103EF80053600EE07B79092B0BD12D4A2C4B5B6864
:103F080043F4004353602A4A294BDB6843F080435B
:103F1800D3603B79042B06D1254A254B9B6823F0B7
:103F2800404393603DE03B79052B06D1204A204B66
:103F38009B6843F08043936033E03B79062B06D1BE
:103F48001B4A1B4B9B6843F00043936029E03B7975
:103F5800072B26D1164A164B9B6843F040439360C3
:103F68001FE000BF20E000BF1EE000BF1CE000BF54
:103F78001AE000BF18E000BF16E000BF14E000BF61
:103F880012E000BF10E000BF0EE000BF0CE000BF71
:103F98000AE000BF08E000BF06E000BF04E000BF81
:103FA80002E000BF00E000BF00BF0C37BD4690BD77
:103FB8000010024080B582B000AF0346FB710B468B
:103FC800BB7113467B71FB7901211846FCF778FA1F
:103FD800FB79042B01F2888401A252F823F000BF78
:103FE800FD3F0008FD440008FD490008FD4E00089B
:103FF800F9530008BB790F2B00F2768201A252F820
:1040080023F000BF4D40000897400008E140000839
:104018002B41000875410008BF410008094200080B
:1040280053420008A1420008EB420008354300084B
:104038007F430008C9430008134400085D44000892
:10404800A74400087B79012B06D1924A914B1B6843
:1040580043F00103136048E27B79022B06D18D4AB5
:104068008C4B1B6843F0020313603EE27B79032B01
:1040780006D1884A874B1B6843F00303136034E278
:10408800844A844B1B6823F0030313602DE27B7979
:10409800012B06D17F4A7F4B1B6843F00403136052
:1040A80023E27B79022B06D17A4A7A4B1B6843F0CC
:1040B8000803136019E27B79032B06D1754A754B07
:1040C8001B6843F00C0313600FE2724A714B1B68C4
:1040D80023F00C03136008E27B79012B06D16D4AAB
:1040E8006C4B1B6843F010031360FEE17B79022BD5
:1040F80006D1684A674B1B6843F020031360F4E15C
:104108007B79032B06D1634A624B1B6843F030036B
:104118001360EAE15F4A5F4B1B6823F030031360CA
:10412800E3E17B79012B06D15A4A5A4B1B6843F0CD
:1041380040031360D9E17B79022B06D1554A554BD0
:104148001B6843F080031360CFE17B79032B06D112
:10415800504A504B1B6843F0C0031360C5E14D4AF9
:104168004C4B1B6823F0C0031360BEE17B79012B25
:1041780006D1484A474B1B6843F480731360B4E187
:104188007B79022B06D1434A424B1B6843F40073E8
:104198001360AAE17B79032B06D13E4A3D4B1B688D
:1041A80043F440731360A0E13A4A3A4B1B6823F486
:1041B8004073136099E17B79012B06D1354A354B61
:1041C8001B6843F4806313608FE17B79022B06D16F
:1041D800304A304B1B6843F40063136085E17B79F8
:1041E800032B06D12B4A2B4B1B6843F44063136007
:1041F8007BE1284A274B1B6823F44063136074E172
:104208007B79012B06D1234A224B1B6843F4805348
:1042180013606AE17B79022B06D11E4A1D4B1B688D
:1042280043F40053136060E17B79032B06D1194AEC
:10423800184B1B6843F44053136056E1154A154B5D
:104248001B6823F4405313604FE17B79012B06D19F
:10425800104A104B1B6843F48043136045E17B7997
:10426800022B06D10B4A0B4B1B6843F40043136027
:104278003BE17B79032B06D1064A064B1B6843F4C6
:104288004043136031E1034A024B1B6823F4404367
:1042980013602AE1000002407B79012B06D1944A81
:1042A800934B1B6843F4803313601EE17B79022B28
:1042B80006D18F4A8E4B1B6843F40033136014E118
:1042C8007B79032B06D18A4A894B1B6843F4403318
:1042D80013600AE1864A864B1B6823F44033136057
:1042E80003E17B79012B06D1814A814B1B6843F49A
:1042F80080231360F9E07B79022B06D17C4A7C4B42
:104308001B6843F400231360EFE07B79032B06D18D
:10431800774A774B1B6843F440231360E5E0744AFF
:10432800734B1B6823F440231360DEE07B79012B79
:1043380006D16F4A6E4B1B6843F480131360D4E0B8
:104348007B79022B06D16A4A694B1B6843F4001338
:104358001360CAE07B79032B06D1654A644B1B685E
:1043680043F440131360C0E0614A614B1B6823F4B7
:1043780040131360B9E07B79012B06D15C4A5C4B92
:104388001B6843F480031360AFE07B79022B06D1EE
:10439800574A574B1B6843F400031360A5E07B7929
:1043A800032B06D1524A524B1B6843F44003136057
:1043B8009BE04F4A4E4B1B6823F44003136094E084
:1043C8007B79012B06D14A4A494B1B6843F080731D
:1043D80013608AE07B79022B06D1454A444B1B685F
:1043E80043F00073136080E07B79032B06D1404AC9
:1043F8003F4B1B6843F04073136076E03C4A3C4BEC
:104408001B6823F0407313606FE07B79012B06D1A2
:10441800374A374B1B6843F08063136065E07B794C
:10442800022B06D1324A324B1B6843F000631360FB
:104438005BE07B79032B06D12D4A2D4B1B6843F09B
:104448004063136051E02A4A294B1B6823F04063FC
:1044580013604AE07B79012B06D1254A244B1B685F
:1044680043F08053136040E07B79022B06D1204A49
:104478001F4B1B6843F00053136036E07B79032B16
:1044880006D11B4A1A4B1B6843F0405313602CE0BB
:10449800174A174B1B6823F04053136025E07B79BC
:1044A800012B06D1124A124B1B6843F0804313605C
:1044B8001BE07B79022B06D10D4A0D4B1B6843F09C
:1044C8000043136011E07B79032B06D1084A084B9F
:1044D8001B6843F04043136007E0054A044B1B6820
:1044E80023F04043136000E000BF01F0FEB900BFB5
:1044F80000000240BB790F2B00F2768201A252F82D
:1045080023F000BF4D45000897450008E145000825
:104518002B46000875460008BF46000809470008F2
:1045280053470008A1470008EB4700083548000832
:104538007F480008C9480008134900085D49000879
:10454800A74900087B79012B06D1924A914B1B6839
:1045580043F00103136048E27B79022B06D18D4AB0
:104568008C4B1B6843F0020313603EE27B79032BFC
:1045780006D1884A874B1B6843F00303136034E273
:10458800844A844B1B6823F0030313602DE27B7974
:10459800012B06D17F4A7F4B1B6843F0040313604D
:1045A80023E27B79022B06D17A4A7A4B1B6843F0C7
:1045B8000803136019E27B79032B06D1754A754B02
:1045C8001B6843F00C0313600FE2724A714B1B68BF
:1045D80023F00C03136008E27B79012B06D16D4AA6
:1045E8006C4B1B6843F010031360FEE17B79022BD0
:1045F80006D1684A674B1B6843F020031360F4E157
:104608007B79032B06D1634A624B1B6843F0300366
:104618001360EAE15F4A5F4B1B6823F030031360C5
:10462800E3E17B79012B06D15A4A5A4B1B6843F0C8
:1046380040031360D9E17B79022B06D1554A554BCB
:104648001B6843F080031360CFE17B79032B06D10D
:10465800504A504B1B6843F0C0031360C5E14D4AF4
:104668004C4B1B6823F0C0031360BEE17B79012B20
:1046780006D1484A474B1B6843F480731360B4E182
:104688007B79022B06D1434A424B1B6843F40073E3
:104698001360AAE17B79032B06D13E4A3D4B1B6888
:1046A80043F440731360A0E13A4A3A4B1B6823F481
:1046B8004073136099E17B79012B06D1354A354B5C
:1046C8001B6843F4806313608FE17B79022B06D16A
:1046D800304A304B1B6843F40063136085E17B79F3
:1046E800032B06D12B4A2B4B1B6843F44063136002
:1046F8007BE1284A274B1B6823F44063136074E16D
:104708007B79012B06D1234A224B1B6843F4805343
:1047180013606AE17B79022B06D11E4A1D4B1B6888
:1047280043F40053136060E17B79032B06D1194AE7
:10473800184B1B6843F44053136056E1154A154B58
:104748001B6823F4405313604FE17B79012B06D19A
:10475800104A104B1B6843F48043136045E17B7992
:10476800022B06D10B4A0B4B1B6843F40043136022
:104778003BE17B79032B06D1064A064B1B6843F4C1
:104788004043136031E1034A024B1B6823F4404362
:1047980013602AE1000402407B79012B06D1944A78
:1047A800934B1B6843F4803313601EE17B79022B23
:1047B80006D18F4A8E4B1B6843F40033136014E113
:1047C8007B79032B06D18A4A894B1B6843F4403313
:1047D80013600AE1864A864B1B6823F44033136052
:1047E80003E17B79012B06D1814A814B1B6843F495
:1047F80080231360F9E07B79022B06D17C4A7C4B3D
:104808001B6843F400231360EFE07B79032B06D188
:10481800774A774B1B6843F440231360E5E0744AFA
:10482800734B1B6823F440231360DEE07B79012B74
:1048380006D16F4A6E4B1B6843F480131360D4E0B3
:104848007B79022B06D16A4A694B1B6843F4001333
:104858001360CAE07B79032B06D1654A644B1B6859
:1048680043F440131360C0E0614A614B1B6823F4B2
:1048780040131360B9E07B79012B06D15C4A5C4B8D
:104888001B6843F480031360AFE07B79022B06D1E9
:10489800574A574B1B6843F400031360A5E07B7924
:1048A800032B06D1524A524B1B6843F44003136052
:1048B8009BE04F4A4E4B1B6823F44003136094E07F
:1048C8007B79012B06D14A4A494B1B6843F0807318
:1048D80013608AE07B79022B06D1454A444B1B685A
:1048E80043F00073136080E07B79032B06D1404AC4
:1048F8003F4B1B6843F04073136076E03C4A3C4BE7
:104908001B6823F0407313606FE07B79012B06D19D
:10491800374A374B1B6843F08063136065E07B7947
:10492800022B06D1324A324B1B6843F000631360F6
:104938005BE07B79032B06D12D4A2D4B1B6843F096
:104948004063136051E02A4A294B1B6823F04063F7
:1049580013604AE07B79012B06D1254A244B1B685A
:1049680043F08053136040E07B79022B06D1204A44
:104978001F4B1B6843F00053136036E07B79032B11
:1049880006D11B4A1A4B1B6843F0405313602CE0B6
:10499800174A174B1B6823F04053136025E07B79B7
:1049A800012B06D1124A124B1B6843F08043136057
:1049B8001BE07B79022B06D10D4A0D4B1B6843F097
:1049C8000043136011E07B79032B06D1084A084B9A
:1049D8001B6843F04043136007E0054A044B1B681B
:1049E80023F04043136000E000BF00F07EBF00BF2B
:1049F80000040240BB790F2B00F2768201A252F824
:104A080023F000BF4D4A0008974A0008E14A000811
:104A18002B4B0008754B0008BF4B0008094C0008D9
:104A2800534C0008A14C0008EB4C0008354D000819
:104A38007F4D0008C94D0008134E00085D4E000860
:104A4800A74E00087B79012B06D1924A914B1B682F
:104A580043F00103136048E27B79022B06D18D4AAB
:104A68008C4B1B6843F0020313603EE27B79032BF7
:104A780006D1884A874B1B6843F00303136034E26E
:104A8800844A844B1B6823F0030313602DE27B796F
:104A9800012B06D17F4A7F4B1B6843F00403136048
:104AA80023E27B79022B06D17A4A7A4B1B6843F0C2
:104AB8000803136019E27B79032B06D1754A754BFD
:104AC8001B6843F00C0313600FE2724A714B1B68BA
:104AD80023F00C03136008E27B79012B06D16D4AA1
:104AE8006C4B1B6843F010031360FEE17B79022BCB
:104AF80006D1684A674B1B6843F020031360F4E152
:104B08007B79032B06D1634A624B1B6843F0300361
:104B18001360EAE15F4A5F4B1B6823F030031360C0
:104B2800E3E17B79012B06D15A4A5A4B1B6843F0C3
:104B380040031360D9E17B79022B06D1554A554BC6
:104B48001B6843F080031360CFE17B79032B06D108
:104B5800504A504B1B6843F0C0031360C5E14D4AEF
:104B68004C4B1B6823F0C0031360BEE17B79012B1B
:104B780006D1484A474B1B6843F480731360B4E17D
:104B88007B79022B06D1434A424B1B6843F40073DE
:104B98001360AAE17B79032B06D13E4A3D4B1B6883
:104BA80043F440731360A0E13A4A3A4B1B6823F47C
:104BB8004073136099E17B79012B06D1354A354B57
:104BC8001B6843F4806313608FE17B79022B06D165
:104BD800304A304B1B6843F40063136085E17B79EE
:104BE800032B06D12B4A2B4B1B6843F440631360FD
:104BF8007BE1284A274B1B6823F44063136074E168
:104C08007B79012B06D1234A224B1B6843F480533E
:104C180013606AE17B79022B06D11E4A1D4B1B6883
:104C280043F40053136060E17B79032B06D1194AE2
:104C3800184B1B6843F44053136056E1154A154B53
:104C48001B6823F4405313604FE17B79012B06D195
:104C5800104A104B1B6843F48043136045E17B798D
:104C6800022B06D10B4A0B4B1B6843F4004313601D
:104C78003BE17B79032B06D1064A064B1B6843F4BC
:104C88004043136031E1034A024B1B6823F440435D
:104C980013602AE1000802407B79012B06D1944A6F
:104CA800934B1B6843F4803313601EE17B79022B1E
:104CB80006D18F4A8E4B1B6843F40033136014E10E
:104CC8007B79032B06D18A4A894B1B6843F440330E
:104CD80013600AE1864A864B1B6823F4403313604D
:104CE80003E17B79012B06D1814A814B1B6843F490
:104CF80080231360F9E07B79022B06D17C4A7C4B38
:104D08001B6843F400231360EFE07B79032B06D183
:104D1800774A774B1B6843F440231360E5E0744AF5
:104D2800734B1B6823F440231360DEE07B79012B6F
:104D380006D16F4A6E4B1B6843F480131360D4E0AE
:104D48007B79022B06D16A4A694B1B6843F400132E
:104D58001360CAE07B79032B06D1654A644B1B6854
:104D680043F440131360C0E0614A614B1B6823F4AD
:104D780040131360B9E07B79012B06D15C4A5C4B88
:104D88001B6843F480031360AFE07B79022B06D1E4
:104D9800574A574B1B6843F400031360A5E07B791F
:104DA800032B06D1524A524B1B6843F4400313604D
:104DB8009BE04F4A4E4B1B6823F44003136094E07A
:104DC8007B79012B06D14A4A494B1B6843F0807313
:104DD80013608AE07B79022B06D1454A444B1B6855
:104DE80043F00073136080E07B79032B06D1404ABF
:104DF8003F4B1B6843F04073136076E03C4A3C4BE2
:104E08001B6823F0407313606FE07B79012B06D198
:104E1800374A374B1B6843F08063136065E07B7942
:104E2800022B06D1324A324B1B6843F000631360F1
:104E38005BE07B79032B06D12D4A2D4B1B6843F091
:104E48004063136051E02A4A294B1B6823F04063F2
:104E580013604AE07B79012B06D1254A244B1B6855
:104E680043F08053136040E07B79022B06D1204A3F
:104E78001F4B1B6843F00053136036E07B79032B0C
:104E880006D11B4A1A4B1B6843F0405313602CE0B1
:104E9800174A174B1B6823F04053136025E07B79B2
:104EA800012B06D1124A124B1B6843F08043136052
:104EB8001BE07B79022B06D10D4A0D4B1B6843F092
:104EC8000043136011E07B79032B06D1084A084B95
:104ED8001B6843F04043136007E0054A044B1B6816
:104EE80023F04043136000E000BF00F0FEBC00BFA9
:104EF80000080240BB790F2B00F2768201A252F81B
:104F080023F000BF4D4F0008974F0008E14F0008FD
:104F18002B50000875500008BF50000809510008C0
:104F280053510008A1510008EB5100083552000800
:104F38007F520008C9520008135300085D53000847
:104F4800A75300087B79012B06D1924A914B1B6825
:104F580043F00103136048E27B79022B06D18D4AA6
:104F68008C4B1B6843F0020313603EE27B79032BF2
:104F780006D1884A874B1B6843F00303136034E269
:104F8800844A844B1B6823F0030313602DE27B796A
:104F9800012B06D17F4A7F4B1B6843F00403136043
:104FA80023E27B79022B06D17A4A7A4B1B6843F0BD
:104FB8000803136019E27B79032B06D1754A754BF8
:104FC8001B6843F00C0313600FE2724A714B1B68B5
:104FD80023F00C03136008E27B79012B06D16D4A9C
:104FE8006C4B1B6843F010031360FEE17B79022BC6
:104FF80006D1684A674B1B6843F020031360F4E14D
:105008007B79032B06D1634A624B1B6843F030035C
:105018001360EAE15F4A5F4B1B6823F030031360BB
:10502800E3E17B79012B06D15A4A5A4B1B6843F0BE
:1050380040031360D9E17B79022B06D1554A554BC1
:105048001B6843F080031360CFE17B79032B06D103
:10505800504A504B1B6843F0C0031360C5E14D4AEA
:105068004C4B1B6823F0C0031360BEE17B79012B16
:1050780006D1484A474B1B6843F480731360B4E178
:105088007B79022B06D1434A424B1B6843F40073D9
:105098001360AAE17B79032B06D13E4A3D4B1B687E
:1050A80043F440731360A0E13A4A3A4B1B6823F477
:1050B8004073136099E17B79012B06D1354A354B52
:1050C8001B6843F4806313608FE17B79022B06D160
:1050D800304A304B1B6843F40063136085E17B79E9
:1050E800032B06D12B4A2B4B1B6843F440631360F8
:1050F8007BE1284A274B1B6823F44063136074E163
:105108007B79012B06D1234A224B1B6843F4805339
:1051180013606AE17B79022B06D11E4A1D4B1B687E
:1051280043F40053136060E17B79032B06D1194ADD
:10513800184B1B6843F44053136056E1154A154B4E
:105148001B6823F4405313604FE17B79012B06D190
:10515800104A104B1B6843F48043136045E17B7988
:10516800022B06D10B4A0B4B1B6843F40043136018
:105178003BE17B79032B06D1064A064B1B6843F4B7
:105188004043136031E1034A024B1B6823F4404358
:1051980013602AE1000C02407B79012B06D1934A67
:1051A800924B1B6843F4803313601EE17B79022B1A
:1051B80006D18E4A8D4B1B6843F40033136014E10B
:1051C8007B79032B06D1894A884B1B6843F440330B
:1051D80013600AE1854A854B1B6823F4403313604A
:1051E80003E17B79012B06D1804A804B1B6843F48D
:1051F80080231360F9E07B79022B06D17B4A7B4B35
:105208001B6843F400231360EFE07B79032B06D17E
:10521800764A764B1B6843F440231360E5E0734AF3
:10522800724B1B6823F440231360DEE07B79012B6B
:1052380006D16E4A6D4B1B6843F480131360D4E0AB
:105248007B79022B06D1694A684B1B6843F400132B
:105258001360CAE07B79032B06D1644A634B1B6851
:1052680043F440131360C0E0604A604B1B6823F4AA
:1052780040131360B9E07B79012B06D15B4A5B4B85
:105288001B6843F480031360AFE07B79022B06D1DF
:10529800564A564B1B6843F400031360A5E07B791C
:1052A800032B06D1514A514B1B6843F4400313604A
:1052B8009BE04E4A4D4B1B6823F44003136094E077
:1052C8007B79012B06D1494A484B1B6843F0807310
:1052D80013608AE07B79022B06D1444A434B1B6852
:1052E80043F00073136080E07B79032B06D13F4ABB
:1052F8003E4B1B6843F04073136076E03B4A3B4BE0
:105308001B6823F0407313606FE07B79012B06D193
:10531800364A364B1B6843F08063136065E07B793F
:10532800022B06D1314A314B1B6843F000631360EE
:105338005BE07B79032B06D12C4A2C4B1B6843F08E
:105348004063136051E0294A284B1B6823F04063EF
:1053580013604AE07B79012B06D1244A234B1B6852
:1053680043F08053136040E07B79022B06D11F4A3B
:105378001E4B1B6843F00053136036E07B79032B08
:1053880006D11A4A194B1B6843F0405313602CE0AE
:10539800164A164B1B6823F04053136025E07B79AF
:1053A800012B06D1114A114B1B6843F0804313604F
:1053B8001BE07B79022B06D10C4A0C4B1B6843F08F
:1053C8000043136011E07B79032B06D1074A074B92
:1053D8001B6843F04043136007E0044A034B1B6813
:1053E80023F04043136000E000BF7EE2000C02405F
:1053F800BB790F2B00F2768201A252F823F000BF8E
:105408004954000893540008DD5400082755000843
:1054180071550008BB550008055600084F5600088E
:105428009D560008E7560008315700087B570008CA
:10543800C55700080F58000859580008A358000815
:105448007B79012B06D1924A914B1B6843F00103EB
:10545800136048E27B79022B06D18D4A8C4B1B687E
:1054680043F0020313603EE27B79032B06D1884A9E
:10547800874B1B6843F00303136034E2844A844B70
:105488001B6823F0030313602DE27B79012B06D1FF
:105498007F4A7F4B1B6843F00403136023E27B7948
:1054A800022B06D17A4A7A4B1B6843F00803136033
:1054B80019E27B79032B06D1754A754B1B6843F0BB
:1054C8000C0313600FE2724A714B1B6823F00C0344
:1054D800136008E27B79012B06D16D4A6C4B1B687F
:1054E80043F010031360FEE17B79022B06D1684A72
:1054F800674B1B6843F020031360F4E17B79032BAF
:1055080006D1634A624B1B6843F030031360EAE13B
:105518005F4A5F4B1B6823F030031360E3E17B793C
:10552800012B06D15A4A5A4B1B6843F040031360BB
:10553800D9E17B79022B06D1554A554B1B6843F0BC
:1055480080031360CFE17B79032B06D1504A504B7F
:105558001B6843F0C0031360C5E14D4A4C4B1B6800
:1055680023F0C0031360BEE17B79012B06D1484AC2
:10557800474B1B6843F480731360B4E17B79022BBB
:1055880006D1434A424B1B6843F400731360AAE1F7
:105598007B79032B06D13E4A3D4B1B6843F440738D
:1055A8001360A0E13A4A3A4B1B6823F44073136036
:1055B80099E17B79012B06D1354A354B1B6843F4B9
:1055C800806313608FE17B79022B06D1304A304B20
:1055D8001B6843F40063136085E17B79032B06D1D4
:1055E8002B4A2B4B1B6843F4406313607BE1284A2A
:1055F800274B1B6823F44063136074E17B79012B0C
:1056080006D1234A224B1B6843F4805313606AE196
:105618007B79022B06D11E4A1D4B1B6843F40053AD
:10562800136060E17B79032B06D1194A184B1B687C
:1056380043F44053136056E1154A154B1B6823F495
:10564800405313604FE17B79012B06D1104A104B70
:105658001B6843F48043136045E17B79022B06D134
:105668000B4A0B4B1B6843F4004313603BE17B7907
:10567800032B06D1064A064B1B6843F440431360CC
:1056880031E1034A024B1B6823F4404313602AE1CB
:10569800001002407B79012B06D1964A954B1B6876
:1056A80043F4803313601EE17B79022B06D1914AC3
:1056B800904B1B6843F40033136014E17B79032B90
:1056C80006D18C4A8B4B1B6843F4403313600AE1C4
:1056D800884A884B1B6823F44033136003E17B79C5
:1056E800012B06D1834A834B1B6843F48023136044
:1056F800F9E07B79022B06D17E4A7E4B1B6843F486
:1057080000231360EFE07B79032B06D1794A794BAC
:105718001B6843F440231360E5E0764A754B1B6829
:1057280023F440231360DEE07B79012B06D1714A14
:10573800704B1B6843F480131360D4E07B79022B11
:1057480006D16C4A6B4B1B6843F400131360CAE024
:105758007B79032B06D1674A664B1B6843F44013D9
:105768001360C0E0634A634B1B6823F44013136063
:10577800B9E07B79012B06D15E4A5E4B1B6843F486
:1057880080031360AFE07B79022B06D1594A594B4D
:105798001B6843F400031360A5E07B79032B06D153
:1057A800544A544B1B6843F4400313609BE0514A2E
:1057B800504B1B6823F44003136094E07B79012B62
:1057C80006D14C4A4B4B1B6843F0807313608AE048
:1057D8007B79022B06D1474A464B1B6843F000737E
:1057E800136080E07B79032B06D1424A414B1B684A
:1057F80043F04073136076E03E4A3E4B1B6823F04B
:10580800407313606FE07B79012B06D1394A394B1D
:105818001B6843F08063136065E07B79022B06D137
:10582800344A344B1B6843F0006313605BE07B79B8
:10583800032B06D12F4A2F4B1B6843F0406313609C
:1058480051E02C4A2B4B1B6823F0406313604AE05D
:105858007B79012B06D1274A264B1B6843F08053DE
:10586800136040E07B79022B06D1224A214B1B684A
:1058780043F00053136036E07B79032B06D11D4AB1
:105888001C4B1B6843F0405313602CE0194A194B1A
:105898001B6823F04053136025E07B79012B06D168
:1058A800144A144B1B6843F0804313601BE07B7958
:1058B800022B06D10F4A0F4B1B6843F000431360BD
:1058C80011E07B79032B06D10A4A0A4B1B6843F087
:1058D8004043136007E0074A064B1B6823F0404328
:1058E800136000E000BF00E000BF00BF0837BD46FE
:1058F80080BD00BF0010024070B50D4E0D4CA41BBA
:10590800A4100025A54209D10B4E0C4C00F018F844
:10591800A41BA4100025A54205D170BD56F825305A
:1059280098470135EEE756F8253098470135F2E7F4
:105938006059000860590008605900086459000857
:10594800F8B500BFF8BC08BC9E467047F8B500BF64
:08595800F8BC08BC9E46704734
:04596000AD0100088D
:0459640089010008AD
:10596800000102030405060708090A0B0C0D0E0FB7
:0859780000010203040000001D
:04000005080002B538
:00000001FF
