:1000000029C0000069C70000A4C70000DFC70000C6
:10001000BEC4000064C400003AC000000C941D0B74
:1000200036C0000034C000001BC40000BBC3000089
:100030000C9423082FC500002AC0000028C000002F
:10004000E5C4000024C0000022C0000020C0000061
:100050001EC0000011241FBECFE5D8E0DEBFCDBF1B
:1000600010E0A0E6B0E0E0E7F9E102C005900D92F3
:10007000A036B107D9F720E0A0E6B0E001C01D929C
:10008000A03BB207E1F70E94200B0C94B60CB8CF4E
:100090000F93CF93DF9300D000D01F92CDB7DEB780
:1000A00089836A834B832C830D838981882F90E019
:1000B00082309105E9F1833091051CF4019741F0FC
:1000C0005DC083309105E1F0049709F444C056C047
:1000D00083E590E023E530E0F90120812F7BFC01EE
:1000E000208383E590E023E530E0F9012081277F3C
:1000F000FC0120838CE590E02A81FC01208350C024
:1001000083E590E023E530E0F90120812F7BFC01BD
:10011000208383E590E023E530E0F9012081286029
:10012000FC0120838CE590E02A81FC01208338C00B
:1001300083E590E023E530E0F90120812064FC01B3
:10014000208383E590E023E530E0F9012081277FDB
:10015000FC01208325C083E590E023E530E0F90130
:1001600020812064FC01208383E590E023E530E0DA
:10017000F90120812860FC01208312C083E590E012
:1001800023E530E0F90120812F7BFC01208383E50A
:1001900090E023E530E0F9012081277FFC012083F6
:1001A0008B81882F90E08230910519F0039759F0E8
:1001B00014C089E590E029E530E0F9012081226052
:1001C000FC01208313C089E590E029E530E0F901C6
:1001D00020812D7FFC01208309C089E590E029E57D
:1001E00030E0F90120812260FC0120838C81882F7E
:1001F00090E0009719F0019759F014C089E590E05C
:1002000029E530E0F90120812160FC01208313C041
:1002100089E590E029E530E0F90120812E7FFC019D
:10022000208309C089E590E029E530E0F9012081CB
:100230002160FC0120838981823019F0898184301A
:1002400091F483E590E023E530E0F90120812F7EF1
:10025000FC01208383E590E023E530E0F901208173
:100260002062FC0120838D81882F90E083309105EE
:1002700009F448C0843091052CF4009759F0019797
:1002800029F194C08530910509F458C0069709F406
:1002900071C08CC083E590E023E530E0F901208156
:1002A0002160FC01208383E590E023E530E0F90143
:1002B00020812D7FFC01208383E590E023E530E061
:1002C000F90120812B7FFC0120838BC083E590E026
:1002D00023E530E0F90120812E7FFC01208383E5B6
:1002E00090E023E530E0F90120812260FC012083C9
:1002F00083E590E023E530E0F90120812B7FFC01CC
:1003000020836FC083E590E023E530E0F901208190
:100310002160FC01208383E590E023E530E0F901D2
:1003200020812260FC01208383E590E023E530E01A
:10033000F90120812B7FFC01208353C083E590E0ED
:1003400023E530E0F90120812E7FFC01208383E545
:1003500090E023E530E0F90120812D7FFC0120832E
:1003600083E590E023E530E0F90120812460FC0181
:10037000208337C083E590E023E530E0F901208158
:100380002160FC01208383E590E023E530E0F90162
:1003900020812D7FFC01208383E590E023E530E080
:1003A000F90120812460FC0120831BC083E590E0DB
:1003B00023E530E0F90120812E7FFC01208383E5D5
:1003C00090E023E530E0F90120812D7FFC012083BE
:1003D00083E590E023E530E0F90120812B7FFC01EB
:1003E000208382E590E0FC01108200000F900F90C6
:1003F0000F900F900F90DF91CF910F9108950F9371
:10040000CF93DF9300D000D01F92CDB7DEB78983A2
:100410006A834B832C830D838981882F90E08230FF
:100420009105E9F1833091051CF4019741F05DC01D
:1004300083309105E1F0049709F444C056C085E487
:1004400090E025E430E0F9012081277FFC01208342
:1004500085E490E025E430E0F90120812F7BFC0168
:10046000208383E490E02A81FC01208350C085E44E
:1004700090E025E430E0F9012081277FFC01208312
:1004800085E490E025E430E0F90120812064FC015E
:10049000208383E490E02A81FC01208338C085E436
:1004A00090E025E430E0F90120812860FC01208300
:1004B00085E490E025E430E0F90120812F7BFC0108
:1004C000208325C085E490E025E430E0F901208117
:1004D0002860FC01208385E490E025E430E0F90108
:1004E00020812064FC01208312C085E490E025E493
:1004F00030E0F9012081277FFC01208385E490E032
:1005000025E430E0F90120812F7BFC0120838B81E1
:10051000882F90E08230910519F0039759F014C0AC
:1005200089E590E029E530E0F90120812068FC01AF
:10053000208313C089E590E029E530E0F9012081AE
:100540002F77FC01208309C089E590E029E530E0A0
:10055000F90120812F77FC0120838C81882F90E086
:10056000009719F0019759F014C089E590E029E54A
:1005700030E0F90120812064FC01208313C089E56B
:1005800090E029E530E0F90120812F7BFC012083F8
:1005900009C089E590E029E530E0F90120812F7B51
:1005A000FC0120838981823019F08981843091F4A3
:1005B00083E590E023E530E0F90120812F7EFC0106
:1005C000208383E590E023E530E0F901208120627B
:1005D000FC0120838D81882F90E08230910509F401
:1005E0004CC0833091052CF4009779F0019749F1C4
:1005F000B4C08530910509F478C08630910509F4BE
:1006000090C0039709F455C0A8C085E490E025E4A4
:1006100030E0F90120812B7FFC01208385E490E00C
:1006200025E430E0F90120812D7FFC01208385E461
:1006300090E025E430E0F90120812160FC01208375
:10064000A7C085E490E025E430E0F90120812B7F0C
:10065000FC01208385E490E025E430E0F90120816D
:100660002260FC01208385E490E025E430E0F9017C
:1006700020812E7FFC0120838BC085E490E025E45F
:1006800030E0F90120812B7FFC01208385E490E09C
:1006900025E430E0F90120812260FC01208385E41B
:1006A00090E025E430E0F90120812160FC01208305
:1006B0006FC085E490E025E430E0F90120812460FA
:1006C000FC01208385E490E025E430E0F9012081FD
:1006D0002D7FFC01208385E490E025E430E0F901E2
:1006E00020812E7FFC01208353C085E490E025E427
:1006F00030E0F90120812460FC01208385E490E052
:1007000025E430E0F90120812260FC01208385E4AA
:1007100090E025E430E0F90120812E7FFC01208368
:1007200037C085E490E025E430E0F90120812460C1
:10073000FC01208385E490E025E430E0F90120818C
:100740002260FC01208385E490E025E430E0F9019B
:1007500020812160FC0120831BC085E490E025E41A
:1007600030E0F90120812B7FFC01208385E490E0BB
:1007700025E430E0F90120812D7FFC01208385E410
:1007800090E025E430E0F90120812E7FFC012083F8
:1007900000000F900F900F900F900F90DF91CF916E
:1007A0000F9108951F920F9200905F000F921124F5
:1007B0000F932F933F934F935F936F937F938F93F9
:1007C0009F93AF93BF93EF93FF93CF93DF93CDB7F7
:1007D000DEB78091A8009091A900A091AA00B091E5
:1007E000AB000197A109B1098093A8009093A900DB
:1007F000A093AA00B093AB0080916000909161003B
:10080000892BC1F08091A8009091A900A091AA0025
:10081000B091AB00892B8A2B8B2B61F400E021E097
:1008200043E060E081E034DC809160009091610001
:10083000FC0109950000DF91CF91FF91EF91BF91ED
:10084000AF919F918F917F916F915F914F913F9168
:100850002F910F910F9000925F000F901F901895AD
:100860001F920F9200905F000F9211240F932F930D
:100870003F934F935F936F937F938F939F93AF9328
:10088000BF93EF93FF93CF93DF93CDB7DEB7809104
:10089000620090916300892B61F000E021E043E069
:1008A00060E081E0F5DB8091620090916300FC01E3
:1008B00009950000DF91CF91FF91EF91BF91AF912A
:1008C0009F918F917F916F915F914F913F912F9168
:1008D0000F910F9000925F000F901F9018951F923C
:1008E0000F9200905F000F9211240F932F933F936C
:1008F0004F935F936F937F938F939F93AF93BF9328
:10090000EF93FF93CF93DF93CDB7DEB78091AC0029
:100910009091AD00A091AE00B091AF000197A109F8
:10092000B1098093AC009093AD00A093AE00B0935A
:10093000AF008091640090916500892B91F08091C7
:10094000AC009091AD00A091AE00B091AF00892BAA
:100950008A2B8B2B31F400E021E043E060E081E062
:100960004EDD0000DF91CF91FF91EF91BF91AF91EC
:100970009F918F917F916F915F914F913F912F91B7
:100980000F910F9000925F000F901F9018951F928B
:100990000F9200905F000F9211240F932F933F93BB
:1009A0004F935F936F937F938F939F93AF93BF9377
:1009B000EF93FF93CF93DF93CDB7DEB780916600BF
:1009C00090916700892B61F080916600909167009B
:1009D000FC01099500E021E043E060E081E00FDDEB
:1009E0000000DF91CF91FF91EF91BF91AF919F9167
:1009F0008F917F916F915F914F913F912F910F91C7
:100A00000F9000925F000F901F9018951F920F9209
:100A100000905F000F9211242F933F934F935F93A9
:100A20006F937F938F939F93AF93BF93EF93FF93B6
:100A3000CF93DF9300D0CDB7DEB785E290E0FC0125
:100A40008081882F90E09A838983809168009091BB
:100A50006900892B41F020916800309169008981FB
:100A60009A81F901099500000F900F90DF91CF91C5
:100A7000FF91EF91BF91AF919F918F917F916F9176
:100A80005F914F913F912F910F9000925F000F90D7
:100A90001F9018951F920F9200905F000F921124E3
:100AA0002F933F934F935F936F937F938F939F9376
:100AB000AF93BF93EF93FF93CF93DF931F92CDB785
:100AC000DEB78CE290E0FC018081898380916A002E
:100AD00090916B00892B41F020916A0030916B005E
:100AE000CE010196F901099500000F90DF91CF9199
:100AF000FF91EF91BF91AF919F918F917F916F91F6
:100B00005F914F913F912F910F9000925F000F9056
:100B10001F901895CF93DF9300D0CDB7DEB78983B0
:100B20006A838981882F90E08130910509F4B1C0F2
:100B30008230910509F457C1892B09F0ABC18A8134
:100B4000882F90E08A309105A9F08B3091053CF414
:100B5000009709F47FC0019709F486C08FC08C30DC
:100B6000910509F43FC08C30910504F10D9709F40B
:100B700055C084C085E590E025E530E0F90120818D
:100B80002D7FFC01208385E590E025E530E0F9012B
:100B900020812E7FFC0120838BE590E02BE530E067
:100BA000F90120812064FC01208372C085E590E07A
:100BB00025E530E0F90120812160FC01208385E5F5
:100BC00090E025E530E0F90120812D7FFC012083B4
:100BD0008BE590E02BE530E0F90120812064FC01F9
:100BE000208356C085E590E025E530E0F9012081BD
:100BF0002E7FFC01208385E590E025E530E0F901BA
:100C000020812260FC0120838BE590E02BE530E021
:100C1000F90120812064FC0120833AC085E590E041
:100C200025E530E0F90120812260FC01208385E583
:100C300090E025E530E0F90120812160FC0120836E
:100C40008BE590E02BE530E0F90120812064FC0188
:100C500020831EC08BE590E02BE530E0F901208178
:100C60002F7BFC01208314C08BE590E02BE530E066
:100C7000F90120812064FC0120830AC08BE590E00B
:100C80002BE530E0F90120812F7BFC01208300005F
:100C90001DC18A81882F90E08A309105A9F08B30A0
:100CA00091053CF4009709F47FC0019709F486C0D0
:100CB0008FC08C30910509F43FC08C30910504F150
:100CC0000D9709F455C084C085E590E025E530E036
:100CD000F9012081277FFC01208385E590E025E54F
:100CE00030E0F90120812B7FFC0120838BE590E02F
:100CF0002BE530E0F90120812068FC01208372C0DF
:100D000085E590E025E530E0F90120812460FC01D3
:100D1000208385E590E025E530E0F9012081277FFB
:100D2000FC0120838BE590E02BE530E0F901208188
:100D30002068FC01208356C085E590E025E530E081
:100D4000F90120812B7FFC01208385E590E025E5DA
:100D500030E0F90120812860FC0120838BE590E0E0
:100D60002BE530E0F90120812068FC0120833AC0A6
:100D700085E590E025E530E0F90120812460FC0163
:100D8000208385E590E025E530E0F90120812860A9
:100D9000FC0120838BE590E02BE530E0F901208118
:100DA0002068FC0120831EC08BE590E02BE530E03D
:100DB000F90120812F77FC01208314C08BE590E09E
:100DC0002BE530E0F90120812068FC0120830AC076
:100DD0008BE590E02BE530E0F90120812F77FC01D5
:100DE0002083000073C08A81882F90E081309105B4
:100DF000E1F1823091051CF4892B69F140C08C30FF
:100E0000910519F00D97A1F03AC084E590E024E532
:100E100030E0F90120812F7BFC0120838BE590E0FD
:100E20002BE530E0F90120812062FC01208331C0F4
:100E300084E590E024E530E0F90120812160FC01A7
:100E400020838BE590E02BE530E0F90120812062E2
:100E5000FC0120831EC08BE590E02BE530E0F9011A
:100E600020812F7DFC01208314C08BE590E02BE5D1
:100E700030E0F90120812062FC0120830AC08BE56B
:100E800090E02BE530E0F90120812F7DFC012083EB
:100E900000001CC08BE590E02BE530E0F9012081DB
:100EA0002F7BFC0120838BE590E02BE530E0F901FE
:100EB00020812F77FC0120838BE590E02BE530E04B
:100EC000F90120812F7DFC012083000000000F909C
:100ED0000F90DF91CF9108951F920F9200905F00C5
:100EE0000F9211242F933F934F935F936F937F93B0
:100EF0008F939F93AF93BF93EF93FF93CF93DF9322
:100F0000CDB7DEB780916C0090916D00892B61F0B8
:100F100060E080E0FFDD80916C0090916D00FC014D
:100F2000099561E080E0F6DD0000DF91CF91FF914F
:100F3000EF91BF91AF919F918F917F916F915F9151
:100F40004F913F912F910F9000925F000F901F9053
:100F500018951F920F9200905F000F9211242F930B
:100F60003F934F935F936F937F938F939F93AF9331
:100F7000BF93EF93FF93CF93DF93CDB7DEB780910D
:100F80006E0090916F00892B61F060E081E0C2DD1E
:100F900080916E0090916F00FC01099561E081E005
:100FA000B9DD0000DF91CF91FF91EF91BF91AF913B
:100FB0009F918F917F916F915F914F913F912F9171
:100FC0000F9000925F000F901F9018951F920F9244
:100FD00000905F000F9211242F933F934F935F93E4
:100FE0006F937F938F939F93AF93BF93EF93FF93F1
:100FF000CF93DF93CDB7DEB78091700090917100F1
:10100000892B61F060E082E085DD80917000909135
:101010007100FC01099561E082E07CDD0000DF9158
:10102000CF91FF91EF91BF91AF919F918F917F9160
:101030006F915F914F913F912F910F9000925F00C0
:101040000F901F9018951F920F9200905F000F92C3
:1010500011242F933F934F935F936F937F938F93BD
:101060009F93AF93BF93EF93FF93CF93DF93CDB74E
:10107000DEB78091720090917300892B31F08091DE
:10108000720090917300FC0109950000DF91CF91EF
:10109000FF91EF91BF91AF919F918F917F916F9150
:1010A0005F914F913F912F910F9000925F000F90B1
:1010B0001F901895CF93DF93CDB7DEB72F970FB65C
:1010C000F894DEBF0FBECDBF19828091A7008823A0
:1010D00009F0ABC180919E0090919F0001969B8387
:1010E0008A838A819B8190939F0080939E008A814E
:1010F0009B81892BD1F480919A0090919B009D83D4
:101100008C8380919C0090919D0090939B00809394
:101110009A008C819D8190939D0080939C0080918A
:10112000A4008F5F8093A40007D28091A5009091C6
:10113000A6002A813B812817390708F456C18091FF
:101140009A0090919B00FC018081882339F48FEFF5
:101150009FEF9093A6008093A50047C180919A00CD
:1011600090919B00FC0185819681FC01868197818D
:101170009F838E838E819F81FC01828193819987D9
:1011800088872A813B81888599852817390738F413
:10119000888599859093A6008093A50026C18E81AD
:1011A0009F81FC01828593859B878A878E819F81A1
:1011B000FC01848195812E813F81F901268137814F
:1011C000FC01358324838E819F81FC018681978178
:1011D0002E813F81F90124813581FC0133832283F3
:1011E0008A859B85FC01218132818E819F810296B7
:1011F0002817390751F48E819F81FC0126813781A0
:101200008A859B85FC01328321838E819F81FC012D
:10121000138612868A859B85FC0180812FEF280F1B
:101220008A859B85FC0120838E819F81FC018489B6
:101230009589892B09F445C08E819F81FC018489A1
:1012400095899D878C878E819F81FC0186859785F6
:101250002E813F81F90120893189FC013583248366
:101260008E819F81FC01808991892E813F81F901C6
:1012700026853785FC01338322838C859D85FC017F
:10128000218132818E819F810C962817390751F474
:101290008E819F81FC01208931898C859D85FC018F
:1012A000328321838E819F81FC01158A148A8C856B
:1012B0009D85FC0180812FEF280F8C859D85FC0189
:1012C00020838E819F81FC0196898091A0008917DF
:1012D00030F48E819F81FC0186898093A0008E81ED
:1012E0009F81FC018689282F30E0C901880F991F52
:1012F000880F991F880F991F820F931F89589F4F3E
:10130000FC01808191819F878E878E819F812E85B0
:101310003F85FC01358324838E859F85FC012481D4
:1013200035818E819F81FC01378326838E859F8541
:10133000FC01848195812E813F812E5F3F4FFC010E
:10134000338322838E819F819C012E5F3F4F8E8548
:101350009F85FC01358324838E819F81FC018689D2
:10136000282F30E0C901880F991F880F991F880F17
:10137000991F820F931F9C012A583F4F8E819F8196
:10138000FC01338722878E819F81FC018689282F6B
:1013900030E0C901880F991F880F991F880F991F86
:1013A000820F931F8A589F4FFC01808141E0480FB4
:1013B000C901880F991F880F991F880F991F820FE5
:1013C000931F8A589F4FFC0140838E819F81FC01AF
:1013D00026898091740090917500FC01868982179E
:1013E00008F0ADCE81E08983AACE809174009091FF
:1013F0007500FC018689282F30E0C901880F991FEC
:10140000880F991F880F991F820F931F8A589F4F2B
:10141000FC018081823010F081E089838091A300FB
:10142000882361F081E0898309C08091A1009091B7
:10143000A20001969093A2008093A10089812F962B
:101440000FB6F894DEBF0FBECDBFDF91CF910895E8
:10145000CF93DF9300D01F92CDB7DEB78091A70066
:10146000882321F081E08093A3005FC01092A30045
:101470008091A000898303C08981815089838981FB
:10148000282F30E0C901880F991F880F991F880FF6
:10149000991F820F931F8A589F4FFC0180818823D8
:1014A00059F38981282F30E0C901880F991F880FCF
:1014B000991F880F991F820F931F8A589F4F9B83F4
:1014C0008A838A819B81FC0181819281FC01228136
:1014D00033818A819B81FC01328321838A819B81B4
:1014E000FC01218132818A819B810396281739076B
:1014F00069F48A819B81FC0181819281FC012281B6
:1015000033818A819B81FC01328321838A819B8183
:10151000FC0181819281FC01868197819093750005
:101520008093740089818093A00000000F900F9039
:101530000F90DF91CF910895CF93DF93CDB7DEB7B2
:1015400080919A0090919B00FC018081882339F45E
:101550008FEF9FEF9093A6008093A5000EC080911F
:101560009A0090919B00FC0185819681FC0180810D
:1015700091819093A6008093A5000000DF91CF9108
:1015800008950F920FB6F8940F921F9211242F9284
:101590003F924F925F926F927F928F929F92AF9203
:1015A000BF92CF92DF92EF92FF920F931F932F93F0
:1015B0003F934F935F936F937F938F939F93AF93DB
:1015C000BF93CF93DF93EF93FF93A0917400B091FB
:1015D00075000DB60D920EB60D926CDD882309F0E4
:1015E00037DFA0917400B0917500CD91CDBFDD9132
:1015F000DEBFFF91EF91DF91CF91BF91AF919F91AE
:101600008F917F916F915F914F913F912F911F919A
:101610000F91FF90EF90DF90CF90BF90AF909F9091
:101620008F907F906F905F904F903F902F901F9082
:101630000F900FBE0F9008950000A3DF18950000D3
:10164000CF93DF93CDB7DEB72E970FB6F894DEBFFA
:101650000FBECDBF87E390E027E330E0F9012081A2
:101660002160FC01208388E390E028E330E0F90169
:10167000308121E02327FC01208380E090E0AAEF65
:10168000B3E489839A83AB83BC8320E030E04AEFE4
:1016900054E469817A818B819C8105D1DC01CB0185
:1016A0008D839E83AF83B88720E030E040E85FE31E
:1016B0006D817E818F8198854DD088232CF481E0C7
:1016C00090E09A8789873BC020E03FEF4FE757E4DF
:1016D0006D817E818F819885E2D018163CF520E0DF
:1016E00030E040E251E469817A818B819C81DBD0DA
:1016F000DC01CB01BC01CD0131D0DC01CB019A87EB
:1017000089870FC088EC90E09C878B878B859C85B0
:101710000197F1F79C878B8789859A8501979A872E
:10172000898789859A85892B69F713C06D817E81A8
:101730008F81988513D0DC01CB019A8789878985B1
:101740009A859E878D878D859E850197F1F79E8767
:101750008D8789CF2FD008F481E008957FD088F05D
:101760009F5790F0B92F9927B751A0F0D1F0660F8D
:10177000771F881F991F1AF0BA95C9F712C0B130A8
:1017800081F086D0B1E0089583C0672F782F882735
:10179000B85F39F0B93FCCF3869577956795B395E7
:1017A000D9F73EF490958095709561957F4F8F4F56
:1017B0009F4F0895990F0008550FAA0BE0E8FEEF20
:1017C00016161706E807F907C0F012161306E40705
:1017D000F50798F0621B730B840B950B39F40A26FE
:1017E00061F0232B242B252B21F408950A2609F4DC
:1017F000A140A6958FEF811D811D089597F99F67E0
:1018000080E870E060E008959FEF80EC0895002488
:101810000A941616170618060906089500240A9455
:1018200012161306140605060895092E0394000CDB
:1018300011F4882352F0BB0F40F4BF2B11F460FF6A
:1018400004C06F5F7F4F8F4F9F4F089557FD905893
:10185000440F551F59F05F3F71F04795880F97FB74
:10186000991F61F09F3F79F087950895121613062E
:101870001406551FF2CF4695F1DF08C0161617065D
:101880001806991FF1CF8695710561050894089592
:10189000E894BB2766277727CB0197F908958ADF5D
:1018A00008F48FEF08950BD0C0CFB1DF28F0B6DF7A
:1018B00018F0952309F0A2CFA7CF1124EACFC6DFF5
:1018C000A0F3959FD1F3950F50E0551F629FF00153
:1018D000729FBB27F00DB11D639FAA27F00DB11DAC
:1018E000AA1F649F6627B00DA11D661F829F222735
:1018F000B00DA11D621F739FB00DA11D621F839FBC
:10190000A00D611D221F749F3327A00D611D231F91
:10191000849F600D211D822F762F6A2F11249F57DF
:1019200050408AF0E1F088234AF0EE0FFF1FBB1F02
:10193000661F771F881F91505040A9F79E3F5105A1
:1019400070F05CCFA6CF5F3FECF3983EDCF386955A
:1019500077956795B795F795E7959F5FC1F7FE2B4C
:10196000880F911D9695879597F90895F894FFCF64
:00000001FF
