:100000000C942A000C9434000C9434000C943400AA
:100010000C9434000C9434000C9434000C94340090
:100020000C9434000C9434000C9434000C94340080
:100030000C9434000C9434000C9434000C94340070
:100040000C9434000C9434000C9434000C94340060
:100050000C94340011241FBECFE5D8E0DEBFCDBF25
:100060000E9436000C948C000C940000CF93DF9318
:1000700000D01F92CDB7DEB721E040E060E0CE01B6
:1000800001960E944B0080E090E00F900F900F903F
:10009000DF91CF910895CF93DF931F92CDB7DEB755
:1000A000FC0160834183228319829AB3898190FB8A
:1000B00080F9898397B3898190FB81F9898394B30F
:1000C000898190FB82F9898391B3898190FB83F9BF
:1000D0008983E62FF0E081E090E08C0F9D1FE80F10
:1000E000F91F213051F4208181E090E001C0880F98
:1000F0004A95EAF78095822308C0208181E090E04C
:1001000001C0880F4A95EAF7822B80830F90DF9118
:0C011000CF9108950C944B00F894FFCFA1
:00000001FF
