:020000040800F2
:100000000050002065C40008A52A0008AB2A00089B
:10001000B12A0008B72A0008BD2A00080000000025
:10002000000000000000000000000000C32A0008DB
:10003000ADC4000800000000853000084130000811
:10004000ADC40008ADC40008ADC40008ADC40008CC
:10005000ADC40008ADC40008110A0008310A000848
:10006000510A0008710A0008910A0008ADC400088E
:10007000ADC40008ADC40008ADC40008ADC400089C
:10008000ADC40008ADC40008ADC40008ADC400088C
:10009000ADC40008ADC40008ADC40008B10A000832
:1000A000ADC40008ADC40008ADC40008ADC400086C
:1000B000ADC40008ADC40008ADC40008ADC400085C
:1000C000ADC40008ADC40008ADC4000891360008F6
:1000D000A5360008E13E0008D93F0008D1400008DD
:1000E000590B0008ADC40008ADC4000800000000B2
:1000F0000000000000000000000000000000000000
:0C01000000000000000000005FF808F1A3
:100110000348044B834202D0034B03B11847704796
:10012000FC090020FC0900200000000005480649E9
:100130000B1AD90F01EBA301491002D0034B03B1F5
:1001400018477047FC090020FC090020000000004F
:1001500010B5064C237843B9FFF7DAFF044B13B10F
:100160000448AFF300800123237010BDFC09002078
:1001700000000000C4C4000808B5044B1BB10449CA
:100180000448AFF30080BDE80840CFE7000000005E
:10019000000A0020C4C40008A3F5803A704700BFDD
:1001A000154B002B08BF114B9D46FFF7F5FF0021B3
:1001B0008B460F461148124A121A04F057FC0C4B9A
:1001C000002B00D098470B4B002B00D09847002005
:1001D000002104000D000B4804F0F8FB04F022FCA1
:1001E0002000290000F010F804F0F6FB00000800E1
:1001F000000000000000000000000000FC090020DA
:10020000400D0020F949000880B582B000AF00F031
:1002100096F800237B6000F003F800F0E5F9FAE7B8
:1002200080B58AB000AF01220E21012000F024FF2A
:1002300001220F21012000F01FFF00237B620BE051
:1002400000233B6202E03B6A01333B623B6AFE2BC8
:10025000F9D97B6A01337B627B6AB3F57A7FEFD38E
:1002600000220E21012000F007FF00220F210120B3
:1002700000F002FF0023FB610BE00023BB6102E002
:10028000BB690133BB61BB69FE2BF9D9FB69013343
:10029000FB61FB69B3F57A7FEFD300237B610BE051
:1002A00000233B6102E03B6901333B613B69FE2B6C
:1002B000F9D97B6901337B617B69B3F57A7FEFD331
:1002C00001220021012000F0D7FE0122012101209E
:1002D00000F0D2FE0023FB600BE00023BB6002E0D5
:1002E000BB680133BB60BB68FE2BF9D9FB680133E7
:1002F000FB60FB68B3F57A7FEFD300220021012079
:1003000000F0BAFE00220121012000F0B5FE00231A
:100310007B600BE000233B6002E03B6801333B6005
:100320003B68FE2BF9D97B6801337B607B68B3F5B2
:100330007A7FEFD300BF00BF2837BD4680BD80B5B0
:1003400082B000AF114A3B1D12681146198002337A
:10035000120C1A707968012000F0D2FD0F233B7156
:100360007968012000F0CCFD00233B717968012001
:1003700000F0C6FD01233B717968012000F0C0FD4B
:1003800000F098F900BF0837BD4680BD04C50008DD
:1003900080B582B000AF0346FB710121064803F02F
:1003A000F5FCFB799BB21946034803F0EFFC00BF54
:1003B0000837BD4680BD00BF0800002080B500AFF3
:1003C0000221024803F0E2FC00BF80BD08000020CB
:1003D00080B584B000AF0023FB600023BB6000F059
:1003E00085F90023FB7125E00023BB7113E0FB7945
:1003F0001B4AD35C1A46BB79C3F10303DB0002FA44
:1004000003F31A46BB681343BB60BB790133BB716E
:10041000FB790133FB71BB79032B05D8FA79104BBB
:100420001B78033B9A42E2DBB86800F04FF9F860B2
:100430000023BB60FA790A4B1B78033B9A42D3DB5B
:10044000074B1B78033B064A13441B68FA689A4221
:100450000CBF01230023DBB218461037BD4680BD18
:10046000180A002080B582B000AF0B4B1B783B719F
:100470000A4B1B787B710A4B1B78BB710320FFF77B
:1004800087FF3B1D03221946064803F0C1FA00BF4F
:100490000837BD4680BD00BF04000020120B0020BD
:1004A000130B00200800002080B500AF0120FFF7EB
:1004B0006FFF6021202000F04BFC0346002B04D18D
:1004C0000321054803F062FC03E00421024803F025
:1004D0005DFC00BF80BD00BF0800002080B582B079
:1004E00000AF074B7B600C20FFF752FF0C227968AE
:1004F000044803F08DFA00BF0837BD4680BD00BF39
:10050000E8F7FF1F0800002080B582B000AF0A4A5C
:100510003B4692E803001860043319700520FFF78A
:1005200037FF3B4605221946044803F071FA00BF25
:100530000837BD4680BD00BF08C500080800002080
:1005400080B500AF0120FFF723FF0B4B9B78053BE5
:100550001A460A49202000F028FC0346002B04D14B
:100560000521074803F012FC03E00621044803F0CC
:100570000DFC00BF80BD00BF180A00201A0A002031
:100580000800002080B582B000AF0023FB71154B3E
:100590005B78013B042B1CD801A252F823F000BF6A
:1005A000BB050008C1050008B5050008C70500081F
:1005B000CD050008FFF756FF0EE0FFF7A5FF0BE0A3
:1005C000FFF78CFF08E0FFF76FFF05E0FFF7B8FFCC
:1005D00002E00723FB7100BFFB7918460837BD46D0
:1005E00080BD00BF180A002080B582B000AF002394
:1005F000FB710023BB71164803F008FC0346DAB216
:10060000144B1A700123BB710BE0114803F0FEFB81
:1006100003461A46BB79D1B20E4AD154BB79013395
:10062000BB710C4B1B78BA799A42EED9FFF7D0FE1A
:100630000346012B04D1FFF7A5FF0346FB7101E040
:10064000FFF7BCFEFB7918460837BD4680BD00BFEA
:1006500008000020180A00200FB480B5C0B000AF19
:1006600000237B6007F10803F6220021184604F0FE
:10067000FDF907F5867207F58073A3F580731A609C
:1006800007F58073A3F58073381D1A68D7F8081131
:1006900004F03EFA3B1D1946054803F0D5F900BFAA
:1006A00007F58077BD46BDE8804004B0704700BFC5
:1006B0000800002080B500AF034803F0E3F900F024
:1006C00023F800BF80BD00BF0800002080B483B0C5
:1006D00000AF7860044A7B681360034B1B681846C0
:1006E0000C37BD4680BC70470030024080B400AF7C
:1006F000044A936843F00103936000BFBD4680BC89
:10070000704700BF0030024080B500AF01210620D5
:1007100001F04AFEFFF7EAFF00BF80BD80B500AFE1
:10072000024800F0C1FD00BF80BD00BF18000020DE
:1007300080B586B002AF03463960FB8013467B71FB
:10074000BB1DBB607B79013B7B71BB685A1C0223DC
:10075000009300232A21164800F04CFE002300934A
:100760000023BA682A21124800F044FE0023FB73DC
:100770000CE0FB7B3A681A440023009300232A21F3
:100780000B4800F037FEFB7B0133FB73FA7B7B7970
:100790009A42EED3FB7B3A681A440123009300236C
:1007A0002A21034800F026FE00BF1037BD4680BD59
:1007B0001800002080B586B002AF03463960FB8088
:1007C00013467B71BB1DBB607B79013B7B71BB68B2
:1007D0005A1C0223009300232A211A4800F00AFE23
:1007E000002300930023BA682A21164800F002FE75
:1007F0000223009301233A682A21124800F0FAFDEF
:100800000123FB730CE0FB7B3A681A44002300933E
:1008100001232A210B4800F0EDFDFB7B0133FB7324
:10082000FA7B7B799A42EED3FB7B3A681A44012328
:10083000009301232A21034800F0DCFD00BF10379C
:10084000BD4680BD1800002090B58BB000AF3B1DA9
:1008500083E80700002387F82430042387F8253035
:10086000002387F82630664B07F114040FCB84E889
:100870000F000121202001F097FD7B7987F82430BB
:100880003B79796A184600F03BFB5E4A7B799B080E
:10089000D8B20346023352F823307A7902F00302C9
:1008A00092000F2101FA02F2D24356491A40831CEA
:1008B00041F82320534A7B799B08D8B20346023380
:1008C00052F823303A7911467A7902F00302920005
:1008D00001FA02F24B491A43831C41F82320BB79E9
:1008E000032B32D0032B45DC012B02D0022B16D078
:1008F00040E0454BDB687A79114601228A40114677
:10090000414A0B43D360404B9B687A7911460122E0
:100910008A40D24311463C4A0B4093602AE03A4B4E
:100920009B687A79114601228A401146364A0B4368
:100930009360354BDB687A79114601228A40D243B5
:100940001146314A0B40D36014E02F4B9B687A79F3
:10095000114601228A4011462B4A0B4393602A4BD1
:10096000DB687A79114601228A401146264A0B43F8
:10097000D36000BFFB79012B0AD1234B1B687A7926
:10098000114601228A4011461F4A0B4313600AE0B8
:100990001D4B1B687A79114601228A40D2431146C9
:1009A000194A0B4013603B7A012B0AD1164B5B6846
:1009B0007A79114601228A401146134A0B4353604B
:1009C0000AE0114B5B687A79114601228A40D243D2
:1009D00011460D4A0B4053607B791946D7F8093010
:1009E0000A4A42F821307B7928333B4413F8143CFF
:1009F0000121184601F096F900BF2C37BD4690BD85
:100A000010C500080000014000040140140B002044
:100A100080B500AF044B1B689847044A536943F004
:100A20000103536100BF80BD140B0020000401408E
:100A300080B500AF044B5B689847044A536943F0A4
:100A40000203536100BF80BD140B0020000401406D
:100A500080B500AF044B9B689847044A536943F044
:100A60000403536100BF80BD140B0020000401404B
:100A700080B500AF044BDB689847044A536943F0E4
:100A80000803536100BF80BD140B00200004014027
:100A900080B500AF044B1B699847044A536943F083
:100AA0001003536100BF80BD140B002000040140FF
:100AB00080B500AF264B5B69C3F34013DBB2002B5C
:100AC00007D0244B5B699847214A536943F02003C0
:100AD00053611F4B5B69C3F38013DBB2002B07D05C
:100AE0001C4B9B6998471A4A536943F04003536172
:100AF000174B5B69C3F3C013DBB2002B07D0154B58
:100B0000DB699847124A536943F080035361104BE5
:100B10005B69C3F30023DBB2002B07D00D4B1B6ACC
:100B200098470B4A536943F480735361084B5B69E0
:100B3000C3F34023DBB2002B07D0064B5B6A984718
:100B4000034A536943F40073536100BF80BD00BF83
:100B500000040140140B002080B500AF264B5B69F8
:100B6000C3F38023DBB2002B07D0244B5B6998478B
:100B7000214A536943F4806353611F4B5B69C3F39C
:100B80000033DBB2002B07D01C4B9B6998471A4AF5
:100B9000536943F480535361174B5B69C3F340338C
:100BA000DBB2002B07D0154BDB699847124A53691B
:100BB00043F400535361104B5B69C3F38033DBB2E2
:100BC000002B07D00D4B1B6A98470B4A536943F41F
:100BD00080435361084B5B69C3F3C033DBB2002B26
:100BE00007D0064B5B6A9847034A536943F40043B6
:100BF000536100BF80BD00BF00040140140B002002
:100C000080B400AF044A136943F08003136100BF4E
:100C1000BD4680BC704700BF0020024080B483B056
:100C200000AF0023FB710A4B0A4A5A60084B0A4A7C
:100C30005A60074B1B69C3F3C013DBB2002B01D012
:100C40000123FB71FB7918460C37BD4680BC704709
:100C50000020024023016745AB89EFCD80B485B009
:100C600000AF78600023FB7300BF214BDB68C3F348
:100C70000003DBB2002BF8D11D4A136943F00203D5
:100C800013611B4A7B685361194A136943F040039F
:100C9000136100BF164BDB68C3F30003DBB2002B0C
:100CA000F8D1134BDB68C3F38003DBB2002B06D112
:100CB0000F4BDB68C3F30013DBB2002B0CD00C4AE4
:100CC000D36843F00403D360094AD36843F01003A8
:100CD000D3600123FB7304E0054A13696FF34103FA
:100CE0001361FB7B18461437BD4680BC704700BFBC
:100CF0000020024080B485B000AF78600B467B8056
:100D00000023FB73114A136943F0010313617B68ED
:100D10007A881A8000BF0D4BDB68C3F30003DBB297
:100D2000002BF8D17B681B889BB27A889A4205D148
:100D3000064A13696FF30003136101E00123FB739B
:100D4000FB7B18461437BD4680BC7047002002402C
:100D500080B584B000AF03460A46FB711346BB71F1
:100D60000023FB73FB7903F500339B02BB60FFF7A5
:100D700055FF0346FB730BE0B868FFF76FFF0346B0
:100D8000FB73BB6803F58063BB60BB79013BBB7140
:100D9000BB79002B02D0FB7B002BEDD0FFF730FF9F
:100DA000FB7B18461037BD4680BD80B588B000AFCC
:100DB0000346B9607A60FB730023FB610023FB7676
:100DC000FB7B03F500339B027B617B689B0ADBB2F4
:100DD0000133DAB2FB7B11461846FFF7B9FFFFF784
:100DE0001DFF0346FB760023FB6121E0FB695B00EE
:100DF000BA6813441B8819467869FFF77BFF0346DE
:100E0000FB76FB7E002B1BD17B69981CFB695B008A
:100E1000BA6813441B881B149BB21946FFF76AFF7C
:100E20000346FB76FB690133FB617B6904337B611D
:100E3000FA697B689A4204D2FB7E002BD6D000E090
:100E400000BFFFF7DDFEFB7E18462037BD4680BDA4
:100E500080B485B000AF03460A46FB711346BB71F0
:100E60000023FB60214AD36943F00103D361FB797E
:100E7000032B17D801A252F823F000BF8D0E0008F3
:100E8000930E0008990E00089F0E0008184BFB6097
:100E900008E0184BFB6005E0174BFB6002E0174BC6
:100EA000FB6000BFBB79012202FA03F343F48032F6
:100EB000FB689A61FA68936943F480339361FA6836
:100EC00093696FF310439361FA68936943F4803335
:100ED0009361FB689B69C3F30043FB689B69C3F3A1
:100EE000004300BF1437BD4680BC7047001002406D
:100EF00000080140000C01400010014000140140B6
:100F000080B584B000AF03463960FB710023FB60FD
:100F10000023BB60FB79032B26D801A252F823F0F3
:100F2000310F00083F0F00084D0F00085B0F00084D
:100F30000121222001F038FA2E4BFB6014E0012140
:100F4000232001F031FA2C4BFB600DE0012124201D
:100F500001F02AFA294BFB6006E00121252001F06F
:100F600023FA274BFB6000BF3B78072B02D8FB68B6
:100F7000BB6006E03B78083BDBB23B70FB680433A8
:100F8000BB607B780F2B0CD1FB68DB683A7811468D
:100F900001228A40D2431A40FB68DA6008237B7042
:100FA0000BE07B78082B08D1FB68DB683A781146A8
:100FB00001228A401A43FB68DA60BB681A683B78F2
:100FC0009B000F2101FA03F3DB431A40BB681A6050
:100FD000BB681A68B9787B780B43DBB219463B785B
:100FE0009B0001FA03F31A43BB681A6000BF103775
:100FF000BD4680BD00080140000C014000100140CA
:101000000014014080B485B000AF03460A46FB716E
:101010001346BB710023FB60FB79032B16D801A29A
:1010200052F823F0351000083B100008411000086A
:10103000471000080C4BFB6008E00C4BFB6005E020
:101040000B4BFB6002E00B4BFB6000BFFB689A6838
:10105000BB7922FA03F3DBB203F00103DBB21846DB
:101060001437BD4680BC704700080140000C0140A9
:10107000001001400014014080B485B000AF034669
:10108000FB710B46BB7113467B710023FB60FB7940
:10109000032B17D801A252F823F000BFAD100008AF
:1010A000B3100008B9100008BF100008104BFB6017
:1010B00008E0104BFB6005E00F4BFB6002E00F4BBC
:1010C000FB6000BF7B79012B05D1BB79012202FABD
:1010D00003F31A4605E0BB791033012202FA03F349
:1010E0001A46FB681A6100BF1437BD4680BC7047C2
:1010F00000080140000C01400010014000140140B4
:1011000080B485B000AF03460A46FB711346BB713D
:101110000023FB60FB79032B16D801A252F823F0C1
:1011200031110008371100083D1100084311000873
:101130000C4BFB6008E00C4BFB6005E00B4BFB60CD
:1011400002E00B4BFB6000BFFB68DB68BA79012152
:1011500001FA02F25A40FB68DA6000BF1437BD465C
:1011600080BC704700080140000C014000100140A5
:101170000014014080B485B000AF0346FB7100232A
:10118000FB60FB79032B17D801A252F823F000BFB4
:10119000A1110008A7110008AD110008B311000843
:1011A000094BFB6008E0094BFB6005E0084BFB6066
:1011B00002E0084BFB6000BFFB689B689BB21846CF
:1011C0001437BD4680BC704700080140000C014048
:1011D000001001400014014080B485B000AF034608
:1011E0000A46FB711346BB800023FB60FB79032B8F
:1011F00016D801A252F823F0091200080F120008B5
:10120000151200081B120008094BFB6008E0094B8F
:10121000FB6005E0084BFB6002E0084BFB6000BF91
:10122000BA88FB68DA6000BF1437BD4680BC7047DF
:1012300000080140000C0140001001400014014072
:1012400080B485B000AF0346FB710023FB60FB79DF
:10125000032B17D801A252F823F000BF6D1200082B
:1012600073120008791200087F1200080A4BFB6015
:1012700008E00A4BFB6005E0094BFB6002E0094B0C
:10128000FB6000BFFB68DB68DA43FB68DA6000BF25
:101290001437BD4680BC704700080140000C014077
:1012A00000100140001401402DE9904389B000AFC7
:1012B00078604C4A07F10C0312681146198002331A
:1012C000120C1A700623FB760723BB7601F050F947
:1012D000454A4FF0000303F0F5F902460B46C7E913
:1012E00004237B681B79002B0AD1404BFB6106234A
:1012F000FB760723BB760121552001F055F809E064
:101300003B4BFB610A23FB760B23BB760121562066
:1013100001F04AF8FB7E3B73F9680120FFF7F0FD0E
:10132000BB7E3B73F9680120FFF7EAFDFB695B6850
:1013300023F03F023B691A43FB695A60FB69DB6992
:1013400023F47F6424F00F047B68B3F805309BB26C
:101350009BB2002298469146D7E904234FF47A7055
:101360004FF0000103F0AEF902460B4640464946F5
:1013700003F0A8F902460B46134644EA0302FB6950
:10138000DA61FA69D3696FF3CF33D361FB691B6A02
:1013900023F03F023B6901331A43FB691A62FA6981
:1013A00093686FF3CF339360FB699B6823F0FE0271
:1013B0007B685B7A5B001A43FB699A60FA69136881
:1013C00043F480631360FA6913686FF3C713136003
:1013D000FA69136843F00103136000BF2437BD4668
:1013E000BDE8908320C5000840420F000054004033
:1013F0000058004080B487B000AFF8607A601A46A9
:101400000B46FB721346BB72FB681B79002B01D1A4
:101410003B4B00E03B4B7B6197F82030022B03D025
:1014200097F82030032B30D1374B1B78012B0ED08F
:1014300097F82030022B07D100BF7B699B69C3F36B
:101440004003DBB2002BF8D12F4B01221A707A69CE
:10145000136843F48073136000BF7B695B69C3F357
:101460000003DBB2002BF8D0FB7A5B001A46BB7A94
:101470001A437B691A6100BF7B695B69C3F3400350
:10148000DBB2002BF8D07B699B69BB7A002B15D1AE
:1014900000BF7B695B69C3F3C013DBB2002BF8D0DC
:1014A0007B681B781A467B691A6100BF7B695B69A0
:1014B000C3F3C013DBB2002BF8D00CE000BF7B6994
:1014C0005B69C3F38013DBB2002BF8D07B691B6927
:1014D000DAB27B681A7097F82030012B03D097F8A6
:1014E0002030032B07D1084B00221A707A69136849
:1014F00043F40073136000BF1C37BD4680BC7047C7
:101500000054004000580040500B002080B582B0CD
:1015100000AF00F00AF80346FB71FB79582BF8D0B6
:10152000FB7918460837BD4680BD80B582B000AF54
:1015300058237B710023FB7139E0FB79204AD35C8F
:10154000002219460120FFF797FD0023BB7120E020
:10155000BB791C4AD35C19460120FFF753FD0346B3
:10156000002B13D1BA79FB79174992000A4413442E
:101570001B787B7100BFBB79124AD35C19460120EE
:10158000FFF740FD0346002BF5D005E0BB790133A2
:10159000BB71BB79032BDBD9FB79094AD35C0122F0
:1015A00019460120FFF768FDFB790133FB71FB79D8
:1015B000032BC2D97B7918460837BD4680BD00BFD2
:1015C00034000020380000202400002080B582B0C4
:1015D00000AF08237B710023BB710023FB710AE07D
:1015E000FB79174AD35C3B7179680120FFF788FCCF
:1015F000FB790133FB71FB79032BF1D900237B715C
:101600000123BB710023FB7112E0FB790D4AD35C0F
:101610003B7179680120FFF773FCFB79094AD35CC1
:10162000012219460120FFF727FDFB790133FB71E9
:10163000FB79032BE9D900BF00BF0837BD4680BD49
:10164000380000203400002080B58CB000AF034685
:10165000FB71574B1B68BB6000220B210020FFF77A
:101660000BFD00220A210020FFF706FD002387F86A
:101670002F3018E097F82F3030333B4413F8281CF4
:10168000FA7997F82F30043342FA03F3DBB203F010
:101690000103DBB21A460020FFF7EEFC97F82F306B
:1016A000013387F82F3097F82F30032BE2D901222E
:1016B0000C210020FFF7E0FC0023BB620BE00023BD
:1016C0007B6202E07B6A01337B627B6AFE2BF9D985
:1016D000BB6A0133BB62BB6A042BF0D900220C2128
:1016E0000020FFF7C9FC00233B620BE00023FB61F5
:1016F00002E0FB690133FB61FB69FE2BF9D93B6A10
:1017000001333B623B6A012BF0D9002387F82F306D
:1017100017E097F82F3030333B4413F8281CFA7940
:1017200097F82F3042FA03F3DBB203F00103DBB288
:101730001A460020FFF7A0FC97F82F30013387F8F6
:101740002F3097F82F30032BE3D901220C210020F2
:10175000FFF792FC0023BB610BE000237B6102E0FA
:101760007B6901337B617B69FE2BF9D9BB6901334E
:10177000BB61BB69042BF0D900220C210020FFF7CC
:101780007BFC00233B610BE00023FB6002E0FB6875
:101790000133FB60FB68FE2BF9D93B6901333B61E8
:1017A0003B69012BF0D900BF00BF3037BD4680BD7B
:1017B00024C5000880B586B000AF294B1B68BB600C
:1017C00000237B710123BB710A233B7179680020E0
:1017D000FFF796FB0B233B7179680020FFF790FB26
:1017E0000C233B7179680020FFF78AFB00220C2153
:1017F0000020FFF741FC0023FB750CE0FB7D183354
:101800003B4413F8103C3B7179680020FFF778FBEC
:10181000FB7D0133FB75FB7D032BEFD900233B617F
:101820000BE00023FB6002E0FB680133FB60FB6818
:10183000FE2BF9D93B6901333B613B69272BF0D97A
:101840000220FFF701FF2820FFF7FEFE0C20FFF724
:10185000FBFE0620FFF7F8FE00BF1837BD4680BD2F
:1018600024C5000880B58EB000AF0346FB71604B05
:101870001B68BB6000233B630BE00023FB6202E0BC
:10188000FB6A0133FB62FB6AFE2BF9D93B6B013328
:101890003B633B6B312BF0D900220B210020FFF77B
:1018A000EBFB01220A210020FFF7E6FB002387F86B
:1018B000373018E097F8373038333B4413F8301C92
:1018C000FA7997F83730043342FA03F3DBB203F0C6
:1018D0000103DBB21A460020FFF7CEFB97F8373042
:1018E000013387F8373097F83730032BE2D90122DC
:1018F0000C210020FFF7C0FB0023BB620BE000239C
:101900007B6202E07B6A01337B627B6AFE2BF9D942
:10191000BB6A0133BB62BB6A042BF0D900220C21E5
:101920000020FFF7A9FB00233B620BE00023FB61D3
:1019300002E0FB690133FB61FB69FE2BF9D93B6ACD
:1019400001333B623B6A012BF0D9002387F8373023
:1019500017E097F8373038333B4413F8301CFA79E6
:1019600097F8373042FA03F3DBB203F00103DBB23E
:101970001A460020FFF780FB97F83730013387F8CD
:10198000373097F83730032BE3D901220C210020A0
:10199000FFF772FB0023BB610BE000237B6102E0D9
:1019A0007B6901337B617B69FE2BF9D9BB6901330C
:1019B000BB61BB69042BF0D900220C210020FFF78A
:1019C0005BFB00233B610BE00023FB6002E0FB6854
:1019D0000133FB60FB68FE2BF9D93B6901333B61A6
:1019E0003B69012BF0D900BF00BF3837BD4680BD31
:1019F00024C5000880B485B000AF7860396000234A
:101A0000FB737B68002B22D1FB7B5A1CFA731A46AE
:101A10003B68134430221A701CE07968344BA3FBF6
:101A20000123DA0813469B0013445B00CA1AD2B2A2
:101A3000FB7B39680B443032D2B21A70FB7B013326
:101A4000FB737B682A4AA2FB0323DB087B607B686D
:101A5000002BE2D1FB7B3A68134400221A7000236A
:101A6000BB7338E0BB7B3A6813441978FA7BBB7BC5
:101A7000D31A013B3A6813441A78BB7B3868034495
:101A80004A40D2B21A70FA7BBB7BD31A013B3A6848
:101A900013441978BB7B3A6813441A78F87BBB7BF4
:101AA000C31A013B386803444A40D2B21A70BB7B68
:101AB0003A6813441978FA7BBB7BD31A013B3A6826
:101AC00013441A78BB7B386803444A40D2B21A7078
:101AD000BB7B0133BB73FB7B5B08DBB2BA7B9A42F7
:101AE000C0D300BF00BF1437BD4680BC704700BFE5
:101AF000CDCCCCCC80B584B000AF7860396078684C
:101B000002F0C0FD03469BB2184602F017FC0346E4
:101B10001946786802F05CFB0346184602F0B2FDF5
:101B200003469BB21A46920013441A4691001A4685
:101B30000B4613449B00BB810023FB731AE0BA8958
:101B4000474BA3FB0213D9080B469B000B445B00D9
:101B5000D31A9BB2DAB2FB7B39680B443032D2B273
:101B60001A70FB7B0133FB73BB893D4AA2FB032345
:101B7000DB08BB81BB89002BE1D1FB7B5A1CFA73CC
:101B80001A463B6813442E221A701CE0786802F053
:101B900079FD0146324BA3FB0123DA0813469B0073
:101BA00013445B00CA1AD2B2FB7B39680B44303253
:101BB000D2B21A70FB7B0133FB732A49786802F0BA
:101BC000C5FC03467B60786802F05CFD0346002B91
:101BD000DCD10023BB7338E0BB7B3A68134419782F
:101BE000FA7BBB7BD31A013B3A6813441A78BB7B60
:101BF000386803444A40D2B21A70FA7BBB7BD31ACE
:101C0000013B3A6813441978BB7B3A6813441A784D
:101C1000F87BBB7BC31A013B386803444A40D2B20D
:101C20001A70BB7B3A6813441978FA7BBB7BD31AD2
:101C3000013B3A6813441A78BB7B386803444A4036
:101C4000D2B21A70BB7B0133BB73FB7B5B08DBB288
:101C5000BA7B9A42C0D300BF00BF1037BD4680BDDB
:101C6000CDCCCCCC0000204180B584B000AF7860F2
:101C700007F1080319467868FFF73CFF07F10803EE
:101C8000184600F017F800BF1037BD4680BD80B57C
:101C900084B000AF786007F1080319467868FFF751
:101CA000A9FE07F10803184600F004F800BF10373A
:101CB000BD4680BD80B582B000AF786007E07B682C
:101CC0001B781846FFF7CEFD7B6801337B607B688D
:101CD0001B78002BF3D100BF00BF0837BD4680BD85
:101CE00080B584B000AF03460A46FB711346BB7152
:101CF000FB79002B01D0C02300E08023FB73FA7B2B
:101D0000BB791344DBB21846FFF79EFC00BF1037C7
:101D1000BD4680BD80B500AF0120FFF795FC00BF38
:101D200080BD00BF90B482B000AF03460A46FB718D
:101D30001346BB71BB79012B13D1164AFB795B09A2
:101D4000D8B2034652F82330FA7902F01F0201217B
:101D500001FA02F214460F4A0146234342F82130A9
:101D600013E00C4AFB795B09D8B20346203352F8E2
:101D70002330FA7902F01F02012101FA02F205492B
:101D80001A4300F1200341F8232000BF0837BD4665
:101D900090BC704700E100E080B485B000AF78608F
:101DA0000B46FB700123FB737B681B78002B1FD055
:101DB000FB78013BBB730FE0BB7B0133B87B7A68D8
:101DC0009B001344D3F80320796883000B44C3F8C5
:101DD0000320BB7B0133BB737B681B78BA7B9A42C1
:101DE000EAD37B681B78013BDAB27B681A7001E0AA
:101DF0000223FB73FB7B18461437BD4680BC70473B
:101E000080B485B000AF786039600123FB737B68D4
:101E10001B78072B1DD87B6893F9023001335A4297
:101E200003F0070302F0070258BF53425AB27B681F
:101E30009A707B6893F902307A689B0013443A6881
:101E4000C3F803207B681B780133DAB27B681A7011
:101E500001E00023FB73FB7B18461437BD4680BCB2
:101E6000704780B485B000AF786039600123FB73A0
:101E70007B681B78002B1ED07B6893F901307A6851
:101E80009B001344D3F803203B681A607B6893F9E6
:101E9000013001335A4203F0070302F0070258BF32
:101EA00053425AB27B685A707B681B78013BDAB2A6
:101EB0007B681A7001E00223FB73FB7B1846143722
:101EC000BD4680BC704780B485B000AF7860012308
:101ED000FB737B6800221A707B6800225A707B6853
:101EE000FF229A70FB7B18461437BD4680BC7047B2
:101EF00080B483B000AF78607B681B78002B0CBF88
:101F000001230023DBB25BB218460C37BD4680BC10
:101F1000704780B483B000AF78607B681B78082B73
:101F20000CBF01230023DBB25BB218460C37BD4661
:101F300080BC70472DE9F04F99B000AF964A4FF042
:101F40000003C7E91623954BDB6A1B0903F00F0357
:101F5000013300221846114602460B46D7E9160106
:101F600002F0B0FB02460B46C7E916238B4BDB6A37
:101F70001B0A03F00F03073B082B00F2048101A2A8
:101F800052F823F0A91F0008D71F000817200008E7
:101F900061200008A5200008E7200008872100082C
:101FA000212100083B210008D7E9164522462B468F
:101FB0004FF000004FF00001D90041EA5271D0000B
:101FC00002460B46111939656B417B65D7E914341C
:101FD000C7E91634D8E0D7E9164522462B464FF01C
:101FE00000004FF00001990041EA92719000024612
:101FF0000B461119B9646B41FB64D7E912120B4609
:10200000DB183B64134642EB03037B64D7E91034CF
:10201000C7E91634B8E0D7E9160102460B46941812
:10202000BC635B41FB63D7E90E2312EB000A43EB71
:10203000010B4FF000024FF000034FEA8B0343EA1D
:102040009A734FEA8A0292469B46BAEB00033B63BF
:102050006BEB01037B63D7E90C34C7E9163493E0DB
:10206000D7E9160102460B469418BC625B41FB623D
:10207000D7E90A2314183C624B417B624FF00002FF
:102080004FF00003D7E9084529468B002046294632
:10209000044643EA947301468A001C461346C7E986
:1020A000163471E0D7E9160102460B469618BE6158
:1020B0005B41FB61D7E90623141843EB01054FF0A0
:1020C00000024FF00003AB0043EA9473A2001446F1
:1020D0001D4623183B6145EB01037B61D7E90434BE
:1020E000C7E9163450E0D7E9164522462B464FF093
:1020F00000004FF00001D90041EA5271D0000246C1
:102100000B46B2EB040863EB050918EB0803BB6050
:1021100049EB0903FB60D7E90289C7E9168933E077
:10212000D7E916014FF000024FF000030B0143EA1C
:1021300010730201C7E9162326E0D7E916452246A7
:102140002B464FF000004FF00001990041EA9271D8
:10215000900002460B46111939606B417B604FF0CD
:1021600000024FF00003D7E9004529468B002046C6
:102170002946044643EA947301468A001C461346E6
:10218000C7E9163400E000BFD7E916231046194608
:102190006437BD46BDE8F08F001BB7000010024059
:1021A0002DE9F04F8DB000AF4FF000024FF000036B
:1021B000C7E90A23794B5B68C3F30043DBB2002B0A
:1021C00023D0764BDB6AC3F30043DBB2002B04D091
:1021D000FFF7B0FEC7E90A0104E0714A4FF00003BF
:1021E000C7E90A236D4BDB6A03F00F0301330022BA
:1021F0003B627A62D7E90823D7E90A0102F062FA62
:1022000002460B46C7E90A2304E0664A4FF0000382
:10221000C7E90A23614B5B689B0C03F00F03023B89
:102220000B2B00F2B18001A252F823F05D220008CE
:1022300077220008A5220008D32200080323000803
:102240001D2300088923000889230008892300082A
:10225000892300088923000847230008D7E90A01D9
:102260004FF000024FF000038B0043EA90738200AE
:10227000C7E90A2389E0D7E90A4522462B464FF0F1
:1022800000004FF00001990041EA9271900002466F
:102290000B461119B9616B41FB61D7E90634C7E9F7
:1022A0000A3472E0D7E90A0102460B4696183E61ED
:1022B0005B417B61D7E90423141843EB0105231923
:1022C000BB6045EB0503FB60D7E90245C7E90A455A
:1022D0005BE0D7E90A4522462B464FF000004FF05D
:1022E0000001D90041EA5271D00002460B46111B91
:1022F000396063EB05037B60D7E90034C7E90A3432
:1023000043E0D7E90A014FF000024FF00003CB0091
:1023100043EA5073C200C7E90A2336E0D7E90A4509
:1023200022462B464FF000004FF00001D90041EA51
:102330005271D00002460B4612EB040A43EB050B28
:10234000C7E90AAB21E0D7E90A4522462B464FF000
:1023500000004FF00001990141EA926190010246AC
:102360000B4612EB040843EB0509C7E90A89D7E9D4
:102370000A014FF00A024FF0000302F0A3F90246EF
:102380000B46C7E90A2300E000BFD7E90A2310463D
:1023900019463437BD46BDE8F08F00BF001002403B
:1023A000001BB70000093D0080B483B000AF0346B6
:1023B0000A46FB711346BB71BB79012B32D1FB7905
:1023C0005B09DBB2022B20D0022B61DC002B02D098
:1023D000012B0DD05CE0324B5B69FA7902F01F02F1
:1023E000012101FA02F211462D4A0B43536152E0DA
:1023F0002B4B9B69FA7902F01F02012101FA02F2CC
:102400001146274A0B43936145E0254BDB69FA7976
:1024100002F01F02012101FA02F21146204A0B4389
:10242000D36138E0FB795B09DBB2022B22D0022BAF
:1024300030DC002B02D0012B0ED02BE0184B5B6957
:10244000FA7902F01F02012101FA02F2D243114689
:10245000134A0B4053611EE0114B9B69FA7902F05D
:102460001F02012101FA02F2D24311460C4A0B402D
:10247000936110E00A4BDB69FA7902F01F02012137
:1024800001FA02F2D2431146054A0B40D36102E041
:1024900000BF00E000BF00BF0C37BD4680BC7047E6
:1024A0000010024080B582B000AF4FF000024FF044
:1024B0000003C7E90023134B5B6803F00303022BFF
:1024C00012D0022B15D8002B02D0012B06D010E021
:1024D0000D4A4FF00003C7E900230BE00B4A4FF011
:1024E0000003C7E9002305E0FFF75AFEC7E9000132
:1024F00000E000BFD7E90023104619460837BD4663
:1025000080BD00BF0010024000127A00001BB7001F
:10251000F0B583B000AFFFF7C5FFC7E90001134B6B
:102520005B68C3F3C013DBB2002B17D00F4B5B68A3
:102530001B0903F00703591CD7E90023C1F120064A
:10254000A1F1200022FA01F403FA06F6344323FA3B
:1025500000F0044323FA01F5C7E90045D7E9002359
:10256000104619460C37BD46F0BD00BF00100240B2
:10257000F0B583B000AFFFF7CBFFC7E90001134B05
:102580005B68C3F38023DBB2002B17D00F4B5B6873
:102590001B0A03F00303591CD7E90023C1F12006ED
:1025A000A1F1200022FA01F403FA06F6344323FADB
:1025B00000F0044323FA01F5C7E90045D7E90023F9
:1025C000104619460C37BD46F0BD00BF0010024052
:1025D000F0B583B000AFFFF79BFFC7E90001134BD5
:1025E0005B68C3F34033DBB2002B17D00F4B5B6843
:1025F000DB0A03F00303591CD7E90023C1F12006CD
:10260000A1F1200022FA01F403FA06F6344323FA7A
:1026100000F0044323FA01F5C7E90045D7E9002398
:10262000104619460C37BD46F0BD00BF00100240F1
:1026300080B485B000AF78600023FB730023FB7388
:102640000DE0FB7B0F4A2A2101FB03F313442033E7
:102650001B687A689A4209D0FB7B0133FB73094BF4
:1026600093F86431FA7B9A42EBD300E000BFFB7B26
:102670002A2202FB03F3034A134418461437BD46CB
:1026800080BC7047540B002080B485B000AF7860E8
:102690007B685B681A467B681A607B681B681A1F38
:1026A0007B681A607B681B684FF080721A607B68D9
:1026B0001B681A1F7B681A607B681A6A7B681B6834
:1026C0001A607B681B681A1F7B681A607B681B682E
:1026D0006FF002021A600023FB730BE07B681B683B
:1026E0001A1F7B681A607B681B6800221A60FB7BDC
:1026F0000133FB73FB7B0C2BF0D900BF00BF1437F9
:10270000BD4680BC704780B400AF0C4A0C4BC3F888
:102710005C210B4BD3F85C31A3F58063084AC2F807
:102720006031074BD3F86031083B1A46044BC3F8BD
:10273000582100BFBD4680BC704700BF005000203C
:10274000540B002080B500AF044B1B68002B02D057
:10275000024B1B68984720BFF6E700BFE00C002043
:1027600080B483B000AF78607B68002B02D0044A4D
:102770007B68136000BF0C37BD4680BC704700BF4C
:10278000E00C002080B582B000AF00237B601348CE
:10279000FFF74EFF7860124A7B68C2F850317868C4
:1027A00000F01EFC0E4B012283F867214FF4FA5013
:1027B00000F0B8F90A4BD3F850311B6883F309884D
:1027C000EFF3148040F0020080F31488EFF31480DC
:1027D00040F0010080F31488FFF7B4FF452700089C
:1027E000540B002084B0B0B500AF07F1100484E8AA
:1027F0000F00364B93F864311946344A2A2301FB03
:1028000003F3134408331D4607F110040FCC28606E
:102810006960AA60EB6007CC28616961AA612B4BF3
:10282000D3F85821294B93F8643118461146274AAA
:102830002A2300FB03F3134404331960234BD3F81A
:102840005821224B93F86431184620492A2300FB73
:1028500003F30B441C3319681D4B5B1A9B00134494
:102860001A4AC2F85831194B93F864311A462A2390
:1028700002FB03F3154A13441846FFF705FF134BF9
:1028800093F864311946114A2A2301FB03F31344D8
:10289000243300221A700D4B93F8643119460B4A09
:1028A0002A2301FB03F31344253300221A70074B3C
:1028B00093F864310133DAB2044B83F8642100BF2A
:1028C000BD46BDE8B04004B0704700BF540B0020C7
:1028D000F8FFFF3FB0B58CB004AF134B3C1D1D4655
:1028E0000FCD0FC495E8070084E807000F4B0022C6
:1028F00083F864210D4B002283F8672100F02CF946
:10290000FFF701FF0A48FFF7DEFA6C4607F11403F0
:1029100093E8070084E807003B1D0FCBFFF762FF39
:1029200000BF2037BD46B0BD28C50008540B0020AD
:10293000BC0C002080B582B000AF78607B681B695A
:10294000002B06D10E4BD3F850311A6A7B681A61FE
:1029500012E07B685B69002B0ED1094BD3F8503134
:102960001A6A7B685A61064BD3F85031002283F80B
:102970002420012000F01AFB00BF0837BD4680BDAF
:10298000540B002080B582B000AF78607B685B6933
:10299000002B20D07B681A69114BD3F850311B6A89
:1029A0009A4218D17B685A697B681A617B68002259
:1029B0005A617B681B691846FFF73AFE03460222FC
:1029C00083F82420064BD3F85031022283F82420C8
:1029D000002000F0EBFA00BF0837BD4680BD00BF05
:1029E000540B002084B080B582B000AF07F1100C0A
:1029F0008CE80F0000237B60BB6A1846FFF718FEC7
:102A00007860084BD3F85031022283F8242078688C
:102A100000F0E6FA00BF0837BD46BDE8804004B0CC
:102A2000704700BF540B002084B080B500AF07F1A1
:102A3000080C8CE80F000A4BD3F85031022283F8BF
:102A400024203B6A1846FFF7F3FD0346184600F0C2
:102A5000D6FA00BFBD46BDE8804004B0704700BF55
:102A6000540B002080B582B000AF78600C4BD3F8D7
:102A70005031012283F82520094BD3F850317A6870
:102A8000013AC3F82620064BD3F85031002283F8D0
:102A90002420012000F08AFA00BF0837BD4680BD1F
:102AA000540B002080B400AFFEE780B400AFFEE717
:102AB00080B400AFFEE780B400AFFEE780B400AFA3
:102AC000FEE71EF0040F0CBFEFF30880EFF3098060
:102AD00000F0D4B900BF80B483B000AF7860396033
:102AE0007B68B3F1FF3F09D10D4B1B6A23F07F4296
:102AF0003B681B070A4913430B620CE07B6813F128
:102B0000020F08D1064B1B6A23F47F023B681B05AA
:102B1000034913430B6200BF0C37BD4680BC7047AE
:102B200000ED00E080B582B000AF7860094A7B68B4
:102B3000013B5360074B00229A600F214FF0FF309A
:102B4000FFF7C9FF034B07221A6000BF0837BD46D5
:102B500080BD00BF10E000E080B500AF0F216FF036
:102B60000100FFF7B8FF0E4B1B680D4A43F001034D
:102B700013600B4B1B680A4A23F0847323F48033E1
:102B80001360074B5A680649064B13404B60044BD1
:102B900000221A61024B0022DA6000BF80BD00BF34
:102BA000001002400000FFF880B582B000AF0023A3
:102BB000FB7145E0FB79284A2A2101FB03F313440A
:102BC00025331B78012B38D1FB79234A2A2101FBBD
:102BD00003F313442033D3F80630012B1BD1FB79C8
:102BE0001D4A2A2101FB03F31344243302221A70E5
:102BF000FB79194A2A2101FB03F3134425330022F0
:102C00001A70154BD3F85031022283F82420022089
:102C100000F0CCF911E0FB790F492A2203FB02F204
:102C20000A442032D2F80620013A0B492A2000FB40
:102C300003F30B442033C3F80620FB790133FB7107
:102C4000054B93F86431FA799A42B3D300BF00BFC1
:102C50000837BD4680BD00BF540B0020F0B58DB0D5
:102C600000AF574B93F86431013BDBB287F82E304D
:102C70009BE0012387F82F30002387F82D3082E076
:102C800097F92D304E4A2A2101FB03F313440833F0
:102C90001A7897F92D30013349492A2000FB03F3B4
:102CA0000B4408331B789A4266D997F92D30444A71
:102CB0002A2101FB03F313441C463E4604F1200C79
:102CC00035462346186859689A68DB680FC5103482
:102CD00010366445F4D1334622461068516803C368
:102CE00012891A8097F92D30013397F92D20344934
:102CF0002A2000FB02F28818314A2A2101FB03F343
:102D0000134403F1200402461946D1F800C04E686E
:102D10008D68C968C2F800C056609560D1601033F4
:102D20001030A342EFD10246186859681060516014
:102D30001B89138197F92D300133214A2A2101FB88
:102D400003F313443C469C4604F1200E6546264698
:102D50000FCE28606960AA60EB6010340CF1100C93
:102D60007445F3D16246234603CB106051601B8843
:102D70001381002387F82F3097F92D30DBB2013310
:102D8000DBB287F82D3097F92D2097F92E309A4233
:102D9000FFF676AF97F92F30002B0CD197F92E3034
:102DA000DBB2013BDBB287F82E3097F92E30002BD7
:102DB000BFF65FAF00E000BF00BF3437BD46F0BDD7
:102DC000540B002080B500AF294BD3F8503193F855
:102DD0002430002B17D0274B1B78002B13D1244B0A
:102DE000D3F85031012283F82420214BD3F85031FD
:102DF00019462048FFF704F81D4BD3F850311C4A00
:102E0000C2F8543131E01C491A48FFF72AF8184B30
:102E1000D3F85431012283F82420154BD3F85031D4
:102E20001A7A134BD3F854311B7A9A421DD1104BA6
:102E3000D3F8503193F82430002B16D00C4BD3F834
:102E400050311A6A0A4BD3F854311B6A9A420CD09B
:102E5000074BD3F8503119460648FEF7D1FF044B13
:102E6000D3F85031032283F8242000BF80BD00BF77
:102E7000540B0020BC0C0020A80C002080B582B0B0
:102E800000AF78607B6818331B68023B1B78012B0E
:102E900002DC002B03DA18E0022B12D015E000F060
:102EA0001FF80C4B93F86731012B0DD10A4B1B68AF
:102EB0009847FFF787FF094A536843F080535360F0
:102EC00002E000F00DF800E000BF00BF0837BD468B
:102ED00080BD00BF540B0020E40C002000ED00E09A
:102EE00080B582B000AF00233B600023FB71FF235D
:102EF000BB71FFF7B3FE00BF3B4619462948FEF7FA
:102F0000B0FF0346012BF7D00023FB713DE0FB79B6
:102F1000254A2A2101FB03F3134424331B78002B99
:102F200030D0FB79204A2A2101FB03F313442433D8
:102F30001B78012B26D0FB791B4A2A2101FB03F3C6
:102F4000134408331B78BA799A4225D3FB79164A81
:102F50002A2101FB03F3134408331B78BB71FB796F
:102F60002A2202FB03F3104A134419460D48FEF7C8
:102F700047FFFB790C4A2A2101FB03F31344243356
:102F800003221A70FB790133FB71074B93F864310C
:102F9000FA799A42BBD300E000BF00BF0837BD46B4
:102FA00080BD00BFBC0C0020540B002080B483B057
:102FB00000AF0346FB71FB79022B0AD0022B0ADC1F
:102FC000002B02D0012B02D005E000DF03E001DF7F
:102FD00001E002DF00BF00BF0C37BD4680BC704778
:102FE00080B582B000AF78607B68022283F824202D
:102FF0000020FFF7DBFF00BF0837BD4680BD80B56E
:1030000082B000AF78607B68002283F82420012022
:10301000FFF7CCFF00BF0837BD4680BD80B483B04A
:1030200000AF78607B68002B02D0044A7B68136095
:1030300000BF0C37BD4680BC704700BFE40C0020C9
:1030400080B500AFFFF7B0FDFFF7BCFE0A4BD3F829
:103050005021094BD3F854319A420BD0074B1B68CF
:10306000002B02D0054B1B689847054A536843F074
:103070008053536000BF80BD540B0020E40C00203F
:1030800000ED00E06F4BD3F85031EFF309821A6086
:103090006C4BD3F850311868A0F104001860694BEC
:1030A000D3F850311B681C60664BD3F85031186858
:1030B000A0F104001860634BD3F850311B681D6009
:1030C000604BD3F850311868A0F1040018605D4BD4
:1030D000D3F850311B681E605A4BD3F85031186832
:1030E000A0F104001860574BD3F850311B681F60E3
:1030F000544BD3F850311868A0F104001860514BBC
:10310000D3F850311B68C3F800804E4BD3F85031D0
:103110001868A0F1040018604A4BD3F850311B68BE
:10312000C3F80090474BD3F850311868A0F1040061
:103130001860444BD3F850311B68C3F800A0414BD2
:10314000D3F850311868A0F1040018603D4BD3F853
:1031500050311B68C3F800B03B4B3C4A186800284C
:1031600003D010604FF000011960364BD3F8503196
:103170001B68D3F800B0334BD3F85031186800F116
:10318000040018602F4BD3F850311B68D3F800A00F
:103190002C4BD3F85031186800F104001860294B0B
:1031A000D3F850311B68D3F80090264BD3F8503138
:1031B000186800F104001860224BD3F850311B68E6
:1031C000D3F800801F4BD3F85031186800F1040089
:1031D00018601C4BD3F850311B681F68194BD3F88B
:1031E0005031186800F104001860164BD3F85031C4
:1031F0001B681E68134BD3F85031186800F10400A7
:103200001860104BD3F850311B681D680D4BD3F874
:103210005031186800F1040018600A4BD3F850319F
:103220001B681C68074BD3F85031186800F1040084
:103230001860044BD3F850311B6883F3098870473A
:1032400000BF00BF540B0020A80C0020A40C0020DD
:1032500080B485B000AF786039607B681B79332B10
:103260000CD0332B0DDC232B02D0242B03D008E011
:10327000174BFB6005E0174BFB6002E0164BFB6051
:1032800000BF7B68DB7A002B07D100BFFB689B681F
:10329000C3F34003DBB2002BF8D03B681B881A460F
:1032A000FB68DA607B68DB7A002B07D100BFFB6824
:1032B0009B68C3F30003DBB2002BF8D0FB68DB682C
:1032C0009AB23B681A8000BF1437BD4680BC704775
:1032D0000030014000380040003C004080B485B020
:1032E00000AF78600B467B807B681B79332B0CD05A
:1032F000332B0DDC232B02D0242B03D008E00C4B06
:10330000FB6005E00B4BFB6002E00B4BFB6000BF7A
:1033100000BFFB689B68C3F34003DBB2002BF8D00F
:103320007A88FB68DA6000BF1437BD4680BC7047FE
:103330000030014000380040003C004080B485B0BF
:1033400000AF786039607B681B79332B0CD0332B4E
:103350000DDC232B02D0242B03D008E00D4BFB60A7
:1033600005E00D4BFB6002E00C4BFB6000BF00BFB3
:10337000FB689B68C3F30003DBB2002BF8D0FB684B
:10338000DB689AB23B681A8000BF1437BD4680BC28
:10339000704700BF0030014000380040003C004052
:1033A00080B588B000AF786000233B610023FB60EC
:1033B0007B681B79332B30D0332B43DC232B02D09B
:1033C000242B15D03EE00023FB750423FB76052358
:1033D000BB7606237B7607233B767B681B68A84A6F
:1033E0001360A84BFB6101212C20FEF7DDFF29E0D3
:1033F0000123FB750C23FB760D23BB760E237B7616
:103400000F233B767B681B689D4A53609E4BFB6194
:1034100001214E20FEF7C8FF14E00123FB750C23A9
:10342000FB760323BB7604237B7605233B767B6800
:103430001B68934A9360954BFB6101214F20FEF777
:10344000B3FF00BF7B681B7B002B0BD10023BB7538
:1034500004237B75FB7E3B75FB7D79691846FDF780
:103460004FFD0EE07B681B7B012B0AD10123BB754E
:1034700000237B75FB7E3B75FB7D79691846FDF764
:103480003FFD7B685B79012B0BD10123BB750823C2
:103490007B75BB7E3B75FB7D79691846FDF730FD7A
:1034A0000AE00023BB7504237B75BB7E3B75FB7D67
:1034B00079691846FDF724FD7B685B79012B0BD1F8
:1034C0000023BB7504237B757B7E3B75FB7D79698F
:1034D0001846FDF715FD0AE00123BB7508237B752F
:1034E0007B7E3B75FB7D79691846FDF709FD7B689E
:1034F0005B79012B0BD10123BB7508237B753B7EC8
:103500003B75FB7D79691846FDF7FAFC0AE000235C
:10351000BB7504237B753B7E3B75FB7D7969184643
:10352000FDF7EEFC3B6943F040033B617B685B7950
:1035300003F00103DAB23B6962F382033B617B680B
:103540009B7903F00103DAB23B6962F38A233B61A2
:103550007B689B795B08DBB203F00103DAB23B695D
:1035600062F38E333B617B689B799B08DBB203F08F
:103570000103DAB23B6962F3CF333B617B68DB79ED
:1035800003F00103DAB23B6962F3C7133B617B6866
:103590001B7A03F00103DAB23B6962F3CB233B6190
:1035A0007B685B7A03F00103DAB23B6962F30003E4
:1035B0003B617B685B7A5B08DBB203F00103DAB244
:1035C0003B6962F341033B617B681B7B03F00103B2
:1035D000DAB2FB6862F38203FB607B681B7B5B08EB
:1035E000DBB203F00103DAB23B6962F308233B610B
:1035F0007B681B7B9B08DBB203F00103DAB23B69FB
:1036000062F349233B613B6923F038027B689B7A74
:10361000DB0013433B617B681B7901211846FEF7F1
:1036200081FB7B68DB7A022B1AD0022B1DDC002B7E
:1036300002D0012B0FD018E0FB686FF3C713FB60BB
:10364000FB686FF38613FB607B681B7900211846CB
:10365000FEF768FB09E0FB6843F04003FB6004E011
:10366000FB6843F08003FB6000BFFB693A691A60A6
:10367000FB69FA685A6000BF2037BD4680BD00BFB5
:10368000E80C00200030014000380040003C0040C1
:1036900080B500AF024B1B68984700BF80BD00BFDC
:1036A000E80C002080B500AF024B5B68984700BF74
:1036B00080BD00BFE80C002080B500AF024B9B68C6
:1036C000984700BF80BD00BFE80C002080B584B0E3
:1036D00000AF786000237B730123BB737B689B7A08
:1036E0003B737B681B78F9681846FDF709FC0023DB
:1036F000FB730DE0FB7B7A6813449B783B737B681C
:103700001B78F9681846FDF7FBFBFB7B0133FB7365
:10371000FB7B072BEED900BF00BF1037BD4680BD35
:1037200080B584B000AFF860B9601346FB71FB68E8
:103730009A78BB689B789A423BD1FB681A78BB6841
:103740001B789A4235D1FA79294BA3FB0213D90889
:103750000B469B000B445B00D31ADBB21946F8689A
:1037600000F048F8FB681878FB68997AFB685B788A
:10377000012B0CBF01230023DBB21A46FDF77CFCB2
:10378000FB791B4AA2FB0323DB08DBB21946B868AE
:1037900000F030F8BB681878BB68997ABB685B7832
:1037A000012B0CBF01230023DBB21A46FDF764FC9A
:1037B00019E0FA790E4BA3FB0213D9080B469B00C4
:1037C0000B445B00D31ADBB21946F86800F012F81C
:1037D000FB79074AA2FB0323DB08DBB21946B86872
:1037E00000F008F800BF00BF1037BD4680BD00BF25
:1037F000CDCCCCCC80B584B000AF78600B46FB70EC
:103800007B685B78002B25D07B6818787B689B7A77
:1038100000221946FDF730FC0023FB7316E07B689D
:103820001878FB7B7A6813449978FB781F4AD35C3D
:103830001A46FB7B42FA03F3DBB203F00103DBB26F
:103840001A46FDF719FCFB7B0133FB73FB7B072B4F
:10385000E5D927E07B6818787B689B7A01221946B6
:10386000FDF70AFC0023FB7319E07B681878FB7BEB
:103870007A6813449978FB780C4AD35C1A46FB7B30
:1038800042FA03F303F00103002B0CBF01230023D2
:10389000DBB21A46FDF7F0FBFB7B0133FB73FB7BCE
:1038A000072BE2D900BF1037BD4680BD3C00002089
:1038B0004CC9000800000020FC090020FC09002081
:1038C000400D002080B400AF154B1B68144A43F034
:1038D00001031360124B5A681149124B13404B609D
:1038E0000F4B1B680E4A23F0847323F4803313605C
:1038F0000B4B1B680A4A23F480231360084B5B6858
:10390000074A23F4FE035360054B4FF41F029A60ED
:10391000054B4FF000629A6000BFBD4680BC704707
:10392000001002400000FFF800ED00E080B485B018
:1039300000AF0023FB600023BB6000237B602F4BA4
:103940005B6803F00C03FB60FB68082B11D0FB687D
:10395000082B3AD8FB68002B03D0FB68042B04D05B
:1039600033E0274B274A1A6033E0254B254A1A607B
:103970002FE0224B5B6803F47013BB601F4B5B6846
:1039800003F480337B60BB689B0C0233BB607B68B5
:10399000002B06D1BB681C4A02FB03F3184A1360D4
:1039A00017E0164B5B6803F40033002B06D0BB68AE
:1039B000154A02FB03F3124A13600AE0BB68114A7E
:1039C00002FB03F30E4A136003E00D4B0D4A1A602D
:1039D00000BF0A4B5B681B0903F00F030B4AD35C63
:1039E000FB60074B1A68FB6822FA03F3044A136072
:1039F00000BF1437BD4680BC704700BF00100240B6
:103A00004800002000127A0000093D0044C500086B
:103A100080B584B000AFF860B9601346FB710BE06D
:103A2000FB79013BFB71FB79BA6813441B789BB2AD
:103A30001946F86800F0AAF9FB79002BF0D100BF15
:103A400000BF1037BD4680BD80B582B000AF786042
:103A500039603B681B789BB21946786800F096F98C
:103A60003B6801333B603B681B78002BF1D13B681E
:103A70001B789BB21946786800F088F900BF0837B8
:103A8000BD4680BD2DE9F04F8FB000AF78610023B7
:103A900087F83730B84A07F11C03126811461980BD
:103AA0000233120C1A70092387F836300A2387F87C
:103AB00035300B2387F834300C2387F8333000235C
:103AC000FB624FF000024FF00003C7E908237B6957
:103AD0001B79272B3AD0272B52DC252B02D0262B03
:103AE0001AD04DE0002387F83730092387F83630A5
:103AF0000A2387F835300B2387F834300C2387F8F6
:103B00003330FEF765FDC7E9080101212E20FEF7DD
:103B10004BFC9A4BFB6233E0002387F837300223DB
:103B200087F83630032387F83530002387F83430A0
:103B3000012387F83330FEF71BFDC7E90801012197
:103B40005120FEF731FC8E4BFB6219E0012387F810
:103B500037300A2387F836300B2387F835300D23AA
:103B600087F834300E2387F83330FEF701FDC7E9BC
:103B7000080101215220FEF717FC824BFB6200BFB7
:103B800097F836303B7797F83730F9691846FDF7E4
:103B9000B7F97B69DB79002B15D097F833303B7789
:103BA00097F83730F9691846FDF7AAF90023BB7773
:103BB00004237B7797F834303B7797F83730F969EF
:103BC0001846FDF79DF997F835303B770023BB7712
:103BD00004237B7797F83730F9691846FDF790F999
:103BE000FA6AD36843F40053D3607B691B7A03F00D
:103BF0000103D9B2FA6AD36861F30C33D360FB6A6C
:103C00001B6923F440527B695B7A1B031A43FB6AEE
:103C10001A61FB6ADB6823F00C027B699B799B00CD
:103C20001A43FB6ADA60FB6ADB6823F4C0627B69D3
:103C30005B795B021A43FB6ADA607B69DB7903F02C
:103C40000103D9B2FA6AD36861F30823D3607B69B0
:103C5000DB7903F00103D9B2FA6AD36861F349232F
:103C6000D360D7E9080102460B4696183E605B41D7
:103C70007B60D7E90023141843EB01054FF00002E5
:103C80004FF00003EB0043EA5473E20014461D4674
:103C900014EB000A45EB010B7B69D3F80A309B005B
:103CA0000022BB60FA60D7E902235046594600F073
:103CB00009FD02460B46C7E90823D7E908014FF082
:103CC00064024FF0000300F0FDFC02460B464FF08B
:103CD00000044FF000051D0145EA12751401D7E9F3
:103CE00008014FF064024FF0000300F0EBFC4FF0CE
:103CF00000004FF00001990041EA927190004FF0EE
:103D000019024FF0000300F0DDFC02460B4644EAC6
:103D1000020845EA0309C7E90889FB6A9B681B0C8E
:103D20001B043A8C1A43FB6A9A607B691B79253B1A
:103D30007A691268144941F82320FA6A13686FF30C
:103D4000861313607B699B7B002B09D0FB6ADB68C1
:103D50007A69927B114601228A401A43FB6ADA6033
:103D60007B691B7901211846FDF7DCFF00BF3C375A
:103D7000BD46BDE8F08F00BF5CC5000800380140BB
:103D80000044004000480040F40C002080B485B09E
:103D900000AF78600B467B800023FB607B681B795B
:103DA000272B0CD0272B0DDC252B02D0262B03D064
:103DB00008E0134BFB6005E0124BFB6002E0124B86
:103DC000FB6000BF00BFFB681B68C3F3C013DBB21E
:103DD000002BF8D07B681B7A002B02D040F2FF1238
:103DE00000E0FF22B7F9023013401BB27B807A88D3
:103DF000FB685A6000BF1437BD4680BC704700BFE7
:103E000000380140004400400048004080B485B0C4
:103E100000AF78600023FB6000237B817B681B7907
:103E2000272B0CD0272B0DDC252B02D0262B03D0E3
:103E300008E0284BFB6005E0274BFB6002E0274BC6
:103E4000FB6000BF00BFFB681B68C3F34013DBB21D
:103E5000002BF8D07B681B7A012B0AD17B685B7939
:103E6000002B06D1FB685B689BB2C3F308037B8120
:103E700029E07B681B7A012B09D17B685B79002BD9
:103E800005D0FB685B689BB2DBB27B811BE07B6883
:103E90001B7A002B09D17B685B79002B05D1FB686D
:103EA0005B689BB2DBB27B810DE07B681B7A002BE9
:103EB00009D17B685B79002B05D0FB685B689BB2FE
:103EC00003F07F037B817B8918461437BD4680BC95
:103ED000704700BF003801400044004000480040E7
:103EE00080B582B000AF0023FB80394BDB68C3F3A1
:103EF0004013DBB2002B5AD0354BDB68C3F30033E1
:103F0000DBB2012B0ED1324BDB685B0A03F00303FB
:103F1000002B07D12E4B5B689BB2C3F308039BB207
:103F2000FB803EE02A4BDB68C3F30033DBB2012B9E
:103F30000DD1274BDB685B0A03F00303002B06D08F
:103F4000234B5B689BB2DBB29BB2FB8029E0204B2A
:103F5000DB68C3F30033DBB2002B0DD11C4BDB68F5
:103F60005B0A03F00303002B06D1194B5B689BB27D
:103F7000DBB29BB2FB8014E0154BDB68C3F300336C
:103F8000DBB2002B0DD1124BDB685B0A03F003039D
:103F9000002B06D00E4B5B689BB203F07F039BB2F5
:103FA000FB800C4B1B68BA1D104698470BE0084B72
:103FB000DB68C3F38013DBB2002B04D0054B1B6816
:103FC000BA1D1046984700BF0837BD4680BD00BFE8
:103FD00000380140F40C002080B582B000AF00230F
:103FE000FB80394BDB68C3F34013DBB2002B5AD0A4
:103FF000354BDB68C3F30033DBB2012B0ED1324B00
:10400000DB685B0A03F00303002B07D12E4B5B68D0
:104010009BB2C3F308039BB2FB803EE02A4BDB68F4
:10402000C3F30033DBB2012B0DD1274BDB685B0AF6
:1040300003F00303002B06D0234B5B689BB2DBB27B
:104040009BB2FB8029E0204BDB68C3F30033DBB27B
:10405000002B0DD11C4BDB685B0A03F00303002B24
:1040600006D1194B5B689BB2DBB29BB2FB8014E0BC
:10407000154BDB68C3F30033DBB2002B0DD1124BC1
:10408000DB685B0A03F00303002B06D00E4B5B6872
:104090009BB203F07F039BB2FB800C4B1B68BA1DE5
:1040A000104698470BE0084BDB68C3F38013DBB284
:1040B000002B04D0054B1B68BA1D1046984700BF63
:1040C0000837BD4680BD00BF00440040F40C00200E
:1040D00080B582B000AF0023FB80394BDB68C3F3AF
:1040E0004013DBB2002B5AD0354BDB68C3F30033EF
:1040F000DBB2012B0ED1324BDB685B0A03F003030A
:10410000002B07D12E4B5B689BB2C3F308039BB215
:10411000FB803EE02A4BDB68C3F30033DBB2012BAC
:104120000DD1274BDB685B0A03F00303002B06D09D
:10413000234B5B689BB2DBB29BB2FB8029E0204B38
:10414000DB68C3F30033DBB2002B0DD11C4BDB6803
:104150005B0A03F00303002B06D1194B5B689BB28B
:10416000DBB29BB2FB8014E0154BDB68C3F300337A
:10417000DBB2002B0DD1124BDB685B0A03F00303AB
:10418000002B06D00E4B5B689BB203F07F039BB203
:10419000FB800C4B1B68BA1D104698470BE0084B80
:1041A000DB68C3F38013DBB2002B04D0054B1B6824
:1041B000BA1D1046984700BF0837BD4680BD00BFF6
:1041C00000480040F40C002080F0004002E000BFF6
:1041D00081F0004142001FBF5FEA410392EA030FF2
:1041E0007FEA226C7FEA236C6AD04FEA1262D2EB3C
:1041F0001363C1BFD218414048404140B8BF5B4241
:10420000192B88BF704710F0004F40F4000020F0D9
:104210007F4018BF404211F0004F41F4000121F0EF
:104220007F4118BF494292EA030F3FD0A2F1010239
:1042300041FA03FC10EB0C00C3F1200301FA03F177
:1042400000F0004302D5494260EB4000B0F5000F9A
:1042500013D3B0F1807F06D340084FEA310102F159
:104260000102FE2A51D2B1F1004F40EBC25008BF0B
:1042700020F0010040EA03007047490040EB0000D5
:10428000013A28BFB0F5000FEDD2B0FA80FCACF1D6
:10429000080CB2EB0C0200FA0CF0AABF00EBC25003
:1042A00052421843BCBFD0401843704792F0000FF1
:1042B00081F4000106BF80F400000132013BB5E744
:1042C0004FEA41037FEA226C18BF7FEA236C21D0BA
:1042D00092EA030F04D092F0000F08BF084670471F
:1042E00090EA010F1CBF0020704712F07F4F04D1ED
:1042F000400028BF40F00040704712F100723CBF00
:1043000000F50000704700F0004343F0FE4040F429
:10431000000070477FEA226216BF08467FEA2363E7
:104320000146420206BF5FEA412390EA010F40F4D2
:10433000800070474FF0000304E000BF10F000431E
:1043400048BF40425FEA000C08BF704743F0964305
:1043500001464FF000001CE050EA010208BF704720
:104360004FF000030AE000BF50EA010208BF7047A7
:1043700011F0004302D5404261EB41015FEA010CBC
:1043800002BF84460146002043F0B64308BFA3F1B4
:104390008053A3F50003BCFA8CF2083AA3EBC25396
:1043A00010DB01FA02FC634400FA02FCC2F12002B5
:1043B000BCF1004F20FA02F243EB020008BF20F0EC
:1043C0000100704702F1200201FA02FCC2F1200252
:1043D00050EA4C0021FA02F243EB020008BF20EA47
:1043E000DC7070474FF0FF0C1CEAD0521EBF1CEA75
:1043F000D15392EA0C0F93EA0C0F6FD01A4480EA63
:10440000010C400218BF5FEA41211ED04FF000634B
:1044100043EA501043EA5111A0FB01310CF0004077
:10442000B1F5000F3EBF490041EAD3715B0040EA9D
:10443000010062F17F02FD2A1DD8B3F1004F40EB6D
:10444000C25008BF20F00100704790F0000F0CF040
:10445000004C08BF49024CEA502040EA51207F3A04
:10446000C2BFD2F1FF0340EAC250704740F40000DF
:104470004FF00003013A5DDC12F1190FDCBF00F0D0
:1044800000407047C2F10002410021FA02F1C2F17E
:10449000200200FA02FC5FEA310040F1000053EA1A
:1044A0004C0308BF20EADC70704792F0000F00F068
:1044B000004C02BF400010F4000F013AF9D040EA6E
:1044C0000C0093F0000F01F0004C02BF490011F402
:1044D000000F013BF9D041EA0C018FE70CEAD15300
:1044E00092EA0C0F18BF93EA0C0F0AD030F0004C80
:1044F00018BF31F0004CD8D180EA010000F0004034
:10450000704790F0000F17BF90F0004F084691F0F1
:10451000000F91F0004F14D092EA0C0F01D142022B
:104520000FD193EA0C0F03D14B0218BF084608D1F4
:1045300080EA010000F0004040F0FE4040F400003E
:10454000704740F0FE4040F4400070474FF0FF0CD1
:104550001CEAD0521EBF1CEAD15392EA0C0F93EA18
:104560000C0F69D0A2EB030280EA010C49024FEA6A
:10457000402037D04FF0805343EA111143EA101323
:104580000CF000408B4238BF5B0042F17D024FF4DB
:10459000000C8B4224BF5B1A40EA0C00B3EB510FB6
:1045A00024BFA3EB510340EA5C00B3EB910F24BF9F
:1045B000A3EB910340EA9C00B3EBD10F24BFA3EB24
:1045C000D10340EADC001B0118BF5FEA1C1CE0D1EC
:1045D000FD2A3FF650AF8B4240EBC25008BF20F09F
:1045E000010070470CF0004C4CEA50207F32C2BFF3
:1045F000D2F1FF0340EAC250704740F400004FF090
:104600000003013A37E792F0000F00F0004C02BFC0
:10461000400010F4000F013AF9D040EA0C0093F08A
:10462000000F01F0004C02BF490011F4000F013BE4
:10463000F9D041EA0C0195E70CEAD15392EA0C0F4C
:1046400008D142027FF47DAF93EA0C0F7FF470AF84
:10465000084676E793EA0C0F04D14B023FF44CAFC7
:1046600008466EE730F0004C18BF31F0004CCAD15C
:1046700030F000427FF45CAF31F000437FF43CAF98
:104680005FE700BF42000ED2B2F1FE4F0BD34FF0F6
:104690009E03B3EB126209D44FEA002343F00043B8
:1046A00023FA02F070474FF00000704712F1610FDB
:1046B00001D1420202D14FF0FF3070474FF00000AD
:1046C000704700BF53B94AB9002908BF00281CBF72
:1046D0004FF0FF314FF0FF3000F076B9ADF1080C2C
:1046E0006DE904CE00F006F8DDF804E0DDE9022310
:1046F00004B070472DE9F047089E0D4604468846F1
:10470000002B4DD18A42944668D9B2FA82F252B156
:1047100001FA02F3C2F1200120FA01F10CFA02FCC5
:1047200041EA030894404FEA1C41B8FBF1F71FFA35
:104730008CFE01FB178807FB0EF0230C43EA0843AD
:1047400098420AD91CEB030307F1FF3580F01E8164
:10475000984240F21B81023F63441B1AB3FBF1F005
:1047600001FB103300FB0EFEA4B244EA0344A6454D
:104770000AD91CEB040400F1FF3380F00981A6453F
:1047800040F20681644402380021A4EB0E0440EAA2
:1047900007401EB10023D440C6E90043BDE8F087BE
:1047A0008B4208D9002E00F0EE800021C6E90005FA
:1047B0000846BDE8F087B3FA83F100294AD1AB423D
:1047C00002D3824200F2FC80841A65EB03030120CD
:1047D0009846002EE2D0C6E90048DFE702B9FFDEC6
:1047E000B2FA82F2002A40F09180A1EB0C00012184
:1047F0004FEA1C471FFA8CFEB0FBF7F307FB1300D0
:10480000250C45EA00450EFB03F0A84208D91CEB35
:10481000050503F1FF3802D2A84200F2CE804346DC
:104820002D1AB5FBF7F007FB10550EFB00FEA4B2E6
:1048300044EA0544A64508D91CEB040400F1FF3501
:1048400002D2A64500F2B6802846A4EB0E0440EA48
:1048500003409EE7C1F120078B4022FA07FC4CEA97
:10486000030C25FA07FA4FEA1C49BAFBF9F820FABB
:1048700007F309FB18AA8D401FFA8CFE1D4300FAAE
:1048800001F308FB0EF02C0C44EA0A44A04202FAA1
:1048900001F20BD91CEB040408F1FF3A80F0888088
:1048A000A04240F28580A8F102086444241AB4FBB7
:1048B000F9F009FB104400FB0EFEADB245EA0444DA
:1048C000A64508D91CEB040400F1FF356CD2A645BF
:1048D0006AD90238644440EA0840A0FB0295A4EB80
:1048E0000E04AC42C846AE4656D353D0002E69D013
:1048F000B3EB080264EB0E0422FA01F304FA07F7A3
:104900001F43CC40C6E90074002147E70CFA02FCC3
:10491000C2F1200125FA01F34FEA1C4720FA01F108
:1049200095400D43B3FBF7F107FB11331FFA8CFEE3
:10493000280C40EA034001FB0EF3834204FA02F420
:1049400008D91CEB000001F1FF382FD283422DD98A
:1049500002396044C01AB0FBF7F307FB1300ADB295
:1049600045EA004503FB0EF0A84208D91CEB0505FB
:1049700003F1FF3816D2A84214D9023B6544281A25
:1049800043EA014138E73146304607E72F46E4E67F
:104990001846F9E64B45A9D2B9EB020865EB0C0EB7
:1049A0000138A3E74346EAE7284694E74146D1E7C2
:1049B000D0467BE76444023847E7023B65442FE773
:1049C000084606E73146E9E6704700BF0023014686
:1049D0001A46184600F0CEB808B50021044600F08B
:1049E000FBF8044B1868C36B03B19847204607F0E7
:1049F00037FD00BF60C5000838B5084B084D5B1B8C
:104A00009C1007D0043B1D44013C55F804399847DD
:104A1000002CF9D1BDE8384007F05CBD4CC9000856
:104A200048C9000870B50D4E0D4D761BB61006D066
:104A3000002455F8043B01349847A642F9D1094EA9
:104A4000094D07F041FD761BB61006D0002455F83D
:104A5000043B01349847A642F9D170BD40C9000813
:104A600040C9000848C9000840C90008830730B59C
:104A700048D0541E002A3FD00346CAB201E0013C90
:104A80003AD303F8012B9D07F9D1032C2DD9CDB2D0
:104A900045EA05250F2C45EA054536D9A4F1100253
:104AA00022F00F0C03F1200EE6444FEA121C03F132
:104AB000100242E9045542E9025510327245F8D11C
:104AC0000CF1010214F00C0F03EB021204F00F0CB6
:104AD00013D0ACF1040323F003030433134442F86E
:104AE000045B9342FBD10CF003042CB1CAB21C440A
:104AF00003F8012B9C42FBD130BD64461346002CC9
:104B0000F4D1F9E703461446BFE71A46A446E0E7A6
:104B10008C4630B504466FF000451346084A9BB0FA
:104B20001068084A6946039262460595029500940A
:104B3000049400F0A9F80022009B1A701BB030BD4D
:104B4000500000200802FFFF30B50C466FF0004512
:104B500007499BB00391694605950295009404941A
:104B600000F092F80022009B1A701BB030BD00BF0D
:104B70000802FFFF70B5174C2568D5F84841DCB135
:104B800065681F2D23DC80B14FF0010C04EB850E0E
:104B9000CEF88820D4F888610CFA05F21643022872
:104BA000C4F88861CEF808310BD06B1C0235636005
:104BB000002044F8251070BD05F5A674C5F84841DD
:104BC000DEE7D4F88C311343C4F88C31EDE74FF0B5
:104BD000FF3070BD60C500082DE9F04F294B83B050
:104BE0001F680190D7F84861B6B18B464FF00108B5
:104BF0004FF000097468651E0ED4013406EB84047E
:104C0000BBF1000F0BD0D4F800315B4507D0013D5C
:104C10006B1CA4F10404F3D103B0BDE8F08F7368FA
:104C20002268013BAB420CBF7560C4F80090002ABB
:104C3000EDD0D6F8880108FA05F10142D6F804A0B3
:104C40000BD190477268524512D1D7F84831B34220
:104C5000DDD01E46002ECDD1DEE7D6F88C01014214
:104C60000BD1D4F880100198904772685245ECD06F
:104C7000D7F84861002EBDD1CEE7D4F88000904728
:104C8000E0E700BF60C500082DE9F04FBFB08846DF
:104C90009146CDE90D0302F03FFA036818461593DB
:104CA00003F0F0FAB8F80C301490180604D5D8F8D0
:104CB0001030002B00F0D08600232EAA1946924611
:104CC000CDE922332192129300220023CDE9102353
:104CD000139116910A9199F80030002B00F0808111
:104CE0004C4604E014F8013F002B00F0C780252B50
:104CF000F8D1B4EB090540F0C5802378002B00F013
:104D00006F8100234FF0FF3218469B466578099269
:104D100004F101098DF867300B9309F10109A5F140
:104D20002002582A00F2D580DFE812F04C02D300AE
:104D3000D3005202D300D300D300D300D300D3005A
:104D400000024702D3000A020F02D30042025900B8
:104D5000590059005900590059005900590059008B
:104D6000D300D300D300D300D300D300D300D300AB
:104D7000D300D30029026401D3006401D300D3001F
:104D8000D300D3005702D300D3007900D300D3005F
:104D9000D300D300D3006800D300D3006A02D3004D
:104DA000D300D300D300D300D300D300D300D3006B
:104DB000D3005C02C4016401640164018B02C4017C
:104DC000D300D3000003D300EA027B00CE02C90265
:104DD000D300A702D3006A00D300D30090020021C1
:104DE000A5F1300219F8015B01EB810102EB4101F1
:104DF000A5F13002092AF5D90B9190E74BF0100B81
:104E00001BF0200100F048810E9B073323F00703BD
:104E10001A4652F8080B59680E9201230FE04BF026
:104E2000100B1BF0200100F02A810E9B073323F0AA
:104E300007031A465968002352F8080B0E92002403
:104E40008DF86740099A561C00F07F822BF080068F
:104E5000079650EA010640F07682002A40F0FE8272
:104E6000002B40F007851BF001030C9300F09185A7
:104E700030230DF1B7068DF8B7308BE2B4EB09059E
:104E800000F0AE80239BCAE900952B442393229B1C
:104E90000133072B229305DC0AF1080A0A9B2B44F5
:104EA0000A932AE741460D9821AA03F019FA18B986
:104EB0000DF1B80AF2E7B046B8F80C3013F0400F25
:104EC0000A9B18BF4FF0FF330A930A983FB0BDE822
:104ED000F08F002B40F0CF87002D00F08180002361
:104EE0008DF8673001238DF89050089324AE0C9311
:104EF0000023CDF81CB009930F93079B13F0020316
:104F000002D0089A02320892079A12F0840B05D157
:104F10000B9A0899571A002F00F39583239C9DF84C
:104F2000672082B10122CAF80420229A013401329A
:104F30000DF16701072A23942292CAF8001000F3AA
:104F4000DA830AF1080A7BB10223CAF80430229BF3
:104F5000023401331AAA072B23942293CAF80020A3
:104F600000F3BD830AF1080ABBF1800F00F09282C2
:104F7000099B0C9AA3EB020BBBF1000F00F3CD824F
:104F8000079BDF0500F10F820C9BCAF800601C44F0
:104F9000CAF80430229B23940133072B229300F399
:104FA00046830AF1080A079B5B0705D50B9B089A05
:104FB0009D1A002D00F3AD83DDE90A3208998A427B
:104FC000ACBF9B185B180A93002C40F0E1820023D1
:104FD000229399F800300DF1B80A002B7FF480AECF
:104FE000239B002B3FF468AF41460D9821AA03F0A4
:104FF00077F961E7002B40F0EA870E9B073323F037
:105000000702F2E80234CDE91034DDE9103424F06F
:1050100000441E4618460E9221464FF0FF32B34B15
:1050200007F092F9002840F0B684304621464FF050
:10503000FF32AE4B07F06AF9002840F0AC84DDE99E
:1050400010010022002307F057F9002840F0EB86FA
:105050009DF86740032200212BF08003A44E0793A4
:10506000A44BCDE90821472DC8BF1E460C920F91D5
:10507000002C3FF442AF089B013308933DE71BF03F
:10508000100348D11BF0400145D00E9A194652F842
:10509000040B0E9280B2D2E61BF010030E9A40D1A0
:1050A0001BF040013DD052F8040B19460E9201232B
:1050B00080B2C4E6002B40F086871BF0200F0E9BC9
:1050C00066D0073323F007031A465B6852F8080BD3
:1050D00019460E92002BC0F23384099B013300F075
:1050E00070852BF08003079350EA01039DF8674019
:1050F00000F0BC83DDF81CB00A2871F1000380F0D9
:105100000185012330308DF8B700CDF81CB00C9329
:105110000DF1B7063EE10E9B53F8040B0E930B46C0
:105120008DE652F8040B01230E9288E60E9A52F88F
:10513000041B00290B910E9247DA0B9A52420B92F4
:1051400099F800504BF0040BE7E5494611F8015B74
:105150002A2D00F0C187A5F13002092A894698BF9F
:10516000002100F24F8719F8015B01EB810102EB8E
:105170004101A5F13002092AF5D90991CFE5002BAB
:1051800040F01A874BF0100B1BF0200F0E9B98D1AC
:1051900053F8040B1BF0100F0E9340F0CC831BF060
:1051A000400F00F0C88340F3C0310B4600B291E7D6
:1051B00099F800504BF0800BAFE501232B2099F8B4
:1051C0000050AAE5002800F02B8499F80050A4E5CF
:1051D00099F800504BF0010B9FE599F800504BF007
:1051E000080B9AE5002201210E9B8DF8672053F8E9
:1051F000042B08918DF890200E9324AE0C9177E645
:10520000002B40F0E8863C4B1BF02001139325D087
:105210000E9B073323F00703596853F8080B0E93CE
:105220001BF0010F0BD050EA010308D030238DF89A
:1052300069508DF868304BF0020B0223FFE5022322
:10524000FDE599F800504BF0400B66E5002B40F06F
:10525000AB862A4B1BF020011393D9D11BF010030E
:1052600040F064831BF0400100F060830E9A194601
:1052700052F8040B0E9280B2D2E700270E9C099BD5
:1052800054F8046B8DF86770002E00F0D3845A1C1C
:1052900000F01A841A463946304602F0EBF900282D
:1052A00000F07686831B0C9323EAE3730E94099730
:1052B0009DF86740CDF81CB008930F97D8E699F891
:1052C00000504BF0200B28E5302278250E9B8DF8FE
:1052D000682053F8040B094A0E93002102234BF077
:1052E000020B8DF869501392A9E500BFFFFFEF7F15
:1052F00018C800081CC800083CC8000828C80008D6
:10530000002B40F055861BF0200F40F08F831BF0E0
:10531000100F40F0E9831BF0400F00F0E5830E9B77
:105320000A9953F8042B11800E93D4E499F8005095
:105330006C2D03BF99F801504BF0200B09F10109C6
:105340004BF0100BE9E4DDF81CB0012B3FF4D4AEB8
:10535000022B00F08B802EAE00F00703C00840EA5D
:105360004170C908303350EA0107324606F8013D62
:10537000F2D11BF0010F00F08780302B00F0848009
:105380003023023A06F8013C16462EAB9B1ACDF8A4
:105390001CB00C93099B0C9A9342B8BF1346089318
:1053A00000230F9364E6652D40F3FB80DDE91001D7
:1053B0000022002306F096FF002800F0E48101237C
:1053C000CAF80430229BA84A01330134072B2394E6
:1053D0002293CAF8002000F306840AF1080A1B9BF6
:1053E000129A934203DB079BD8077FF5DCAD149B31
:1053F000159A1C44CAE90023229B23940133072BEE
:10540000229300F30A840AF1080A129B5D1E002D04
:105410007FF7C9AD102D40F3D8831026229B934F00
:10542000DDF834B005E00AF1080A103D102D40F314
:10543000CE8301331034072BCAE90076CDE922343C
:10544000F1DD4146584621AA02F04AFF00287FF4C8
:1054500033ADDDE922340DF1B80AE6E7012B00F0A7
:105460005B85022BDDF81CB07FF475AF139A2EAE6E
:1054700000F00F03D35C000940EA0170090906F847
:10548000013D50EA0103F3D12EAB9B1BCDF81CB0BC
:105490000C937FE70B9B089AA3EB020BBBF1000F69
:1054A0007FF766ADBBF1100F40F3B38521461023A3
:1054B000229A6E4F0D9C06E0ABF1100BBBF1100F62
:1054C0000AF1080A1ADD01321031072ACAE900730D
:1054D000CDE92221F0DD4146204621AA02F000FF5D
:1054E00000287FF4E9ACDDE92221ABF1100BBBF120
:1054F000100F4FF010030DF1B80AE4DC0C46013236
:105500005C44072ACDE92224CAF80070CAF804B026
:1055100000F376830AF1080A2AE5BBF1100F40F385
:105520006D8421461023229A504F0D9C06E0ABF16A
:10553000100BBBF1100F0AF1080A1ADD013210310D
:10554000072ACAE90073CDE92221F0DD4146204651
:1055500021AA02F0C5FE00287FF4AEACDDE92221CD
:10556000ABF1100BBBF1100F4FF010030DF1B80AA7
:10557000E4DC0C4601325C44072ACDE92224CAF857
:105580000070CAF804B000F3C4810AF1080AF7E415
:1055900041460D9821AA02F0A3FE00283FF417AD62
:1055A0008AE4129B012B40F36A810123229D01347E
:1055B0001D44072DCAF800602394CAF804302295D0
:1055C00000F3C8810AF1080A149B0135159A1C449E
:1055D000072DCAE90023CDE9225400F3CD810AF159
:1055E000080A0022DDE91001002306F07BFE0028F6
:1055F00040F06381129B0135013B01361C44072DAD
:10560000CAF800602295CAF80430239400F3488158
:105610000AF1080A169B01351C44CAF80430072D0C
:105620001DABCDE92254CAF800307FF7BAAC414631
:105630000D9821AA02F054FE00287FF43DAC239C73
:105640000DF1B80AAFE4102F40F39E84DDE922216A
:105650001793102453460846CA46B1464646B846F4
:105660002F460D9D0BE000BF58C8000874C5000808
:10567000A8F11008B8F1100F03F1080318DD01328A
:10568000BB491030072AC3E90014CDE92220EFDD21
:105690003146284621AA02F023FE00287FF40BACF5
:1056A000DDE92220A8F11008B8F1100F2EABE6DCDE
:1056B00001463D464746B0464E46D1469A46179B60
:1056C0007C180132AA49072ACDE92224CAF80470BD
:1056D000CAF8001000F366820AF1080A1FE4414686
:1056E0000D9821AA02F0FCFD00287FF4E5AB239C75
:1056F0000DF1B80A38E441460D9821AA179302F03B
:10570000EFFD00287FF4D8AB239C179B0DF1B80A5E
:1057100019E4102D40F354841026229B0D9F04E0C1
:10572000103D102D0AF1080A17DD0133904A10349C
:10573000072BCAE90026CDE92234F1DD414638467F
:1057400021AA02F0CDFD00287FF4B6ABDDE92234BA
:10575000103D102D0DF1B80AE7DC0133844A2C44CA
:10576000072BCDE92234CAF80450CAF800207FF78D
:1057700023AC41460D9821AA02F0B2FD00287FF427
:105780009BAB239C18E41B99002940F3D781129FFF
:105790000F9B9F42A8BF1F46002F0BDD229B3C445E
:1057A0000133072BCAE900672394229300F3CB83CC
:1057B0000AF1080A0F9D002FA8BFED1B002D00F372
:1057C0005B811B9D129B9D4280F23A81149B159A2E
:1057D0001C44CAE90023229B23940133072B229304
:1057E00000F326830AF1080A129B0F9A5D1B9F1A89
:1057F000AF42A8BF2F46002F0EDD229B1644013377
:105800003C44072BCAF80060CAF804702394229322
:1058100000F3A5830AF1080A002FA8BFED1B002D95
:105820007FF7C1AB102D40F3D0811026229B514F42
:10583000DDF834B005E00AF1080A103D102D40F300
:10584000C68101331034072BCAE90076CDE9223432
:10585000F1DD4146584621AA02F042FD00287FF4BE
:105860002BABDDE922340DF1B80AE6E7099B002BEA
:1058700040F0528300232EAE09930C938AE5079BD8
:10588000DA073FF592AE0123229D01341D44072D16
:10589000CAF800602394CAF8043022957FF7B8AEA6
:1058A00041460D9821AA02F01BFD00287FF404ABAD
:1058B000DDE922540DF1B80AACE6129B5E1E002E03
:1058C0007FF7A8AE102E40F30284CDF824904FF05D
:1058D000100BC146274FDDF8348005E00AF1080AB5
:1058E000103E102E40F3E38101351034072DCAE934
:1058F000007BCDE92254F1DD4946404621AA02F061
:10590000EFFC002840F08283DDE922540DF1B80A53
:10591000E6E741460D9821AA02F0E2FC00287FF458
:10592000CBAA239C0DF1B80AFFF72ABB0E9B53F8B4
:10593000040B0E9374E4C1170B46002BBFF6CDABDE
:105940002D2440424FF0010361EB41018DF8674087
:10595000FFF778BA41460D9821AA02F0C1FC002851
:105960007FF4AAAADDE922540DF1B80A2CE600BFA3
:1059700064C5000874C5000841460D9821AA02F0CC
:10598000AFFC00287FF498AADDE922540DF1B80A93
:1059900027E62EAEFEE4DDE9100102460B4606F0D6
:1059A000D3FC002840F07183099B013300F0E682AC
:1059B00025F02003472B0C9300F09E80DDE91012A8
:1059C0004BF48073171E0793C0F23F82109B08931D
:1059D00000231793662D00F07981462D00F0768123
:1059E00002210C9B0091452B08BF099B1FA918BFE2
:1059F000099C04911CA908BF5C1C03911BA93B4690
:105A0000089A0D980194029100F020FC672D06463B
:105A100040F08F821BF0010F00F0A08134446CE154
:105A20000123202099F80050FFF777B90E9B0A98C0
:105A300053F8041BC217C1E900020E93FFF74BB9DC
:105A4000079BD9073FF5C2AE129B0F9A5D1B9F1AA9
:105A5000AF42A8BF2F46DFE640210D9801F064FB5E
:105A6000C8F80000C8F81000002800F04D8340235B
:105A7000C8F81430FFF720B9102D40F32A83B44F33
:105A800009963A464FF0100B4746229B90460D9ED2
:105A900005E00AF1080A103D102D40F3B3810133EF
:105AA0001034072BCAE9008BCDE92234F1DD3946E9
:105AB000304621AA02F014FC002840F0C782DDE93C
:105AC00022340DF1B80AE6E730460E940997CDF876
:105AD0001CB002F0D7FB20EAE0739DF867400C9001
