:020000040800F2
:1000000000500020DD020008DF030008E1030008C3
:10001000E3030008E5030008E70300080000000010
:10002000000000000000000000000000E9030008DC
:10003000250300080000000025070008E506000869
:1000400025030008250300082503000825030008F0
:100050002503000825030008390800085508000892
:10006000710800088D080008A90800082503000889
:1000700025030008250300082503000825030008C0
:1000800025030008250300082503000825030008B0
:10009000250300082503000825030008C5080008FB
:1000A0002503000825030008250300082503000890
:1000B0002503000825030008250300082503000880
:1000C000250300082503000825030008950B0008F8
:1000D000A50B000825030008B50B0008790C0008E3
:1000E000550900082503000825030008000000004A
:1000F0000000000000000000000000000000000000
:0C01000000000000000000005FF808F1A3
:10010C000448054B10B5834203D0044B002B00D0A0
:10011C00984710BD000000200000002000000000E7
:10012C0006480749091A8B10C90FC91810B5491090
:10013C0003D0044B002B00D0984710BD00000020CA
:10014C00000000200000000010B5074C2378002BA5
:10015C0009D1FFF7D5FF054B002B02D00448AFF3B4
:10016C0000800123237010BD00000020000000005F
:10017C003C0D0008054B10B5002B03D00449054875
:10018C00AFF30080FFF7CCFF10BDC04600000000AD
:10019C00040000203C0D000870B50C4D0C4E761B75
:1001AC00B61005D0002408CD01349847A642FAD1E8
:1001BC0000F0BEFD074D084E761BB61005D000248E
:1001CC0008CD01349847A642FAD170BD580D0008ED
:1001DC00580D0008580D00085C0D000810B50122E0
:1001EC0000211046184CA047012211461046A0478A
:1001FC00002203E00133FE2BFCD90132B2F5FA7F69
:10020C0001D20023F7E70022114601200E4CA04733
:10021C00002201210846A047002203E00133FE2BF7
:10022C00FCD90132B2F5FA7F01D20023F7E70022A4
:10023C0003E00133FE2BFCD90132B2F5FA7F01D277
:10024C000023F7E710BD00BFB50A0008F0B583B076
:10025C00174B1B68ADF804301B0C8DF80630019958
:10026C000120144EB0470F278DF80470019901201E
:10027C00B04700258DF8045001990120B0470124A6
:10028C008DF8044001992046B0472A46294620465D
:10029C00094EB0472A4621462046B0472A460E2131
:1002AC002046B0472A4639462046B04703B0F0BD39
:1002BC00540D0008E5090008B50A000808B5024B02
:1002CC009847024B9847FCE759020008E9010008DF
:1002DC00002103E00B4B5B58435004310A480B4B95
:1002EC0042189A42F6D30A4A02E0002342F8043B31
:1002FC00084B9A42F9D300F011F8FFF74DFFFFF7C6
:10030C00DDFF7047600D0008000000200000002099
:10031C000000002000020020FEE700000F4B1A68CE
:10032C0042F001021A6059680D4A0A405A601A6874
:10033C0022F0847222F480321A601A6822F480222D
:10034C001A605A6822F4FE025A604FF41F029A6037
:10035C00044B4FF000629A60704700BF00100240DF
:10036C000000FFF800ED00E00278072A14D890F99D
:10037C0002300133D3F1000C03F007030CF0070C2F
:10038C0058BFCCF10003837000EB8303C3F8031058
:10039C000132027001207047002070470378B3B11E
:1003AC0090F9013000EB8303D3F803300B6090F924
:1003BC00013001335A4203F0070302F0070258BF21
:1003CC00534243700378013B0370012070470220B5
:1003DC007047FEE7FEE7FEE7FEE7FEE71EF0040FC0
:1003EC000CBFEFF30880EFF3098000F00BB90000AD
:1003FC002DE9F0438DB03F4B93F86451013D6DB244
:10040C00002D70DB4FF0000E012053E03C46DCF871
:10041C000000DCF80410DCF80820DCF80C300FC409
:10042C000CF1100C2746CC45F0D1DCF80000DCF8C0
:10043C00041003C7BCF808303B802E4A2A2101FB6C
:10044C00062301FB082203F1200C1F685C689868E6
:10045C00D968176054609060D160103310326345D6
:10046C00F3D118685968106051601B89138101AC75
:10047C00204B4FF02A0C0CFB063C09AF26460FCE46
:10048C00CCF80000CCF80410CCF80820CCF80C30D8
:10049C0034460CF1100CBE42F0D103CCCCF8000069
:1004AC00CCF804102388ACF8083000200EF1010EB3
:1004BC004FFA8EFE754515DDF0460E4A2A2303FBD6
:1004CC000E21097A0EF101060EFB033313441B7A3D
:1004DC009942EBD94FF02A0C0CFB0E2C01AF0CF10E
:1004EC00200993E710B10DB0BDE8F083013D6DB26A
:1004FC0086E700BF1C00002010B51F4BD3F850310D
:10050C0093F8242012B11D4A1278A2B11C4C21463A
:10051C001A481C4B9847A4F5AA73D3F8542101210F
:10052C0082F8241054F8041C087AD3F854311A7A3F
:10053C0090420ED010BD012283F824200E4CD4F82A
:10054C0050110E48104B9847D4F85031C4F8543120
:10055C00F0E791F82420002AECD00A6A1B6A9A4230
:10056C00E8D00648084B9847A4F5AA73D3F8503145
:10057C00032283F82420DDE71C00002084010020E6
:10058C0070010020A90300087503000870B582B043
:10059C0000230193164B984701A91648164B984710
:1005AC000128F9D0FF2000240CE0144D02FB045567
:1005BC0029461048124B9847032385F824303046BF
:1005CC000134E4B20D4B93F86431A3420DD90B4BBB
:1005DC002A2202FB043393F82430012BF0D9074B69
:1005EC0002FB04331E7A8642DFD902B070BD00BF15
:1005FC00FD03000884010020A90300081C00002052
:10060C007503000808B5836913F8023C012B04D963
:10061C00022B01D10A4B984708BD094B9847094B4F
:10062C0093F86731012BF7D1074B1B689847074BA1
:10063C009847074A536843F080535360ECE700BF78
:10064C00990500081C000020A801002005050008E1
:10065C0000ED00E0012805D0022805D000B170475C
:10066C0000DF704701DF704702DFF8E710B50024A8
:10067C0010E0174B02FB0431022081F82400002209
:10068C0081F82520D3F8503183F82400114B98477A
:10069C000134E4B20E4B93F86431A34216D90C4BDF
:1006AC002A2202FB043393F82530012BF0D1084B9E
:1006BC0002FB0433D3F82630012BDAD0044A2A206B
:1006CC0000FB0421013BC1F82630E1E710BD00BF5F
:1006DC001C0000206106000808B50A4B98470A4B1D
:1006EC0098470A4BD3F85021D3F854319A4208D08A
:1006FC00074B1B6803B19847064A536843F0805375
:10070C00536008BD79060008050500081C00002090
:10071C00A801002000ED00E0434BD3F85021EFF38B
:10072C0009811160D3F850211068A0F10400106009
:10073C0012681460D3F850211068A0F10400106006
:10074C0012681560D3F850211068A0F104001060F5
:10075C0012681660D3F850211068A0F104001060E4
:10076C0012681760D3F850211068A0F104001060D3
:10077C001268C2F80080D3F850211068A0F1040070
:10078C0010601268C2F80090D3F850211068A0F1E4
:10079C00040010601268C2F800A0D3F85021106851
:1007AC00A0F1040010601268C2F800B003F5AA7240
:1007BC0003F5A87C1068002804D0CCF800004FF09A
:1007CC0000011160D3F850211368D3F800B0106801
:1007DC0000F104001060D3F800A0106800F10400D0
:1007EC001060D3F80090106800F104001060D3F88A
:1007FC000080106800F1040010601F68106800F1A0
:10080C00040010601E68106800F1040010601D6880
:10081C00106800F1040010601C68106800F10400FE
:10082C00106083F3098870471C00002008B5044B46
:10083C001B689847034A536943F00103536108BD91
:10084C00AC0100200004014008B5044B5B689847DC
:10085C00034A536943F00203536108BDAC01002005
:10086C000004014008B5044B9B689847034A536940
:10087C0043F00403536108BDAC01002000040140A7
:10088C0008B5044BDB689847034A536943F00803E7
:10089C00536108BDAC0100200004014008B5044BB5
:1008AC001B699847034A536943F01003536108BD11
:1008BC00AC0100200004014008B5214B5B6913F02A
:1008CC00200F07D01F4B5B6998471D4A536943F0B3
:1008DC00200353611A4B5B6913F0400F07D0194B7F
:1008EC009B699847164A536943F040035361144B74
:1008FC005B6913F0800F07D0124BDB699847104AE5
:10090C00536943F0800353610D4B5B6913F4807F93
:10091C0007D00C4B1B6A9847094A536943F4807300
:10092C005361074B5B6913F4007F07D0054B5B6A7F
:10093C009847034A536943F40073536108BD00BFE1
:10094C0000040140AC01002008B5214B5B6913F495
:10095C00806F07D01F4B5B6998471D4A536943F45E
:10096C00806353611A4B5B6913F4805F07D0194B9A
:10097C009B699847164A536943F480535361144B4F
:10098C005B6913F4005F07D0124BDB699847104A80
:10099C00536943F4005353610D4B5B6913F4804F5F
:1009AC0007D00C4B1B6A9847094A536943F48043A0
:1009BC005361074B5B6913F4004F07D0054B5B6A1F
:1009CC009847034A536943F40043536108BD00BF81
:1009DC0000040140AC01002000B583B00191032854
:1009EC003BD8DFE800F002282E3401212220294BCD
:1009FC00984729499DF80430072B30D80A469DF8B2
:100A0C0005300F2B30D0082B3BD010689DF80430EC
:100A1C0099000F238B4020EA0303136010689DF8A4
:100A2C0006309DF805C043EA0C038B40034313606A
:100A3C0003B05DF804FB01212320164B984717499E
:100A4C00D8E701212420134B98471549D2E70121FF
:100A5C002520104B98471349CCE70021CAE7083BE7
:100A6C008DF804300A1DCAE7CB689DF804C001203C
:100A7C0000FA0CF023EA0003CB6008238DF8053054
:100A8C00C3E7CB689DF804C0012000FA0CF00343C7
:100A9C00CB60BAE7FD0A000800080140000C0140D9
:100AAC000010014000140140032803D8DFE800F0D7
:100ABC000A040608002006E0094804E0094802E0A0
:100ACC00094800E00948012A05D01031012303FA36
:100ADC0001F101617047012303FA01F1F9E700BF4D
:100AEC00000C0140001001400014014000080140BE
:100AFC00012906D04309012B2FD0022B37D013B379
:100B0C0070474309012B0CD0022B13D0002BF7D1CB
:100B1C001C4A536900F01F010120884018435061A2
:100B2C007047184A936900F01F0101208840184350
:100B3C0090617047134AD36900F01F01012088406F
:100B4C001843D06170470F4A536900F01F01012010
:100B5C00884023EA0000506170470A4A936900F00C
:100B6C001F010120884023EA00009061704705496D
:100B7C00CB6900F01F00012202FA00F023EA00000A
:100B8C00C861BDE70010024008B5024B1B689847CE
:100B9C0008BD00BFE801002008B5024B5B68984710
:100BAC0008BD00BFE801002000B583B00023ADF8FC
:100BBC0006302C4BDB6813F0200F48D0294BDB6838
:100BCC0013F4805F1BD1274BDB6813F4805F22D1B9
:100BDC00244BDB6813F4805F28D1224BDB6813F4C1
:100BEC00C06F23D11F4B5B68DBB2ADF806301E4BD8
:100BFC001B680DF10600984703B05DF804FB194B18
:100C0C00DB6813F4C06FDED1164B5B68C3F30803CB
:100C1C00ADF80630EBE7134BDB6813F4C06FD7D09D
:100C2C00104B5B68DBB2ADF80630E0E70D4BDB68D0
:100C3C0013F4805FDBD10B4BDB6813F4C06FD6D0A1
:100C4C00084B5B6803F07F03ADF80630CFE7054B2C
:100C5C00DB6813F0400FCFD0034B1B680DF106007F
:100C6C009847C9E700440040F401002000B583B068
:100C7C000023ADF806302C4BDB6813F0200F48D066
:100C8C00294BDB6813F4805F1BD1274BDB6813F413
:100C9C00805F22D1244BDB6813F4805F28D1224B78
:100CAC00DB6813F4C06F23D11F4B5B68DBB2ADF86C
:100CBC0006301E4B1B680DF10600984703B05DF81B
:100CCC0004FB194BDB6813F4C06FDED1164B5B6869
:100CDC00C3F30803ADF80630EBE7134BDB6813F4F2
:100CEC00C06FD7D0104B5B68DBB2ADF80630E0E7D5
:100CFC000D4BDB6813F4805FDBD10B4BDB6813F41B
:100D0C00C06FD6D0084B5B6803F07F03ADF806309C
:100D1C00CFE7054BDB6813F0400FCFD0034B1B68BC
:100D2C000DF106009847C9E700480040F401002087
:100D3C00F8B5C046F8BC08BC9E467047F8B5C0462E
:080D4C00F8BC08BC9E4670478C
:040D54000E0001008C
:040D5800810100080D
:040D5C005501000835
:04000005080002DD10
:00000001FF
